{
  "contractName": "FRT",
  "abi": [
    {
      "anonymous": false,
      "inputs": [
        {
          "indexed": false,
          "internalType": "address",
          "name": "owner",
          "type": "address"
        },
        {
          "indexed": false,
          "internalType": "address",
          "name": "spender",
          "type": "address"
        },
        {
          "indexed": false,
          "internalType": "uint256",
          "name": "value",
          "type": "uint256"
        }
      ],
      "name": "Approval",
      "type": "event"
    },
    {
      "anonymous": false,
      "inputs": [
        {
          "indexed": false,
          "internalType": "address",
          "name": "from",
          "type": "address"
        },
        {
          "indexed": false,
          "internalType": "address",
          "name": "to",
          "type": "address"
        },
        {
          "indexed": false,
          "internalType": "uint256",
          "name": "value",
          "type": "uint256"
        }
      ],
      "name": "Transfer",
      "type": "event"
    },
    {
      "inputs": [
        {
          "internalType": "address",
          "name": "",
          "type": "address"
        },
        {
          "internalType": "address",
          "name": "",
          "type": "address"
        }
      ],
      "name": "allowance",
      "outputs": [
        {
          "internalType": "uint256",
          "name": "",
          "type": "uint256"
        }
      ],
      "stateMutability": "view",
      "type": "function"
    },
    {
      "inputs": [
        {
          "internalType": "address",
          "name": "",
          "type": "address"
        }
      ],
      "name": "balances",
      "outputs": [
        {
          "internalType": "uint256",
          "name": "",
          "type": "uint256"
        }
      ],
      "stateMutability": "view",
      "type": "function"
    },
    {
      "inputs": [],
      "name": "decimals",
      "outputs": [
        {
          "internalType": "uint256",
          "name": "",
          "type": "uint256"
        }
      ],
      "stateMutability": "view",
      "type": "function"
    },
    {
      "inputs": [],
      "name": "name",
      "outputs": [
        {
          "internalType": "string",
          "name": "",
          "type": "string"
        }
      ],
      "stateMutability": "view",
      "type": "function"
    },
    {
      "inputs": [],
      "name": "symbol",
      "outputs": [
        {
          "internalType": "string",
          "name": "",
          "type": "string"
        }
      ],
      "stateMutability": "view",
      "type": "function"
    },
    {
      "inputs": [],
      "name": "totalSupply",
      "outputs": [
        {
          "internalType": "uint256",
          "name": "",
          "type": "uint256"
        }
      ],
      "stateMutability": "view",
      "type": "function"
    },
    {
      "inputs": [
        {
          "internalType": "address",
          "name": "_account",
          "type": "address"
        }
      ],
      "name": "balanceOf",
      "outputs": [
        {
          "internalType": "uint256",
          "name": "",
          "type": "uint256"
        }
      ],
      "stateMutability": "view",
      "type": "function"
    },
    {
      "inputs": [
        {
          "internalType": "address",
          "name": "_recipient",
          "type": "address"
        },
        {
          "internalType": "uint256",
          "name": "_amount",
          "type": "uint256"
        }
      ],
      "name": "transfer",
      "outputs": [],
      "stateMutability": "nonpayable",
      "type": "function"
    },
    {
      "inputs": [
        {
          "internalType": "address",
          "name": "_spender",
          "type": "address"
        },
        {
          "internalType": "uint256",
          "name": "_amount",
          "type": "uint256"
        }
      ],
      "name": "approve",
      "outputs": [],
      "stateMutability": "nonpayable",
      "type": "function"
    },
    {
      "inputs": [
        {
          "internalType": "address",
          "name": "_sender",
          "type": "address"
        },
        {
          "internalType": "address",
          "name": "_recipient",
          "type": "address"
        },
        {
          "internalType": "uint256",
          "name": "_amount",
          "type": "uint256"
        }
      ],
      "name": "transferFrom",
      "outputs": [],
      "stateMutability": "nonpayable",
      "type": "function"
    },
    {
      "inputs": [
        {
          "internalType": "uint256",
          "name": "_amount",
          "type": "uint256"
        }
      ],
      "name": "burn",
      "outputs": [],
      "stateMutability": "nonpayable",
      "type": "function"
    }
  ],
  "bytecode": "0x6080604052601260025534801561001557600080fd5b50610c4a806100256000396000f3fe608060405234801561001057600080fd5b50600436106100a95760003560e01c8063313ce56711610071578063313ce5671461015257806342966c681461017057806370a082311461018c57806395d89b41146101bc578063a9059cbb146101da578063dd62ed3e146101f6576100a9565b806306fdde03146100ae578063095ea7b3146100cc57806318160ddd146100e857806323b872dd1461010657806327e235e314610122575b600080fd5b6100b6610226565b6040516100c391906108c5565b60405180910390f35b6100e660048036038101906100e19190610980565b6102b4565b005b6100f0610374565b6040516100fd91906109cf565b60405180910390f35b610120600480360381019061011b91906109ea565b61037a565b005b61013c60048036038101906101379190610a3d565b610582565b60405161014991906109cf565b60405180910390f35b61015a61059a565b60405161016791906109cf565b60405180910390f35b61018a60048036038101906101859190610a6a565b6105a0565b005b6101a660048036038101906101a19190610a3d565b61064e565b6040516101b391906109cf565b60405180910390f35b6101c4610697565b6040516101d191906108c5565b60405180910390f35b6101f460048036038101906101ef9190610980565b610725565b005b610210600480360381019061020b9190610a97565b610810565b60405161021d91906109cf565b60405180910390f35b6000805461023390610b06565b80601f016020809104026020016040519081016040528092919081815260200182805461025f90610b06565b80156102ac5780601f10610281576101008083540402835291602001916102ac565b820191906000526020600020905b81548152906001019060200180831161028f57829003601f168201915b505050505081565b80600560003373ffffffffffffffffffffffffffffffffffffffff1673ffffffffffffffffffffffffffffffffffffffff16815260200190815260200160002060008473ffffffffffffffffffffffffffffffffffffffff1673ffffffffffffffffffffffffffffffffffffffff168152602001908152602001600020819055507f8c5be1e5ebec7d5bd14f71427d1e84f3dd0314c0f7b2291e5b200ac8c7c3b92533838360405161036893929190610b46565b60405180910390a15050565b60035481565b80600560008573ffffffffffffffffffffffffffffffffffffffff1673ffffffffffffffffffffffffffffffffffffffff16815260200190815260200160002060003373ffffffffffffffffffffffffffffffffffffffff1673ffffffffffffffffffffffffffffffffffffffff16815260200190815260200160002054101561040357600080fd5b80600560008573ffffffffffffffffffffffffffffffffffffffff1673ffffffffffffffffffffffffffffffffffffffff16815260200190815260200160002060003373ffffffffffffffffffffffffffffffffffffffff1673ffffffffffffffffffffffffffffffffffffffff168152602001908152602001600020600082825461048f9190610bac565b9250508190555080600460008573ffffffffffffffffffffffffffffffffffffffff1673ffffffffffffffffffffffffffffffffffffffff16815260200190815260200160002060008282546104e59190610bac565b9250508190555080600460008473ffffffffffffffffffffffffffffffffffffffff1673ffffffffffffffffffffffffffffffffffffffff168152602001908152602001600020600082825461053b9190610be0565b925050819055507fddf252ad1be2c89b69c2b068fc378daa952ba7f163c4a11628f55a4df523b3ef83838360405161057593929190610b46565b60405180910390a1505050565b60046020528060005260406000206000915090505481565b60025481565b80600460003373ffffffffffffffffffffffffffffffffffffffff1673ffffffffffffffffffffffffffffffffffffffff16815260200190815260200160002060008282546105ef9190610bac565b9250508190555080600360008282546106089190610bac565b925050819055507fddf252ad1be2c89b69c2b068fc378daa952ba7f163c4a11628f55a4df523b3ef3360008360405161064393929190610b46565b60405180910390a150565b6000600460008373ffffffffffffffffffffffffffffffffffffffff1673ffffffffffffffffffffffffffffffffffffffff168152602001908152602001600020549050919050565b600180546106a490610b06565b80601f01602080910402602001604051908101604052809291908181526020018280546106d090610b06565b801561071d5780601f106106f25761010080835404028352916020019161071d565b820191906000526020600020905b81548152906001019060200180831161070057829003601f168201915b505050505081565b80600460003373ffffffffffffffffffffffffffffffffffffffff1673ffffffffffffffffffffffffffffffffffffffff16815260200190815260200160002060008282546107749190610bac565b9250508190555080600460008473ffffffffffffffffffffffffffffffffffffffff1673ffffffffffffffffffffffffffffffffffffffff16815260200190815260200160002060008282546107ca9190610be0565b925050819055507fddf252ad1be2c89b69c2b068fc378daa952ba7f163c4a11628f55a4df523b3ef33838360405161080493929190610b46565b60405180910390a15050565b6005602052816000526040600020602052806000526040600020600091509150505481565b600081519050919050565b600082825260208201905092915050565b60005b8381101561086f578082015181840152602081019050610854565b60008484015250505050565b6000601f19601f8301169050919050565b600061089782610835565b6108a18185610840565b93506108b1818560208601610851565b6108ba8161087b565b840191505092915050565b600060208201905081810360008301526108df818461088c565b905092915050565b600080fd5b600073ffffffffffffffffffffffffffffffffffffffff82169050919050565b6000610917826108ec565b9050919050565b6109278161090c565b811461093257600080fd5b50565b6000813590506109448161091e565b92915050565b6000819050919050565b61095d8161094a565b811461096857600080fd5b50565b60008135905061097a81610954565b92915050565b60008060408385031215610997576109966108e7565b5b60006109a585828601610935565b92505060206109b68582860161096b565b9150509250929050565b6109c98161094a565b82525050565b60006020820190506109e460008301846109c0565b92915050565b600080600060608486031215610a0357610a026108e7565b5b6000610a1186828701610935565b9350506020610a2286828701610935565b9250506040610a338682870161096b565b9150509250925092565b600060208284031215610a5357610a526108e7565b5b6000610a6184828501610935565b91505092915050565b600060208284031215610a8057610a7f6108e7565b5b6000610a8e8482850161096b565b91505092915050565b60008060408385031215610aae57610aad6108e7565b5b6000610abc85828601610935565b9250506020610acd85828601610935565b9150509250929050565b7f4e487b7100000000000000000000000000000000000000000000000000000000600052602260045260246000fd5b60006002820490506001821680610b1e57607f821691505b602082108103610b3157610b30610ad7565b5b50919050565b610b408161090c565b82525050565b6000606082019050610b5b6000830186610b37565b610b686020830185610b37565b610b7560408301846109c0565b949350505050565b7f4e487b7100000000000000000000000000000000000000000000000000000000600052601160045260246000fd5b6000610bb78261094a565b9150610bc28361094a565b9250828203905081811115610bda57610bd9610b7d565b5b92915050565b6000610beb8261094a565b9150610bf68361094a565b9250828201905080821115610c0e57610c0d610b7d565b5b9291505056fea26469706673582212209ada837d1dd696a61573197504b2b90b247570a99bc8e79e7c018074911f080864736f6c63430008110033",
  "immutableReferences": {},
  "source": "// SPDX-License-Identifier: MIT\r\npragma solidity ^0.8.17;\r\n\r\ncontract FRT{\r\n    string public name;\r\n    string public symbol;\r\n    uint public decimals = 18;\r\n    uint public totalSupply;\r\n    mapping(address=>uint) public balances;\r\n    mapping(address=>mapping(address=>uint)) public allowance;\r\n    event Transfer(address from,address to,uint value);\r\n    event Approval(address owner,address spender,uint value);\r\n\r\n    //  \r\n    function balanceOf(address _account) view external returns(uint){\r\n        return balances[_account];\r\n    }\r\n\r\n    //  \r\n    function transfer(address _recipient,uint _amount) external {\r\n        balances[msg.sender] -= _amount;\r\n        balances[_recipient] += _amount;\r\n        emit Transfer(msg.sender,_recipient,_amount);\r\n    }\r\n\r\n    //   \r\n    function approve(address _spender, uint _amount) external {\r\n        allowance[msg.sender][_spender] = _amount;\r\n        emit Approval(msg.sender, _spender, _amount);\r\n    }\r\n\r\n    //   \r\n    function transferFrom(address _sender,address _recipient, uint _amount) external {\r\n        require(allowance[_sender][msg.sender] >= _amount);\r\n\r\n        allowance[_sender][msg.sender] -= _amount;\r\n        balances[_sender] -= _amount;\r\n        balances[_recipient] += _amount;\r\n        emit Transfer(_sender, _recipient, _amount);\r\n    }\r\n\r\n    //  \r\n    function mint(uint _amount) internal{\r\n        balances[msg.sender] += _amount;\r\n        totalSupply += _amount;\r\n        emit Transfer(address(0),msg.sender,_amount);\r\n    }\r\n    //  \r\n    function burn (uint _amount) external{\r\n        balances[msg.sender] -= _amount;\r\n        totalSupply -= _amount;\r\n        emit Transfer(msg.sender,address(0),_amount);\r\n    }\r\n}",
  "sourcePath": "C:\\Users\\qkrxo\\Desktop\\\\react_project\\ethfruitshop\\smartContract\\contracts\\FRT.sol",
  "compiler": {
    "name": "solc",
    "version": "0.8.17+commit.8df45f5f.Emscripten.clang"
  },
  "schemaVersion": "3.4.11",
  "updatedAt": "2022-12-04T15:25:59.259Z",
  "devdoc": {
    "kind": "dev",
    "methods": {},
    "version": 1
  },
  "userdoc": {
    "kind": "user",
    "methods": {},
    "version": 1
  }
}