{
  "contractName": "FRT",
  "abi": [
    {
      "anonymous": false,
      "inputs": [
        {
          "indexed": false,
          "internalType": "address",
          "name": "owner",
          "type": "address"
        },
        {
          "indexed": false,
          "internalType": "address",
          "name": "spender",
          "type": "address"
        },
        {
          "indexed": false,
          "internalType": "uint256",
          "name": "value",
          "type": "uint256"
        }
      ],
      "name": "Approval",
      "type": "event"
    },
    {
      "anonymous": false,
      "inputs": [
        {
          "indexed": false,
          "internalType": "address",
          "name": "from",
          "type": "address"
        },
        {
          "indexed": false,
          "internalType": "address",
          "name": "to",
          "type": "address"
        },
        {
          "indexed": false,
          "internalType": "uint256",
          "name": "value",
          "type": "uint256"
        }
      ],
      "name": "Transfer",
      "type": "event"
    },
    {
      "inputs": [
        {
          "internalType": "address",
          "name": "",
          "type": "address"
        },
        {
          "internalType": "address",
          "name": "",
          "type": "address"
        }
      ],
      "name": "allowance",
      "outputs": [
        {
          "internalType": "uint256",
          "name": "",
          "type": "uint256"
        }
      ],
      "stateMutability": "view",
      "type": "function"
    },
    {
      "inputs": [
        {
          "internalType": "address",
          "name": "",
          "type": "address"
        }
      ],
      "name": "balances",
      "outputs": [
        {
          "internalType": "uint256",
          "name": "",
          "type": "uint256"
        }
      ],
      "stateMutability": "view",
      "type": "function"
    },
    {
      "inputs": [],
      "name": "decimals",
      "outputs": [
        {
          "internalType": "uint256",
          "name": "",
          "type": "uint256"
        }
      ],
      "stateMutability": "view",
      "type": "function"
    },
    {
      "inputs": [],
      "name": "name",
      "outputs": [
        {
          "internalType": "string",
          "name": "",
          "type": "string"
        }
      ],
      "stateMutability": "view",
      "type": "function"
    },
    {
      "inputs": [],
      "name": "symbol",
      "outputs": [
        {
          "internalType": "string",
          "name": "",
          "type": "string"
        }
      ],
      "stateMutability": "view",
      "type": "function"
    },
    {
      "inputs": [],
      "name": "totalSupply",
      "outputs": [
        {
          "internalType": "uint256",
          "name": "",
          "type": "uint256"
        }
      ],
      "stateMutability": "view",
      "type": "function"
    },
    {
      "inputs": [
        {
          "internalType": "address",
          "name": "_account",
          "type": "address"
        }
      ],
      "name": "balanceOf",
      "outputs": [
        {
          "internalType": "uint256",
          "name": "",
          "type": "uint256"
        }
      ],
      "stateMutability": "view",
      "type": "function"
    },
    {
      "inputs": [
        {
          "internalType": "address",
          "name": "_recipient",
          "type": "address"
        },
        {
          "internalType": "uint256",
          "name": "_amount",
          "type": "uint256"
        }
      ],
      "name": "transfer",
      "outputs": [],
      "stateMutability": "nonpayable",
      "type": "function"
    },
    {
      "inputs": [
        {
          "internalType": "address",
          "name": "_spender",
          "type": "address"
        },
        {
          "internalType": "uint256",
          "name": "_amount",
          "type": "uint256"
        }
      ],
      "name": "approve",
      "outputs": [],
      "stateMutability": "nonpayable",
      "type": "function"
    },
    {
      "inputs": [
        {
          "internalType": "address",
          "name": "_sender",
          "type": "address"
        },
        {
          "internalType": "address",
          "name": "_recipient",
          "type": "address"
        },
        {
          "internalType": "uint256",
          "name": "_amount",
          "type": "uint256"
        }
      ],
      "name": "transferFrom",
      "outputs": [],
      "stateMutability": "nonpayable",
      "type": "function"
    },
    {
      "inputs": [
        {
          "internalType": "uint256",
          "name": "_amount",
          "type": "uint256"
        }
      ],
      "name": "burn",
      "outputs": [],
      "stateMutability": "nonpayable",
      "type": "function"
    }
  ],
  "bytecode": "0x6080604052601260025534801561001557600080fd5b50610b17806100256000396000f3fe608060405234801561001057600080fd5b50600436106100a95760003560e01c8063313ce56711610071578063313ce5671461015257806342966c681461017057806370a082311461018c57806395d89b41146101bc578063a9059cbb146101da578063dd62ed3e146101f6576100a9565b806306fdde03146100ae578063095ea7b3146100cc57806318160ddd146100e857806323b872dd1461010657806327e235e314610122575b600080fd5b6100b6610226565b6040516100c391906107d8565b60405180910390f35b6100e660048036038101906100e19190610893565b6102b4565b005b6100f0610339565b6040516100fd91906108e2565b60405180910390f35b610120600480360381019061011b91906108fd565b61033f565b005b61013c60048036038101906101379190610950565b61050c565b60405161014991906108e2565b60405180910390f35b61015a610524565b60405161016791906108e2565b60405180910390f35b61018a6004803603810190610185919061097d565b61052a565b005b6101a660048036038101906101a19190610950565b61059c565b6040516101b391906108e2565b60405180910390f35b6101c46105e5565b6040516101d191906107d8565b60405180910390f35b6101f460048036038101906101ef9190610893565b610673565b005b610210600480360381019061020b91906109aa565b610723565b60405161021d91906108e2565b60405180910390f35b6000805461023390610a19565b80601f016020809104026020016040519081016040528092919081815260200182805461025f90610a19565b80156102ac5780601f10610281576101008083540402835291602001916102ac565b820191906000526020600020905b81548152906001019060200180831161028f57829003601f168201915b505050505081565b80600560003373ffffffffffffffffffffffffffffffffffffffff1673ffffffffffffffffffffffffffffffffffffffff16815260200190815260200160002060008473ffffffffffffffffffffffffffffffffffffffff1673ffffffffffffffffffffffffffffffffffffffff168152602001908152602001600020819055505050565b60035481565b80600560008573ffffffffffffffffffffffffffffffffffffffff1673ffffffffffffffffffffffffffffffffffffffff16815260200190815260200160002060003373ffffffffffffffffffffffffffffffffffffffff1673ffffffffffffffffffffffffffffffffffffffff1681526020019081526020016000205410156103c857600080fd5b80600560008573ffffffffffffffffffffffffffffffffffffffff1673ffffffffffffffffffffffffffffffffffffffff16815260200190815260200160002060003373ffffffffffffffffffffffffffffffffffffffff1673ffffffffffffffffffffffffffffffffffffffff16815260200190815260200160002060008282546104549190610a79565b9250508190555080600460008573ffffffffffffffffffffffffffffffffffffffff1673ffffffffffffffffffffffffffffffffffffffff16815260200190815260200160002060008282546104aa9190610a79565b9250508190555080600460008473ffffffffffffffffffffffffffffffffffffffff1673ffffffffffffffffffffffffffffffffffffffff16815260200190815260200160002060008282546105009190610aad565b92505081905550505050565b60046020528060005260406000206000915090505481565b60025481565b80600460003373ffffffffffffffffffffffffffffffffffffffff1673ffffffffffffffffffffffffffffffffffffffff16815260200190815260200160002060008282546105799190610a79565b9250508190555080600360008282546105929190610a79565b9250508190555050565b6000600460008373ffffffffffffffffffffffffffffffffffffffff1673ffffffffffffffffffffffffffffffffffffffff168152602001908152602001600020549050919050565b600180546105f290610a19565b80601f016020809104026020016040519081016040528092919081815260200182805461061e90610a19565b801561066b5780601f106106405761010080835404028352916020019161066b565b820191906000526020600020905b81548152906001019060200180831161064e57829003601f168201915b505050505081565b80600460003373ffffffffffffffffffffffffffffffffffffffff1673ffffffffffffffffffffffffffffffffffffffff16815260200190815260200160002060008282546106c29190610a79565b9250508190555080600460008473ffffffffffffffffffffffffffffffffffffffff1673ffffffffffffffffffffffffffffffffffffffff16815260200190815260200160002060008282546107189190610aad565b925050819055505050565b6005602052816000526040600020602052806000526040600020600091509150505481565b600081519050919050565b600082825260208201905092915050565b60005b83811015610782578082015181840152602081019050610767565b60008484015250505050565b6000601f19601f8301169050919050565b60006107aa82610748565b6107b48185610753565b93506107c4818560208601610764565b6107cd8161078e565b840191505092915050565b600060208201905081810360008301526107f2818461079f565b905092915050565b600080fd5b600073ffffffffffffffffffffffffffffffffffffffff82169050919050565b600061082a826107ff565b9050919050565b61083a8161081f565b811461084557600080fd5b50565b60008135905061085781610831565b92915050565b6000819050919050565b6108708161085d565b811461087b57600080fd5b50565b60008135905061088d81610867565b92915050565b600080604083850312156108aa576108a96107fa565b5b60006108b885828601610848565b92505060206108c98582860161087e565b9150509250929050565b6108dc8161085d565b82525050565b60006020820190506108f760008301846108d3565b92915050565b600080600060608486031215610916576109156107fa565b5b600061092486828701610848565b935050602061093586828701610848565b92505060406109468682870161087e565b9150509250925092565b600060208284031215610966576109656107fa565b5b600061097484828501610848565b91505092915050565b600060208284031215610993576109926107fa565b5b60006109a18482850161087e565b91505092915050565b600080604083850312156109c1576109c06107fa565b5b60006109cf85828601610848565b92505060206109e085828601610848565b9150509250929050565b7f4e487b7100000000000000000000000000000000000000000000000000000000600052602260045260246000fd5b60006002820490506001821680610a3157607f821691505b602082108103610a4457610a436109ea565b5b50919050565b7f4e487b7100000000000000000000000000000000000000000000000000000000600052601160045260246000fd5b6000610a848261085d565b9150610a8f8361085d565b9250828203905081811115610aa757610aa6610a4a565b5b92915050565b6000610ab88261085d565b9150610ac38361085d565b9250828201905080821115610adb57610ada610a4a565b5b9291505056fea2646970667358221220b23aa03d89333588b37030eb098a8885a6955fca5017777c9553a8f9d2fc7a9c64736f6c63430008110033",
  "immutableReferences": {},
  "source": "// SPDX-License-Identifier: MIT\r\npragma solidity ^0.8.17;\r\n\r\ncontract FRT{\r\n    string public name;\r\n    string public symbol;\r\n    uint public decimals = 18;\r\n    uint public totalSupply;\r\n    mapping(address=>uint) public balances;\r\n    mapping(address=>mapping(address=>uint)) public allowance;\r\n    event Transfer(address from,address to,uint value);\r\n    event Approval(address owner,address spender,uint value);\r\n\r\n    //  \r\n    function balanceOf(address _account) view external returns(uint){\r\n        return balances[_account];\r\n    }\r\n\r\n    //  \r\n    function transfer(address _recipient,uint _amount) external {\r\n        balances[msg.sender] -= _amount;\r\n        balances[_recipient] += _amount;\r\n    }\r\n\r\n    //   \r\n    function approve(address _spender, uint _amount) external {\r\n        allowance[msg.sender][_spender] = _amount;\r\n    }\r\n\r\n    //   \r\n    function transferFrom(address _sender,address _recipient, uint _amount) external {\r\n        require(allowance[_sender][msg.sender] >= _amount);\r\n\r\n        allowance[_sender][msg.sender] -= _amount;\r\n        balances[_sender] -= _amount;\r\n        balances[_recipient] += _amount;\r\n    }\r\n\r\n    //  \r\n    function mint(uint _amount) internal{\r\n        balances[msg.sender] += _amount;\r\n        totalSupply += _amount;\r\n    }\r\n    //  \r\n    function burn (uint _amount) external{\r\n        balances[msg.sender] -= _amount;\r\n        totalSupply -= _amount;\r\n    }\r\n}",
  "sourcePath": "C:\\Users\\KGA_030\\Desktop\\class\\React_project\\ethfruitshop\\smartContract\\contracts\\FRT.sol",
  "compiler": {
    "name": "solc",
    "version": "0.8.17+commit.8df45f5f.Emscripten.clang"
  },
  "schemaVersion": "3.4.11",
  "updatedAt": "2022-12-08T06:25:05.463Z",
  "devdoc": {
    "kind": "dev",
    "methods": {},
    "version": 1
  },
  "userdoc": {
    "kind": "user",
    "methods": {},
    "version": 1
  }
}