{
  "contractName": "FruitShop",
  "abi": [
    {
      "inputs": [
        {
          "internalType": "string",
          "name": "_name",
          "type": "string"
        },
        {
          "internalType": "string",
          "name": "_symbol",
          "type": "string"
        },
        {
          "internalType": "uint256",
          "name": "_amount",
          "type": "uint256"
        },
        {
          "internalType": "uint256",
          "name": "_carrot",
          "type": "uint256"
        },
        {
          "internalType": "uint256",
          "name": "_apple",
          "type": "uint256"
        },
        {
          "internalType": "uint256",
          "name": "_lemon",
          "type": "uint256"
        },
        {
          "internalType": "uint256",
          "name": "_initPrice",
          "type": "uint256"
        }
      ],
      "stateMutability": "nonpayable",
      "type": "constructor"
    },
    {
      "anonymous": false,
      "inputs": [
        {
          "indexed": false,
          "internalType": "address",
          "name": "owner",
          "type": "address"
        },
        {
          "indexed": false,
          "internalType": "address",
          "name": "spender",
          "type": "address"
        },
        {
          "indexed": false,
          "internalType": "uint256",
          "name": "value",
          "type": "uint256"
        }
      ],
      "name": "Approval",
      "type": "event"
    },
    {
      "anonymous": false,
      "inputs": [
        {
          "indexed": false,
          "internalType": "address",
          "name": "from",
          "type": "address"
        },
        {
          "indexed": false,
          "internalType": "address",
          "name": "to",
          "type": "address"
        },
        {
          "indexed": false,
          "internalType": "uint256",
          "name": "value",
          "type": "uint256"
        }
      ],
      "name": "Transfer",
      "type": "event"
    },
    {
      "inputs": [
        {
          "internalType": "address",
          "name": "",
          "type": "address"
        },
        {
          "internalType": "address",
          "name": "",
          "type": "address"
        }
      ],
      "name": "allowance",
      "outputs": [
        {
          "internalType": "uint256",
          "name": "",
          "type": "uint256"
        }
      ],
      "stateMutability": "view",
      "type": "function",
      "constant": true
    },
    {
      "inputs": [
        {
          "internalType": "address",
          "name": "_spender",
          "type": "address"
        },
        {
          "internalType": "uint256",
          "name": "_amount",
          "type": "uint256"
        }
      ],
      "name": "approve",
      "outputs": [],
      "stateMutability": "nonpayable",
      "type": "function"
    },
    {
      "inputs": [
        {
          "internalType": "address",
          "name": "_account",
          "type": "address"
        }
      ],
      "name": "balanceOf",
      "outputs": [
        {
          "internalType": "uint256",
          "name": "",
          "type": "uint256"
        }
      ],
      "stateMutability": "view",
      "type": "function",
      "constant": true
    },
    {
      "inputs": [
        {
          "internalType": "address",
          "name": "",
          "type": "address"
        }
      ],
      "name": "balances",
      "outputs": [
        {
          "internalType": "uint256",
          "name": "",
          "type": "uint256"
        }
      ],
      "stateMutability": "view",
      "type": "function",
      "constant": true
    },
    {
      "inputs": [
        {
          "internalType": "uint256",
          "name": "_amount",
          "type": "uint256"
        }
      ],
      "name": "burn",
      "outputs": [],
      "stateMutability": "nonpayable",
      "type": "function"
    },
    {
      "inputs": [],
      "name": "decimals",
      "outputs": [
        {
          "internalType": "uint256",
          "name": "",
          "type": "uint256"
        }
      ],
      "stateMutability": "view",
      "type": "function",
      "constant": true
    },
    {
      "inputs": [],
      "name": "ethCanBuy",
      "outputs": [
        {
          "internalType": "uint256",
          "name": "",
          "type": "uint256"
        }
      ],
      "stateMutability": "view",
      "type": "function",
      "constant": true
    },
    {
      "inputs": [],
      "name": "name",
      "outputs": [
        {
          "internalType": "string",
          "name": "",
          "type": "string"
        }
      ],
      "stateMutability": "view",
      "type": "function",
      "constant": true
    },
    {
      "inputs": [],
      "name": "owner",
      "outputs": [
        {
          "internalType": "address",
          "name": "",
          "type": "address"
        }
      ],
      "stateMutability": "view",
      "type": "function",
      "constant": true
    },
    {
      "inputs": [],
      "name": "symbol",
      "outputs": [
        {
          "internalType": "string",
          "name": "",
          "type": "string"
        }
      ],
      "stateMutability": "view",
      "type": "function",
      "constant": true
    },
    {
      "inputs": [],
      "name": "totalSupply",
      "outputs": [
        {
          "internalType": "uint256",
          "name": "",
          "type": "uint256"
        }
      ],
      "stateMutability": "view",
      "type": "function",
      "constant": true
    },
    {
      "inputs": [
        {
          "internalType": "address",
          "name": "_recipient",
          "type": "address"
        },
        {
          "internalType": "uint256",
          "name": "_amount",
          "type": "uint256"
        }
      ],
      "name": "transfer",
      "outputs": [],
      "stateMutability": "nonpayable",
      "type": "function"
    },
    {
      "inputs": [
        {
          "internalType": "address",
          "name": "_sender",
          "type": "address"
        },
        {
          "internalType": "address",
          "name": "_recipient",
          "type": "address"
        },
        {
          "internalType": "uint256",
          "name": "_amount",
          "type": "uint256"
        }
      ],
      "name": "transferFrom",
      "outputs": [],
      "stateMutability": "nonpayable",
      "type": "function"
    },
    {
      "stateMutability": "payable",
      "type": "receive",
      "payable": true
    },
    {
      "inputs": [],
      "name": "getFruitInitList",
      "outputs": [
        {
          "internalType": "string[]",
          "name": "",
          "type": "string[]"
        }
      ],
      "stateMutability": "view",
      "type": "function",
      "constant": true
    },
    {
      "inputs": [],
      "name": "transferEthToFrt",
      "outputs": [],
      "stateMutability": "payable",
      "type": "function",
      "payable": true
    },
    {
      "inputs": [
        {
          "internalType": "uint256",
          "name": "_amount",
          "type": "uint256"
        }
      ],
      "name": "transferFrtToEth",
      "outputs": [],
      "stateMutability": "payable",
      "type": "function",
      "payable": true
    },
    {
      "inputs": [
        {
          "internalType": "string",
          "name": "_name",
          "type": "string"
        }
      ],
      "name": "getFruitShop",
      "outputs": [
        {
          "components": [
            {
              "internalType": "uint256",
              "name": "num",
              "type": "uint256"
            },
            {
              "internalType": "uint256",
              "name": "price",
              "type": "uint256"
            }
          ],
          "internalType": "struct FruitShop.FruitInfo",
          "name": "",
          "type": "tuple"
        }
      ],
      "stateMutability": "view",
      "type": "function",
      "constant": true
    },
    {
      "inputs": [
        {
          "internalType": "string",
          "name": "_name",
          "type": "string"
        },
        {
          "internalType": "uint256",
          "name": "_amount",
          "type": "uint256"
        }
      ],
      "name": "buyFruitsByETH",
      "outputs": [
        {
          "internalType": "uint256",
          "name": "",
          "type": "uint256"
        }
      ],
      "stateMutability": "payable",
      "type": "function",
      "payable": true
    },
    {
      "inputs": [
        {
          "internalType": "string",
          "name": "_name",
          "type": "string"
        },
        {
          "internalType": "uint256",
          "name": "_amount",
          "type": "uint256"
        }
      ],
      "name": "buyFruitsByFRT",
      "outputs": [
        {
          "internalType": "uint256",
          "name": "",
          "type": "uint256"
        }
      ],
      "stateMutability": "payable",
      "type": "function",
      "payable": true
    },
    {
      "inputs": [
        {
          "internalType": "string",
          "name": "_typeIs",
          "type": "string"
        }
      ],
      "name": "getFruitTrader",
      "outputs": [
        {
          "internalType": "address[]",
          "name": "",
          "type": "address[]"
        }
      ],
      "stateMutability": "view",
      "type": "function",
      "constant": true
    },
    {
      "inputs": [
        {
          "internalType": "string",
          "name": "_name",
          "type": "string"
        },
        {
          "internalType": "uint256",
          "name": "_price",
          "type": "uint256"
        },
        {
          "internalType": "uint256",
          "name": "_num",
          "type": "uint256"
        },
        {
          "internalType": "string",
          "name": "_typeIs",
          "type": "string"
        }
      ],
      "name": "registerFruit",
      "outputs": [],
      "stateMutability": "payable",
      "type": "function",
      "payable": true
    },
    {
      "inputs": [
        {
          "internalType": "string",
          "name": "_name",
          "type": "string"
        },
        {
          "internalType": "string",
          "name": "_typeIs",
          "type": "string"
        }
      ],
      "name": "deleteFruit",
      "outputs": [],
      "stateMutability": "payable",
      "type": "function",
      "payable": true
    },
    {
      "inputs": [
        {
          "internalType": "string",
          "name": "_name",
          "type": "string"
        },
        {
          "internalType": "string",
          "name": "_typeIs",
          "type": "string"
        }
      ],
      "name": "refund",
      "outputs": [],
      "stateMutability": "payable",
      "type": "function",
      "payable": true
    },
    {
      "inputs": [],
      "name": "getFruitWallet",
      "outputs": [
        {
          "internalType": "uint256[]",
          "name": "",
          "type": "uint256[]"
        }
      ],
      "stateMutability": "view",
      "type": "function",
      "constant": true
    },
    {
      "inputs": [],
      "name": "hasFruit",
      "outputs": [
        {
          "internalType": "string[]",
          "name": "",
          "type": "string[]"
        }
      ],
      "stateMutability": "view",
      "type": "function",
      "constant": true
    },
    {
      "inputs": [
        {
          "internalType": "string",
          "name": "_name",
          "type": "string"
        },
        {
          "internalType": "uint256",
          "name": "_num",
          "type": "uint256"
        },
        {
          "internalType": "string",
          "name": "_typeIs",
          "type": "string"
        },
        {
          "internalType": "address",
          "name": "_seller",
          "type": "address"
        }
      ],
      "name": "buyFruit",
      "outputs": [],
      "stateMutability": "payable",
      "type": "function",
      "payable": true
    },
    {
      "inputs": [
        {
          "internalType": "string",
          "name": "_name",
          "type": "string"
        },
        {
          "internalType": "uint256",
          "name": "_num",
          "type": "uint256"
        },
        {
          "internalType": "string",
          "name": "_typeIs",
          "type": "string"
        },
        {
          "internalType": "address",
          "name": "_seller",
          "type": "address"
        }
      ],
      "name": "sellFruit",
      "outputs": [],
      "stateMutability": "payable",
      "type": "function",
      "payable": true
    },
    {
      "inputs": [
        {
          "internalType": "string",
          "name": "_name",
          "type": "string"
        },
        {
          "internalType": "string",
          "name": "_typeIs",
          "type": "string"
        },
        {
          "internalType": "address",
          "name": "_seller",
          "type": "address"
        }
      ],
      "name": "getSellerList",
      "outputs": [
        {
          "components": [
            {
              "internalType": "address",
              "name": "owner",
              "type": "address"
            },
            {
              "internalType": "string",
              "name": "name",
              "type": "string"
            },
            {
              "internalType": "uint256",
              "name": "price",
              "type": "uint256"
            },
            {
              "internalType": "uint256",
              "name": "num",
              "type": "uint256"
            },
            {
              "internalType": "string",
              "name": "typeIs",
              "type": "string"
            },
            {
              "internalType": "string",
              "name": "status",
              "type": "string"
            },
            {
              "internalType": "uint256",
              "name": "date",
              "type": "uint256"
            }
          ],
          "internalType": "struct FruitShop.SellFruit",
          "name": "",
          "type": "tuple"
        }
      ],
      "stateMutability": "view",
      "type": "function",
      "constant": true
    }
  ],
  "bytecode": "0x6080604052601260025560c86008553480156200001b57600080fd5b506040516200545c3803806200545c8339818101604052810190620000419190620005b6565b33600760006101000a81548173ffffffffffffffffffffffffffffffffffffffff021916908373ffffffffffffffffffffffffffffffffffffffff1602179055508660009081620000939190620008e8565b508560019081620000a59190620008e8565b50670de0b6b3a764000081620000bc9190620009fe565b9050836009604051620000cf9062000aa4565b908152602001604051809103902060000181905550826009604051620000f59062000b0b565b9081526020016040518091039020600001819055508160096040516200011b9062000b72565b9081526020016040518091039020600001819055506003816200013f9190620009fe565b60096040516200014f9062000aa4565b908152602001604051809103902060010181905550806009604051620001759062000b0b565b908152602001604051809103902060010181905550600281620001999190620009fe565b6009604051620001a99062000b72565b908152602001604051809103902060010181905550600680600181540180825580915050600190039060005260206000200160006040518060400160405280600681526020017f636172726f74000000000000000000000000000000000000000000000000000081525090919091509081620002269190620008e8565b50600680600181540180825580915050600190039060005260206000200160006040518060400160405280600581526020017f6c656d6f6e000000000000000000000000000000000000000000000000000000815250909190915090816200028f9190620008e8565b50600680600181540180825580915050600190039060005260206000200160006040518060400160405280600b81526020017f6170706c652d77686f6c6500000000000000000000000000000000000000000081525090919091509081620002f89190620008e8565b5062000327600254600a6200030e919062000cdd565b866200031b9190620009fe565b6200033460201b60201c565b5050505050505062000dfc565b80600460003373ffffffffffffffffffffffffffffffffffffffff1673ffffffffffffffffffffffffffffffffffffffff168152602001908152602001600020600082825462000385919062000d2e565b925050819055508060036000828254620003a0919062000d2e565b925050819055507fddf252ad1be2c89b69c2b068fc378daa952ba7f163c4a11628f55a4df523b3ef60003383604051620003dd9392919062000dbf565b60405180910390a150565b6000604051905090565b600080fd5b600080fd5b600080fd5b600080fd5b6000601f19601f8301169050919050565b7f4e487b7100000000000000000000000000000000000000000000000000000000600052604160045260246000fd5b620004518262000406565b810181811067ffffffffffffffff8211171562000473576200047262000417565b5b80604052505050565b600062000488620003e8565b905062000496828262000446565b919050565b600067ffffffffffffffff821115620004b957620004b862000417565b5b620004c48262000406565b9050602081019050919050565b60005b83811015620004f1578082015181840152602081019050620004d4565b60008484015250505050565b6000620005146200050e846200049b565b6200047c565b90508281526020810184848401111562000533576200053262000401565b5b62000540848285620004d1565b509392505050565b600082601f83011262000560576200055f620003fc565b5b815162000572848260208601620004fd565b91505092915050565b6000819050919050565b62000590816200057b565b81146200059c57600080fd5b50565b600081519050620005b08162000585565b92915050565b600080600080600080600060e0888a031215620005d857620005d7620003f2565b5b600088015167ffffffffffffffff811115620005f957620005f8620003f7565b5b620006078a828b0162000548565b975050602088015167ffffffffffffffff8111156200062b576200062a620003f7565b5b620006398a828b0162000548565b96505060406200064c8a828b016200059f565b95505060606200065f8a828b016200059f565b9450506080620006728a828b016200059f565b93505060a0620006858a828b016200059f565b92505060c0620006988a828b016200059f565b91505092959891949750929550565b600081519050919050565b7f4e487b7100000000000000000000000000000000000000000000000000000000600052602260045260246000fd5b60006002820490506001821680620006fa57607f821691505b60208210810362000710576200070f620006b2565b5b50919050565b60008190508160005260206000209050919050565b60006020601f8301049050919050565b600082821b905092915050565b6000600883026200077a7fffffffffffffffffffffffffffffffffffffffffffffffffffffffffffffffff826200073b565b6200078686836200073b565b95508019841693508086168417925050509392505050565b6000819050919050565b6000620007c9620007c3620007bd846200057b565b6200079e565b6200057b565b9050919050565b6000819050919050565b620007e583620007a8565b620007fd620007f482620007d0565b84845462000748565b825550505050565b600090565b6200081462000805565b62000821818484620007da565b505050565b5b8181101562000849576200083d6000826200080a565b60018101905062000827565b5050565b601f8211156200089857620008628162000716565b6200086d846200072b565b810160208510156200087d578190505b620008956200088c856200072b565b83018262000826565b50505b505050565b600082821c905092915050565b6000620008bd600019846008026200089d565b1980831691505092915050565b6000620008d88383620008aa565b9150826002028217905092915050565b620008f382620006a7565b67ffffffffffffffff8111156200090f576200090e62000417565b5b6200091b8254620006e1565b620009288282856200084d565b600060209050601f8311600181146200096057600084156200094b578287015190505b620009578582620008ca565b865550620009c7565b601f198416620009708662000716565b60005b828110156200099a5784890151825560018201915060208501945060208101905062000973565b86831015620009ba5784890151620009b6601f891682620008aa565b8355505b6001600288020188555050505b505050505050565b7f4e487b7100000000000000000000000000000000000000000000000000000000600052601160045260246000fd5b600062000a0b826200057b565b915062000a18836200057b565b925082820262000a28816200057b565b9150828204841483151762000a425762000a41620009cf565b5b5092915050565b600081905092915050565b7f636172726f740000000000000000000000000000000000000000000000000000600082015250565b600062000a8c60068362000a49565b915062000a998262000a54565b600682019050919050565b600062000ab18262000a7d565b9150819050919050565b7f6170706c652d77686f6c65000000000000000000000000000000000000000000600082015250565b600062000af3600b8362000a49565b915062000b008262000abb565b600b82019050919050565b600062000b188262000ae4565b9150819050919050565b7f6c656d6f6e000000000000000000000000000000000000000000000000000000600082015250565b600062000b5a60058362000a49565b915062000b678262000b22565b600582019050919050565b600062000b7f8262000b4b565b9150819050919050565b60008160011c9050919050565b6000808291508390505b600185111562000be85780860481111562000bc05762000bbf620009cf565b5b600185161562000bd05780820291505b808102905062000be08562000b89565b945062000ba0565b94509492505050565b60008262000c03576001905062000cd6565b8162000c13576000905062000cd6565b816001811462000c2c576002811462000c375762000c6d565b600191505062000cd6565b60ff84111562000c4c5762000c4b620009cf565b5b8360020a91508482111562000c665762000c65620009cf565b5b5062000cd6565b5060208310610133831016604e8410600b841016171562000ca75782820a90508381111562000ca15762000ca0620009cf565b5b62000cd6565b62000cb6848484600162000b96565b9250905081840481111562000cd05762000ccf620009cf565b5b81810290505b9392505050565b600062000cea826200057b565b915062000cf7836200057b565b925062000d267fffffffffffffffffffffffffffffffffffffffffffffffffffffffffffffffff848462000bf1565b905092915050565b600062000d3b826200057b565b915062000d48836200057b565b925082820190508082111562000d635762000d62620009cf565b5b92915050565b600073ffffffffffffffffffffffffffffffffffffffff82169050919050565b600062000d968262000d69565b9050919050565b62000da88162000d89565b82525050565b62000db9816200057b565b82525050565b600060608201905062000dd6600083018662000d9d565b62000de5602083018562000d9d565b62000df4604083018462000dae565b949350505050565b6146508062000e0c6000396000f3fe6080604052600436106101bb5760003560e01c806364b90294116100ec578063ab696fbe1161008a578063d1bf410111610064578063d1bf410114610791578063dd62ed3e146107ce578063de5144931461080b578063e053e34914610848576103d9565b8063ab696fbe1461071a578063b97dfaca14610736578063cc79b96614610761576103d9565b80638da5cb5b116100c65780638da5cb5b1461067057806395d89b411461069b578063a4f9b0e4146106c6578063a9059cbb146106f1576103d9565b806364b902941461060d57806368ec634e1461061757806370a0823114610633576103d9565b806331b0a2c6116101595780634585857311610133578063458585731461059d57806348328a20146105b95780634835e15a146105d557806351527f91146105f1576103d9565b806331b0a2c61461051957806342966c6814610544578063433ae9341461056d576103d9565b806318160ddd1161019557806318160ddd1461045d57806323b872dd1461048857806327e235e3146104b1578063313ce567146104ee576103d9565b806306fdde03146103de578063083a686214610409578063095ea7b314610434576103d9565b366103d957600034036101cd57600080fd5b6000600854346101dd919061323f565b90508060046000600760009054906101000a900473ffffffffffffffffffffffffffffffffffffffff1673ffffffffffffffffffffffffffffffffffffffff1673ffffffffffffffffffffffffffffffffffffffff16815260200190815260200160002054101561024d57600080fd5b8060046000600760009054906101000a900473ffffffffffffffffffffffffffffffffffffffff1673ffffffffffffffffffffffffffffffffffffffff1673ffffffffffffffffffffffffffffffffffffffff16815260200190815260200160002060008282546102be9190613281565b9250508190555080600460003373ffffffffffffffffffffffffffffffffffffffff1673ffffffffffffffffffffffffffffffffffffffff168152602001908152602001600020600082825461031491906132b5565b92505081905550600760009054906101000a900473ffffffffffffffffffffffffffffffffffffffff1673ffffffffffffffffffffffffffffffffffffffff163373ffffffffffffffffffffffffffffffffffffffff160361037a5761037981610885565b5b7fddf252ad1be2c89b69c2b068fc378daa952ba7f163c4a11628f55a4df523b3ef600760009054906101000a900473ffffffffffffffffffffffffffffffffffffffff1633836040516103cf93929190613339565b60405180910390a1005b600080fd5b3480156103ea57600080fd5b506103f3610933565b6040516104009190613400565b60405180910390f35b34801561041557600080fd5b5061041e6109c1565b60405161042b919061352e565b60405180910390f35b34801561044057600080fd5b5061045b600480360381019061045691906135bc565b610a9a565b005b34801561046957600080fd5b50610472610b5a565b60405161047f91906135fc565b60405180910390f35b34801561049457600080fd5b506104af60048036038101906104aa9190613617565b610b60565b005b3480156104bd57600080fd5b506104d860048036038101906104d3919061366a565b610d68565b6040516104e591906135fc565b60405180910390f35b3480156104fa57600080fd5b50610503610d80565b60405161051091906135fc565b60405180910390f35b34801561052557600080fd5b5061052e610d86565b60405161053b91906135fc565b60405180910390f35b34801561055057600080fd5b5061056b60048036038101906105669190613697565b610d8c565b005b610587600480360381019061058291906137f9565b610e3a565b60405161059491906135fc565b60405180910390f35b6105b760048036038101906105b29190613855565b611174565b005b6105d360048036038101906105ce91906138f4565b6113df565b005b6105ef60048036038101906105ea919061396c565b61152f565b005b61060b60048036038101906106069190613855565b611c43565b005b61061561213e565b005b610631600480360381019061062c91906138f4565b6122f9565b005b34801561063f57600080fd5b5061065a6004803603810190610655919061366a565b612416565b60405161066791906135fc565b60405180910390f35b34801561067c57600080fd5b5061068561245f565b6040516106929190613a0b565b60405180910390f35b3480156106a757600080fd5b506106b0612485565b6040516106bd9190613400565b60405180910390f35b3480156106d257600080fd5b506106db612513565b6040516106e8919061352e565b60405180910390f35b3480156106fd57600080fd5b50610718600480360381019061071391906135bc565b612629565b005b610734600480360381019061072f9190613697565b612714565b005b34801561074257600080fd5b5061074b612861565b6040516107589190613ae4565b60405180910390f35b61077b600480360381019061077691906137f9565b6129f6565b60405161078891906135fc565b60405180910390f35b34801561079d57600080fd5b506107b860048036038101906107b39190613b06565b612dbf565b6040516107c59190613b7e565b60405180910390f35b3480156107da57600080fd5b506107f560048036038101906107f09190613b99565b612e0b565b60405161080291906135fc565b60405180910390f35b34801561081757600080fd5b50610832600480360381019061082d9190613bd9565b612e30565b60405161083f9190613d1d565b60405180910390f35b34801561085457600080fd5b5061086f600480360381019061086a9190613b06565b6130ed565b60405161087c9190613dee565b60405180910390f35b80600460003373ffffffffffffffffffffffffffffffffffffffff1673ffffffffffffffffffffffffffffffffffffffff16815260200190815260200160002060008282546108d491906132b5565b9250508190555080600360008282546108ed91906132b5565b925050819055507fddf252ad1be2c89b69c2b068fc378daa952ba7f163c4a11628f55a4df523b3ef6000338360405161092893929190613339565b60405180910390a150565b6000805461094090613e3f565b80601f016020809104026020016040519081016040528092919081815260200182805461096c90613e3f565b80156109b95780601f1061098e576101008083540402835291602001916109b9565b820191906000526020600020905b81548152906001019060200180831161099c57829003601f168201915b505050505081565b60606006805480602002602001604051908101604052809291908181526020016000905b82821015610a91578382906000526020600020018054610a0490613e3f565b80601f0160208091040260200160405190810160405280929190818152602001828054610a3090613e3f565b8015610a7d5780601f10610a5257610100808354040283529160200191610a7d565b820191906000526020600020905b815481529060010190602001808311610a6057829003601f168201915b5050505050815260200190600101906109e5565b50505050905090565b80600560003373ffffffffffffffffffffffffffffffffffffffff1673ffffffffffffffffffffffffffffffffffffffff16815260200190815260200160002060008473ffffffffffffffffffffffffffffffffffffffff1673ffffffffffffffffffffffffffffffffffffffff168152602001908152602001600020819055507f8c5be1e5ebec7d5bd14f71427d1e84f3dd0314c0f7b2291e5b200ac8c7c3b925338383604051610b4e93929190613339565b60405180910390a15050565b60035481565b80600560008573ffffffffffffffffffffffffffffffffffffffff1673ffffffffffffffffffffffffffffffffffffffff16815260200190815260200160002060003373ffffffffffffffffffffffffffffffffffffffff1673ffffffffffffffffffffffffffffffffffffffff168152602001908152602001600020541015610be957600080fd5b80600560008573ffffffffffffffffffffffffffffffffffffffff1673ffffffffffffffffffffffffffffffffffffffff16815260200190815260200160002060003373ffffffffffffffffffffffffffffffffffffffff1673ffffffffffffffffffffffffffffffffffffffff1681526020019081526020016000206000828254610c759190613281565b9250508190555080600460008573ffffffffffffffffffffffffffffffffffffffff1673ffffffffffffffffffffffffffffffffffffffff1681526020019081526020016000206000828254610ccb9190613281565b9250508190555080600460008473ffffffffffffffffffffffffffffffffffffffff1673ffffffffffffffffffffffffffffffffffffffff1681526020019081526020016000206000828254610d2191906132b5565b925050819055507fddf252ad1be2c89b69c2b068fc378daa952ba7f163c4a11628f55a4df523b3ef838383604051610d5b93929190613339565b60405180910390a1505050565b60046020528060005260406000206000915090505481565b60025481565b60085481565b80600460003373ffffffffffffffffffffffffffffffffffffffff1673ffffffffffffffffffffffffffffffffffffffff1681526020019081526020016000206000828254610ddb9190613281565b925050819055508060036000828254610df49190613281565b925050819055507fddf252ad1be2c89b69c2b068fc378daa952ba7f163c4a11628f55a4df523b3ef33600083604051610e2f93929190613339565b60405180910390a150565b600081600984604051610e4d9190613eac565b9081526020016040518091039020600001541015610e6a57600080fd5b81600984604051610e7b9190613eac565b90815260200160405180910390206000016000828254610e9b9190613281565b925050819055506000805b600d60003373ffffffffffffffffffffffffffffffffffffffff1673ffffffffffffffffffffffffffffffffffffffff16815260200190815260200160002080549050811015610fb55784604051602001610f019190613400565b60405160208183030381529060405280519060200120600d60003373ffffffffffffffffffffffffffffffffffffffff1673ffffffffffffffffffffffffffffffffffffffff1681526020019081526020016000208281548110610f6857610f67613ec3565b5b90600052602060002001604051602001610f829190613f8b565b6040516020818303038152906040528051906020012003610fa257600191505b8080610fad90613fad565b915050610ea6565b5080156110365782600c60003373ffffffffffffffffffffffffffffffffffffffff1673ffffffffffffffffffffffffffffffffffffffff1681526020019081526020016000206000018560405161100d9190613eac565b9081526020016040518091039020600082825461102a91906132b5565b9250508190555061110c565b600d60003373ffffffffffffffffffffffffffffffffffffffff1673ffffffffffffffffffffffffffffffffffffffff168152602001908152602001600020849080600181540180825580915050600190039060005260206000200160009091909190915090816110a7919061418c565b5082600c60003373ffffffffffffffffffffffffffffffffffffffff1673ffffffffffffffffffffffffffffffffffffffff168152602001908152602001600020600001856040516110f99190613eac565b9081526020016040518091039020819055505b600c60003373ffffffffffffffffffffffffffffffffffffffff1673ffffffffffffffffffffffffffffffffffffffff1681526020019081526020016000206000018460405161115c9190613eac565b90815260200160405180910390205491505092915050565b82600b856040516111859190613eac565b9081526020016040518091039020836040516111a19190613eac565b908152602001604051809103902060008373ffffffffffffffffffffffffffffffffffffffff1673ffffffffffffffffffffffffffffffffffffffff16815260200190815260200160002060030160008282546111fe9190613281565b9250508190555082600c60008373ffffffffffffffffffffffffffffffffffffffff1673ffffffffffffffffffffffffffffffffffffffff168152602001908152602001600020600001856040516112569190613eac565b9081526020016040518091039020600082825461127391906132b5565b9250508190555082600c60003373ffffffffffffffffffffffffffffffffffffffff1673ffffffffffffffffffffffffffffffffffffffff168152602001908152602001600020600001856040516112cb9190613eac565b908152602001604051809103902060008282546112e89190613281565b9250508190555060006064605f85600b886040516113069190613eac565b9081526020016040518091039020866040516113229190613eac565b908152602001604051809103902060008673ffffffffffffffffffffffffffffffffffffffff1673ffffffffffffffffffffffffffffffffffffffff1681526020019081526020016000206002015461137b919061323f565b611385919061323f565b61138f919061428d565b90503373ffffffffffffffffffffffffffffffffffffffff166108fc829081150290604051600060405180830381858888f193505050501580156113d7573d6000803e3d6000fd5b505050505050565b6000600b836040516113f19190613eac565b90815260200160405180910390208260405161140d9190613eac565b908152602001604051809103902060003373ffffffffffffffffffffffffffffffffffffffff1673ffffffffffffffffffffffffffffffffffffffff16815260200190815260200160002060030154600b8460405161146c9190613eac565b9081526020016040518091039020836040516114889190613eac565b908152602001604051809103902060003373ffffffffffffffffffffffffffffffffffffffff1673ffffffffffffffffffffffffffffffffffffffff168152602001908152602001600020600201546114e1919061323f565b90503373ffffffffffffffffffffffffffffffffffffffff166108fc829081150290604051600060405180830381858888f19350505050158015611529573d6000803e3d6000fd5b50505050565b6000821161153c57600080fd5b60405160200161154b9061430a565b60405160208183030381529060405280519060200120816040516020016115729190613400565b60405160208183030381529060405280519060200120036115f95781600c60003373ffffffffffffffffffffffffffffffffffffffff1673ffffffffffffffffffffffffffffffffffffffff168152602001908152602001600020600001856040516115de9190613eac565b90815260200160405180910390205410156115f857600080fd5b5b60405160200161160890614376565b60405160208183030381529060405280519060200120600b8560405161162e9190613eac565b90815260200160405180910390208260405161164a9190613eac565b908152602001604051809103902060003373ffffffffffffffffffffffffffffffffffffffff1673ffffffffffffffffffffffffffffffffffffffff1681526020019081526020016000206005016040516020016116a89190613f8b565b60405160208183030381529060405280519060200120036116c857600080fd5b60006001905060005b600a836040516116e19190613eac565b90815260200160405180910390208054905081101561179f573373ffffffffffffffffffffffffffffffffffffffff16600a846040516117219190613eac565b9081526020016040518091039020828154811061174157611740613ec3565b5b9060005260206000200160009054906101000a900473ffffffffffffffffffffffffffffffffffffffff1673ffffffffffffffffffffffffffffffffffffffff160361178c57600091505b808061179790613fad565b9150506116d1565b50801561182657600a826040516117b69190613eac565b9081526020016040518091039020339080600181540180825580915050600190039060005260206000200160009091909190916101000a81548173ffffffffffffffffffffffffffffffffffffffff021916908373ffffffffffffffffffffffffffffffffffffffff1602179055505b33600b866040516118379190613eac565b9081526020016040518091039020836040516118539190613eac565b908152602001604051809103902060003373ffffffffffffffffffffffffffffffffffffffff1673ffffffffffffffffffffffffffffffffffffffff16815260200190815260200160002060000160006101000a81548173ffffffffffffffffffffffffffffffffffffffff021916908373ffffffffffffffffffffffffffffffffffffffff160217905550670de0b6b3a7640000846118f3919061323f565b600b866040516119039190613eac565b90815260200160405180910390208360405161191f9190613eac565b908152602001604051809103902060003373ffffffffffffffffffffffffffffffffffffffff1673ffffffffffffffffffffffffffffffffffffffff1681526020019081526020016000206002018190555082600b866040516119829190613eac565b90815260200160405180910390208360405161199e9190613eac565b908152602001604051809103902060003373ffffffffffffffffffffffffffffffffffffffff1673ffffffffffffffffffffffffffffffffffffffff1681526020019081526020016000206003018190555084600b86604051611a019190613eac565b908152602001604051809103902083604051611a1d9190613eac565b908152602001604051809103902060003373ffffffffffffffffffffffffffffffffffffffff1673ffffffffffffffffffffffffffffffffffffffff1681526020019081526020016000206001019081611a77919061418c565b5081600b86604051611a899190613eac565b908152602001604051809103902083604051611aa59190613eac565b908152602001604051809103902060003373ffffffffffffffffffffffffffffffffffffffff1673ffffffffffffffffffffffffffffffffffffffff1681526020019081526020016000206004019081611aff919061418c565b506040518060400160405280600281526020017f6f6e000000000000000000000000000000000000000000000000000000000000815250600b86604051611b469190613eac565b908152602001604051809103902083604051611b629190613eac565b908152602001604051809103902060003373ffffffffffffffffffffffffffffffffffffffff1673ffffffffffffffffffffffffffffffffffffffff1681526020019081526020016000206005019081611bbc919061418c565b5042600b86604051611bce9190613eac565b908152602001604051809103902083604051611bea9190613eac565b908152602001604051809103902060003373ffffffffffffffffffffffffffffffffffffffff1673ffffffffffffffffffffffffffffffffffffffff168152602001908152602001600020600601819055505050505050565b6000805b600d60003373ffffffffffffffffffffffffffffffffffffffff1673ffffffffffffffffffffffffffffffffffffffff16815260200190815260200160002080549050811015611d565785604051602001611ca29190613400565b60405160208183030381529060405280519060200120600d60003373ffffffffffffffffffffffffffffffffffffffff1673ffffffffffffffffffffffffffffffffffffffff1681526020019081526020016000208281548110611d0957611d08613ec3565b5b90600052602060002001604051602001611d239190613f8b565b6040516020818303038152906040528051906020012003611d4357600191505b8080611d4e90613fad565b915050611c47565b508015611dd75783600c60003373ffffffffffffffffffffffffffffffffffffffff1673ffffffffffffffffffffffffffffffffffffffff16815260200190815260200160002060000186604051611dae9190613eac565b90815260200160405180910390206000828254611dcb91906132b5565b92505081905550611ead565b600d60003373ffffffffffffffffffffffffffffffffffffffff1673ffffffffffffffffffffffffffffffffffffffff16815260200190815260200160002085908060018154018082558091505060019003906000526020600020016000909190919091509081611e48919061418c565b5083600c60003373ffffffffffffffffffffffffffffffffffffffff1673ffffffffffffffffffffffffffffffffffffffff16815260200190815260200160002060000186604051611e9a9190613eac565b9081526020016040518091039020819055505b83600b86604051611ebe9190613eac565b908152602001604051809103902084604051611eda9190613eac565b908152602001604051809103902060008473ffffffffffffffffffffffffffffffffffffffff1673ffffffffffffffffffffffffffffffffffffffff1681526020019081526020016000206003016000828254611f379190613281565b9250508190555083600c60008473ffffffffffffffffffffffffffffffffffffffff1673ffffffffffffffffffffffffffffffffffffffff16815260200190815260200160002060000186604051611f8f9190613eac565b90815260200160405180910390206000828254611fac9190613281565b9250508190555060006064605f86600b89604051611fca9190613eac565b908152602001604051809103902087604051611fe69190613eac565b908152602001604051809103902060008773ffffffffffffffffffffffffffffffffffffffff1673ffffffffffffffffffffffffffffffffffffffff1681526020019081526020016000206002015461203f919061323f565b612049919061323f565b612053919061428d565b9050600b866040516120659190613eac565b9081526020016040518091039020846040516120819190613eac565b908152602001604051809103902060008473ffffffffffffffffffffffffffffffffffffffff1673ffffffffffffffffffffffffffffffffffffffff16815260200190815260200160002060000160009054906101000a900473ffffffffffffffffffffffffffffffffffffffff1673ffffffffffffffffffffffffffffffffffffffff166108fc829081150290604051600060405180830381858888f19350505050158015612135573d6000803e3d6000fd5b50505050505050565b6000340361214b57600080fd5b60006008543461215b919061323f565b90508060046000600760009054906101000a900473ffffffffffffffffffffffffffffffffffffffff1673ffffffffffffffffffffffffffffffffffffffff1673ffffffffffffffffffffffffffffffffffffffff1681526020019081526020016000205410156121cb57600080fd5b8060046000600760009054906101000a900473ffffffffffffffffffffffffffffffffffffffff1673ffffffffffffffffffffffffffffffffffffffff1673ffffffffffffffffffffffffffffffffffffffff168152602001908152602001600020600082825461223c9190613281565b9250508190555080600460003373ffffffffffffffffffffffffffffffffffffffff1673ffffffffffffffffffffffffffffffffffffffff168152602001908152602001600020600082825461229291906132b5565b925050819055507fddf252ad1be2c89b69c2b068fc378daa952ba7f163c4a11628f55a4df523b3ef600760009054906101000a900473ffffffffffffffffffffffffffffffffffffffff1633836040516122ee93929190613339565b60405180910390a150565b6040518060400160405280600381526020017f6f66660000000000000000000000000000000000000000000000000000000000815250600b8360405161233f9190613eac565b90815260200160405180910390208260405161235b9190613eac565b908152602001604051809103902060003373ffffffffffffffffffffffffffffffffffffffff1673ffffffffffffffffffffffffffffffffffffffff16815260200190815260200160002060050190816123b5919061418c565b506040516020016123c5906143e2565b60405160208183030381529060405280519060200120816040516020016123ec9190613400565b60405160208183030381529060405280519060200120036124125761241182826113df565b5b5050565b6000600460008373ffffffffffffffffffffffffffffffffffffffff1673ffffffffffffffffffffffffffffffffffffffff168152602001908152602001600020549050919050565b600760009054906101000a900473ffffffffffffffffffffffffffffffffffffffff1681565b6001805461249290613e3f565b80601f01602080910402602001604051908101604052809291908181526020018280546124be90613e3f565b801561250b5780601f106124e05761010080835404028352916020019161250b565b820191906000526020600020905b8154815290600101906020018083116124ee57829003601f168201915b505050505081565b6060600d60003373ffffffffffffffffffffffffffffffffffffffff1673ffffffffffffffffffffffffffffffffffffffff168152602001908152602001600020805480602002602001604051908101604052809291908181526020016000905b8282101561262057838290600052602060002001805461259390613e3f565b80601f01602080910402602001604051908101604052809291908181526020018280546125bf90613e3f565b801561260c5780601f106125e15761010080835404028352916020019161260c565b820191906000526020600020905b8154815290600101906020018083116125ef57829003601f168201915b505050505081526020019060010190612574565b50505050905090565b80600460003373ffffffffffffffffffffffffffffffffffffffff1673ffffffffffffffffffffffffffffffffffffffff16815260200190815260200160002060008282546126789190613281565b9250508190555080600460008473ffffffffffffffffffffffffffffffffffffffff1673ffffffffffffffffffffffffffffffffffffffff16815260200190815260200160002060008282546126ce91906132b5565b925050819055507fddf252ad1be2c89b69c2b068fc378daa952ba7f163c4a11628f55a4df523b3ef33838360405161270893929190613339565b60405180910390a15050565b6000810361272157600080fd5b600254600a6127309190614535565b8161273b919061323f565b90508060046000600760009054906101000a900473ffffffffffffffffffffffffffffffffffffffff1673ffffffffffffffffffffffffffffffffffffffff1673ffffffffffffffffffffffffffffffffffffffff16815260200190815260200160002060008282546127ae91906132b5565b9250508190555080600460003373ffffffffffffffffffffffffffffffffffffffff1673ffffffffffffffffffffffffffffffffffffffff16815260200190815260200160002060008282546128049190613281565b925050819055503373ffffffffffffffffffffffffffffffffffffffff166108fc60c883612832919061428d565b9081150290604051600060405180830381858888f1935050505015801561285d573d6000803e3d6000fd5b5050565b60606000600d60003373ffffffffffffffffffffffffffffffffffffffff1673ffffffffffffffffffffffffffffffffffffffff16815260200190815260200160002080549050905060008167ffffffffffffffff8111156128c6576128c56136ce565b5b6040519080825280602002602001820160405280156128f45781602001602082028036833780820191505090505b50905060005b828110156129ed57600c60003373ffffffffffffffffffffffffffffffffffffffff1673ffffffffffffffffffffffffffffffffffffffff168152602001908152602001600020600001600d60003373ffffffffffffffffffffffffffffffffffffffff1673ffffffffffffffffffffffffffffffffffffffff168152602001908152602001600020828154811061299557612994613ec3565b5b906000526020600020016040516129ac9190614603565b9081526020016040518091039020548282815181106129ce576129cd613ec3565b5b60200260200101818152505080806129e590613fad565b9150506128fa565b50809250505090565b600081600984604051612a099190613eac565b9081526020016040518091039020600001541015612a2657600080fd5b600854600984604051612a399190613eac565b90815260200160405180910390206001015483612a56919061323f565b612a60919061323f565b600460003373ffffffffffffffffffffffffffffffffffffffff1673ffffffffffffffffffffffffffffffffffffffff1681526020019081526020016000206000828254612aae9190613281565b9250508190555081600984604051612ac69190613eac565b90815260200160405180910390206000016000828254612ae69190613281565b925050819055506000805b600d60003373ffffffffffffffffffffffffffffffffffffffff1673ffffffffffffffffffffffffffffffffffffffff16815260200190815260200160002080549050811015612c005784604051602001612b4c9190613400565b60405160208183030381529060405280519060200120600d60003373ffffffffffffffffffffffffffffffffffffffff1673ffffffffffffffffffffffffffffffffffffffff1681526020019081526020016000208281548110612bb357612bb2613ec3565b5b90600052602060002001604051602001612bcd9190613f8b565b6040516020818303038152906040528051906020012003612bed57600191505b8080612bf890613fad565b915050612af1565b508015612c815782600c60003373ffffffffffffffffffffffffffffffffffffffff1673ffffffffffffffffffffffffffffffffffffffff16815260200190815260200160002060000185604051612c589190613eac565b90815260200160405180910390206000828254612c7591906132b5565b92505081905550612d57565b600d60003373ffffffffffffffffffffffffffffffffffffffff1673ffffffffffffffffffffffffffffffffffffffff16815260200190815260200160002084908060018154018082558091505060019003906000526020600020016000909190919091509081612cf2919061418c565b5082600c60003373ffffffffffffffffffffffffffffffffffffffff1673ffffffffffffffffffffffffffffffffffffffff16815260200190815260200160002060000185604051612d449190613eac565b9081526020016040518091039020819055505b600c60003373ffffffffffffffffffffffffffffffffffffffff1673ffffffffffffffffffffffffffffffffffffffff16815260200190815260200160002060000184604051612da79190613eac565b90815260200160405180910390205491505092915050565b612dc7613199565b600982604051612dd79190613eac565b9081526020016040518091039020604051806040016040529081600082015481526020016001820154815250509050919050565b6005602052816000526040600020602052806000526040600020600091509150505481565b612e386131b3565b600b84604051612e489190613eac565b908152602001604051809103902083604051612e649190613eac565b908152602001604051809103902060008373ffffffffffffffffffffffffffffffffffffffff1673ffffffffffffffffffffffffffffffffffffffff1681526020019081526020016000206040518060e00160405290816000820160009054906101000a900473ffffffffffffffffffffffffffffffffffffffff1673ffffffffffffffffffffffffffffffffffffffff1673ffffffffffffffffffffffffffffffffffffffff168152602001600182018054612f2090613e3f565b80601f0160208091040260200160405190810160405280929190818152602001828054612f4c90613e3f565b8015612f995780601f10612f6e57610100808354040283529160200191612f99565b820191906000526020600020905b815481529060010190602001808311612f7c57829003601f168201915b505050505081526020016002820154815260200160038201548152602001600482018054612fc690613e3f565b80601f0160208091040260200160405190810160405280929190818152602001828054612ff290613e3f565b801561303f5780601f106130145761010080835404028352916020019161303f565b820191906000526020600020905b81548152906001019060200180831161302257829003601f168201915b5050505050815260200160058201805461305890613e3f565b80601f016020809104026020016040519081016040528092919081815260200182805461308490613e3f565b80156130d15780601f106130a6576101008083540402835291602001916130d1565b820191906000526020600020905b8154815290600101906020018083116130b457829003601f168201915b5050505050815260200160068201548152505090509392505050565b6060600a826040516130ff9190613eac565b908152602001604051809103902080548060200260200160405190810160405280929190818152602001828054801561318d57602002820191906000526020600020905b8160009054906101000a900473ffffffffffffffffffffffffffffffffffffffff1673ffffffffffffffffffffffffffffffffffffffff1681526020019060010190808311613143575b50505050509050919050565b604051806040016040528060008152602001600081525090565b6040518060e00160405280600073ffffffffffffffffffffffffffffffffffffffff1681526020016060815260200160008152602001600081526020016060815260200160608152602001600081525090565b6000819050919050565b7f4e487b7100000000000000000000000000000000000000000000000000000000600052601160045260246000fd5b600061324a82613206565b915061325583613206565b925082820261326381613206565b9150828204841483151761327a57613279613210565b5b5092915050565b600061328c82613206565b915061329783613206565b92508282039050818111156132af576132ae613210565b5b92915050565b60006132c082613206565b91506132cb83613206565b92508282019050808211156132e3576132e2613210565b5b92915050565b600073ffffffffffffffffffffffffffffffffffffffff82169050919050565b6000613314826132e9565b9050919050565b61332481613309565b82525050565b61333381613206565b82525050565b600060608201905061334e600083018661331b565b61335b602083018561331b565b613368604083018461332a565b949350505050565b600081519050919050565b600082825260208201905092915050565b60005b838110156133aa57808201518184015260208101905061338f565b60008484015250505050565b6000601f19601f8301169050919050565b60006133d282613370565b6133dc818561337b565b93506133ec81856020860161338c565b6133f5816133b6565b840191505092915050565b6000602082019050818103600083015261341a81846133c7565b905092915050565b600081519050919050565b600082825260208201905092915050565b6000819050602082019050919050565b600082825260208201905092915050565b600061346a82613370565b613474818561344e565b935061348481856020860161338c565b61348d816133b6565b840191505092915050565b60006134a4838361345f565b905092915050565b6000602082019050919050565b60006134c482613422565b6134ce818561342d565b9350836020820285016134e08561343e565b8060005b8581101561351c57848403895281516134fd8582613498565b9450613508836134ac565b925060208a019950506001810190506134e4565b50829750879550505050505092915050565b6000602082019050818103600083015261354881846134b9565b905092915050565b6000604051905090565b600080fd5b600080fd5b61356d81613309565b811461357857600080fd5b50565b60008135905061358a81613564565b92915050565b61359981613206565b81146135a457600080fd5b50565b6000813590506135b681613590565b92915050565b600080604083850312156135d3576135d261355a565b5b60006135e18582860161357b565b92505060206135f2858286016135a7565b9150509250929050565b6000602082019050613611600083018461332a565b92915050565b6000806000606084860312156136305761362f61355a565b5b600061363e8682870161357b565b935050602061364f8682870161357b565b9250506040613660868287016135a7565b9150509250925092565b6000602082840312156136805761367f61355a565b5b600061368e8482850161357b565b91505092915050565b6000602082840312156136ad576136ac61355a565b5b60006136bb848285016135a7565b91505092915050565b600080fd5b600080fd5b7f4e487b7100000000000000000000000000000000000000000000000000000000600052604160045260246000fd5b613706826133b6565b810181811067ffffffffffffffff82111715613725576137246136ce565b5b80604052505050565b6000613738613550565b905061374482826136fd565b919050565b600067ffffffffffffffff821115613764576137636136ce565b5b61376d826133b6565b9050602081019050919050565b82818337600083830152505050565b600061379c61379784613749565b61372e565b9050828152602081018484840111156137b8576137b76136c9565b5b6137c384828561377a565b509392505050565b600082601f8301126137e0576137df6136c4565b5b81356137f0848260208601613789565b91505092915050565b600080604083850312156138105761380f61355a565b5b600083013567ffffffffffffffff81111561382e5761382d61355f565b5b61383a858286016137cb565b925050602061384b858286016135a7565b9150509250929050565b6000806000806080858703121561386f5761386e61355a565b5b600085013567ffffffffffffffff81111561388d5761388c61355f565b5b613899878288016137cb565b94505060206138aa878288016135a7565b935050604085013567ffffffffffffffff8111156138cb576138ca61355f565b5b6138d7878288016137cb565b92505060606138e88782880161357b565b91505092959194509250565b6000806040838503121561390b5761390a61355a565b5b600083013567ffffffffffffffff8111156139295761392861355f565b5b613935858286016137cb565b925050602083013567ffffffffffffffff8111156139565761395561355f565b5b613962858286016137cb565b9150509250929050565b600080600080608085870312156139865761398561355a565b5b600085013567ffffffffffffffff8111156139a4576139a361355f565b5b6139b0878288016137cb565b94505060206139c1878288016135a7565b93505060406139d2878288016135a7565b925050606085013567ffffffffffffffff8111156139f3576139f261355f565b5b6139ff878288016137cb565b91505092959194509250565b6000602082019050613a20600083018461331b565b92915050565b600081519050919050565b600082825260208201905092915050565b6000819050602082019050919050565b613a5b81613206565b82525050565b6000613a6d8383613a52565b60208301905092915050565b6000602082019050919050565b6000613a9182613a26565b613a9b8185613a31565b9350613aa683613a42565b8060005b83811015613ad7578151613abe8882613a61565b9750613ac983613a79565b925050600181019050613aaa565b5085935050505092915050565b60006020820190508181036000830152613afe8184613a86565b905092915050565b600060208284031215613b1c57613b1b61355a565b5b600082013567ffffffffffffffff811115613b3a57613b3961355f565b5b613b46848285016137cb565b91505092915050565b604082016000820151613b656000850182613a52565b506020820151613b786020850182613a52565b50505050565b6000604082019050613b936000830184613b4f565b92915050565b60008060408385031215613bb057613baf61355a565b5b6000613bbe8582860161357b565b9250506020613bcf8582860161357b565b9150509250929050565b600080600060608486031215613bf257613bf161355a565b5b600084013567ffffffffffffffff811115613c1057613c0f61355f565b5b613c1c868287016137cb565b935050602084013567ffffffffffffffff811115613c3d57613c3c61355f565b5b613c49868287016137cb565b9250506040613c5a8682870161357b565b9150509250925092565b613c6d81613309565b82525050565b600060e083016000830151613c8b6000860182613c64565b5060208301518482036020860152613ca3828261345f565b9150506040830151613cb86040860182613a52565b506060830151613ccb6060860182613a52565b5060808301518482036080860152613ce3828261345f565b91505060a083015184820360a0860152613cfd828261345f565b91505060c0830151613d1260c0860182613a52565b508091505092915050565b60006020820190508181036000830152613d378184613c73565b905092915050565b600081519050919050565b600082825260208201905092915050565b6000819050602082019050919050565b6000613d778383613c64565b60208301905092915050565b6000602082019050919050565b6000613d9b82613d3f565b613da58185613d4a565b9350613db083613d5b565b8060005b83811015613de1578151613dc88882613d6b565b9750613dd383613d83565b925050600181019050613db4565b5085935050505092915050565b60006020820190508181036000830152613e088184613d90565b905092915050565b7f4e487b7100000000000000000000000000000000000000000000000000000000600052602260045260246000fd5b60006002820490506001821680613e5757607f821691505b602082108103613e6a57613e69613e10565b5b50919050565b600081905092915050565b6000613e8682613370565b613e908185613e70565b9350613ea081856020860161338c565b80840191505092915050565b6000613eb88284613e7b565b915081905092915050565b7f4e487b7100000000000000000000000000000000000000000000000000000000600052603260045260246000fd5b60008190508160005260206000209050919050565b60008154613f1481613e3f565b613f1e818661337b565b94506001821660008114613f395760018114613f4f57613f82565b60ff198316865281151560200286019350613f82565b613f5885613ef2565b60005b83811015613f7a57815481890152600182019150602081019050613f5b565b808801955050505b50505092915050565b60006020820190508181036000830152613fa58184613f07565b905092915050565b6000613fb882613206565b91507fffffffffffffffffffffffffffffffffffffffffffffffffffffffffffffffff8203613fea57613fe9613210565b5b600182019050919050565b60006020601f8301049050919050565b600082821b905092915050565b6000600883026140427fffffffffffffffffffffffffffffffffffffffffffffffffffffffffffffffff82614005565b61404c8683614005565b95508019841693508086168417925050509392505050565b6000819050919050565b600061408961408461407f84613206565b614064565b613206565b9050919050565b6000819050919050565b6140a38361406e565b6140b76140af82614090565b848454614012565b825550505050565b600090565b6140cc6140bf565b6140d781848461409a565b505050565b5b818110156140fb576140f06000826140c4565b6001810190506140dd565b5050565b601f8211156141405761411181613ef2565b61411a84613ff5565b81016020851015614129578190505b61413d61413585613ff5565b8301826140dc565b50505b505050565b600082821c905092915050565b600061416360001984600802614145565b1980831691505092915050565b600061417c8383614152565b9150826002028217905092915050565b61419582613370565b67ffffffffffffffff8111156141ae576141ad6136ce565b5b6141b88254613e3f565b6141c38282856140ff565b600060209050601f8311600181146141f657600084156141e4578287015190505b6141ee8582614170565b865550614256565b601f19841661420486613ef2565b60005b8281101561422c57848901518255600182019150602085019450602081019050614207565b868310156142495784890151614245601f891682614152565b8355505b6001600288020188555050505b505050505050565b7f4e487b7100000000000000000000000000000000000000000000000000000000600052601260045260246000fd5b600061429882613206565b91506142a383613206565b9250826142b3576142b261425e565b5b828204905092915050565b7f53454c4c00000000000000000000000000000000000000000000000000000000600082015250565b60006142f460048361337b565b91506142ff826142be565b602082019050919050565b60006020820190508181036000830152614323816142e7565b9050919050565b7f6f6e000000000000000000000000000000000000000000000000000000000000600082015250565b600061436060028361337b565b915061436b8261432a565b602082019050919050565b6000602082019050818103600083015261438f81614353565b9050919050565b7f4255590000000000000000000000000000000000000000000000000000000000600082015250565b60006143cc60038361337b565b91506143d782614396565b602082019050919050565b600060208201905081810360008301526143fb816143bf565b9050919050565b60008160011c9050919050565b6000808291508390505b60018511156144595780860481111561443557614434613210565b5b60018516156144445780820291505b808102905061445285614402565b9450614419565b94509492505050565b600082614472576001905061452e565b81614480576000905061452e565b816001811461449657600281146144a0576144cf565b600191505061452e565b60ff8411156144b2576144b1613210565b5b8360020a9150848211156144c9576144c8613210565b5b5061452e565b5060208310610133831016604e8410600b84101617156145045782820a9050838111156144ff576144fe613210565b5b61452e565b614511848484600161440f565b9250905081840481111561452857614527613210565b5b81810290505b9392505050565b600061454082613206565b915061454b83613206565b92506145787fffffffffffffffffffffffffffffffffffffffffffffffffffffffffffffffff8484614462565b905092915050565b6000815461458d81613e3f565b6145978186613e70565b945060018216600081146145b257600181146145c7576145fa565b60ff19831686528115158202860193506145fa565b6145d085613ef2565b60005b838110156145f2578154818901526001820191506020810190506145d3565b838801955050505b50505092915050565b600061460f8284614580565b91508190509291505056fea264697066735822122051d71fc992d8146e480d23a6b11dcc0efe2293e38796cc0b0aeb84e09a9da79764736f6c63430008110033",
  "immutableReferences": {},
  "source": "// SPDX-License-Identifier: MIT\r\npragma solidity ^0.8.17;\r\n\r\nimport './FRT.sol';\r\n\r\ncontract FruitShop is FRT{\r\n    // \r\n    string[] fruitInitList;\r\n    // FRT Token  \r\n    address public owner;\r\n    // 1 200\r\n    uint public ethCanBuy = 200;\r\n    constructor(string memory _name, string memory _symbol, uint _amount,uint _carrot, uint _apple, uint _lemon, uint _initPrice){\r\n        //   \r\n        owner = msg.sender;\r\n        name = _name;\r\n        symbol = _symbol;\r\n\r\n        _initPrice *= 10**18;\r\n        //   \r\n        fruitInit[\"carrot\"].num = _carrot;\r\n        fruitInit[\"apple-whole\"].num = _apple;\r\n        fruitInit[\"lemon\"].num = _lemon;\r\n        fruitInit[\"carrot\"].price = _initPrice * 3;\r\n        fruitInit[\"apple-whole\"].price = _initPrice;\r\n        fruitInit[\"lemon\"].price = _initPrice * 2;\r\n        fruitInitList.push(\"carrot\");\r\n        fruitInitList.push(\"lemon\");\r\n        fruitInitList.push(\"apple-whole\");\r\n        mint(_amount * (10 ** uint(decimals)));\r\n    }\r\n\r\n    //  get\r\n    function getFruitInitList() view public returns(string[] memory){\r\n        return fruitInitList;\r\n    }\r\n    //  frt \r\n    // CA Eth  \r\n    receive() external payable{\r\n        require(msg.value != 0);\r\n        uint _amount = msg.value * ethCanBuy;\r\n\r\n        require(balances[owner] >= _amount);\r\n        balances[owner] -= _amount;\r\n        balances[msg.sender] += _amount;\r\n\r\n        if(msg.sender == owner){\r\n            mint(_amount);\r\n        }\r\n        emit Transfer(owner,msg.sender,_amount);\r\n    }\r\n    //   \r\n    // ETH => FRT\r\n    function transferEthToFrt () payable public{\r\n        require(msg.value != 0);\r\n        uint _maxCan = msg.value * ethCanBuy ;\r\n        require(balances[owner] >= _maxCan);\r\n\r\n        balances[owner] -= _maxCan;\r\n        balances[msg.sender] += _maxCan;\r\n\r\n        emit Transfer(owner,msg.sender,_maxCan);\r\n    }\r\n\r\n    // FRT => ETH\r\n    function transferFrtToEth (uint _amount) payable public{\r\n        require(_amount != 0);\r\n        _amount *=  10**decimals;\r\n\r\n        balances[owner] += _amount;\r\n        balances[msg.sender] -= _amount;\r\n        payable(msg.sender).transfer(_amount /200);\r\n    }\r\n\r\n    //   100 \r\n    struct FruitInfo{\r\n        uint num;\r\n        uint price;\r\n    }\r\n    mapping (string=>FruitInfo) fruitInit;\r\n    //   \r\n    function getFruitShop(string memory _name)view public returns(FruitInfo memory){\r\n        return fruitInit[_name];\r\n    }\r\n    //  ETH  \r\n    function buyFruitsByETH(string memory _name, uint _amount) public payable returns(uint){\r\n        require(fruitInit[_name].num >= _amount);\r\n        fruitInit[_name].num -= _amount;\r\n        bool check = false;\r\n        for(uint i = 0 ; i<hasFruitList[msg.sender].length; i++){\r\n            if(keccak256(abi.encode(hasFruitList[msg.sender][i]))==keccak256(abi.encode(_name))){\r\n                check = true;\r\n            }\r\n        }\r\n        if(check){\r\n            fruitWallet[msg.sender].num[_name] += _amount;\r\n        }else{\r\n            hasFruitList[msg.sender].push(_name);\r\n            fruitWallet[msg.sender].num[_name] = _amount;\r\n        }\r\n        \r\n        return fruitWallet[msg.sender].num[_name];\r\n    }\r\n    //  FRT  \r\n    function buyFruitsByFRT(string memory _name, uint _amount) public payable returns(uint){\r\n        require(fruitInit[_name].num >= _amount);\r\n        balances[msg.sender] -= _amount * fruitInit[_name].price * ethCanBuy;\r\n        fruitInit[_name].num -= _amount;\r\n        bool check = false;\r\n        for(uint i = 0 ; i<hasFruitList[msg.sender].length; i++){\r\n            if(keccak256(abi.encode(hasFruitList[msg.sender][i]))==keccak256(abi.encode(_name))){\r\n                check = true;\r\n            }\r\n        }\r\n        if(check){\r\n            fruitWallet[msg.sender].num[_name] += _amount;\r\n        }else{\r\n            hasFruitList[msg.sender].push(_name);\r\n            fruitWallet[msg.sender].num[_name] = _amount;\r\n        }\r\n        return fruitWallet[msg.sender].num[_name];\r\n    }\r\n    //  \r\n\r\n    //  ->  -> , \r\n    // \r\n    mapping(string=>address[]) fruitTrader;\r\n    function getFruitTrader(string memory _typeIs)view public returns(address[] memory){\r\n        return fruitTrader[_typeIs];\r\n    }\r\n    //  \r\n    // { : ,,}\r\n    struct SellFruit{\r\n        address owner;\r\n        string name;\r\n        uint price;\r\n        uint num;\r\n        string typeIs;\r\n        string status;\r\n        uint date;\r\n    }\r\n    mapping (string=>mapping(string=>mapping(address=>SellFruit))) makeShop;\r\n    //  \r\n    function registerFruit(string memory _name,uint _price, uint _num,string memory _typeIs) public payable {\r\n        require(_num >0);\r\n        if(keccak256(abi.encode(_typeIs))==keccak256(abi.encode(\"SELL\"))){\r\n            require(fruitWallet[msg.sender].num[_name] >= _num);\r\n        }\r\n        require(keccak256(abi.encode(makeShop[_name][_typeIs][msg.sender].status)) != keccak256(abi.encode(\"on\")));\r\n        bool check = true;\r\n        for(uint i = 0; i<fruitTrader[_typeIs].length; i++){\r\n            if(fruitTrader[_typeIs][i] == msg.sender){\r\n                check = false;\r\n            }\r\n        }\r\n        if(check) fruitTrader[_typeIs].push(payable(msg.sender));\r\n        makeShop[_name][_typeIs][msg.sender].owner = msg.sender;\r\n        makeShop[_name][_typeIs][msg.sender].price = _price * 10 ** 18;\r\n        makeShop[_name][_typeIs][msg.sender].num = _num;\r\n        makeShop[_name][_typeIs][msg.sender].name = _name;\r\n        makeShop[_name][_typeIs][msg.sender].typeIs = _typeIs;\r\n        makeShop[_name][_typeIs][msg.sender].status = \"on\";\r\n        makeShop[_name][_typeIs][msg.sender].date = block.timestamp;\r\n    }\r\n    //  \r\n    function deleteFruit(string memory _name,string memory _typeIs) public payable{\r\n        makeShop[_name][_typeIs][msg.sender].status = \"off\";\r\n        if(keccak256(abi.encode(_typeIs))==keccak256(abi.encode(\"BUY\"))){\r\n            refund(_name, _typeIs);\r\n        }\r\n    }\r\n    //   \r\n    function refund(string memory _name,string memory _typeIs) public payable {\r\n            uint refundMoney = makeShop[_name][_typeIs][msg.sender].price * makeShop[_name][_typeIs][msg.sender].num;\r\n            payable(msg.sender).transfer(refundMoney);\r\n    }\r\n    //  \r\n    // { : {  : }}\r\n    struct Fruit{\r\n        mapping(string=>uint) num;\r\n    }\r\n    mapping (address=>Fruit) fruitWallet;\r\n    mapping (address=>string[]) hasFruitList;\r\n    //   \r\n    function getFruitWallet() view public returns(uint[] memory){\r\n        uint count = hasFruitList[msg.sender].length;\r\n        uint[] memory wallet = new uint[](count);\r\n        for(uint i=0; i<count;i++){\r\n            wallet[i] = fruitWallet[msg.sender].num[hasFruitList[msg.sender][i]];\r\n        }\r\n        return wallet;\r\n    }\r\n    //   \r\n    function hasFruit() view public returns(string[] memory){\r\n        return hasFruitList[msg.sender];\r\n    }\r\n    //   \r\n    function buyFruit(string memory _name, uint _num, string memory _typeIs, address _seller) public payable {\r\n        bool check = false;\r\n        for(uint i = 0 ; i<hasFruitList[msg.sender].length; i++){\r\n            if(keccak256(abi.encode(hasFruitList[msg.sender][i]))==keccak256(abi.encode(_name))){\r\n                check = true;\r\n            }\r\n        }\r\n        if(check){\r\n            fruitWallet[msg.sender].num[_name] += _num;\r\n        }else{\r\n            hasFruitList[msg.sender].push(_name);\r\n            fruitWallet[msg.sender].num[_name] = _num;\r\n        }\r\n        makeShop[_name][_typeIs][_seller].num -= _num;\r\n        fruitWallet[_seller].num[_name] -= _num;\r\n        uint sendMoney = makeShop[_name][_typeIs][_seller].price * _num * 95 / 100;\r\n        \r\n        payable(makeShop[_name][_typeIs][_seller].owner).transfer(sendMoney);\r\n    }\r\n    //   \r\n    function sellFruit(string memory _name, uint _num,string memory _typeIs,address _seller) public payable {\r\n        makeShop[_name][_typeIs][_seller].num -= _num;\r\n        fruitWallet[_seller].num[_name] += _num;\r\n        fruitWallet[msg.sender].num[_name] -= _num;\r\n\r\n        uint sendMoney = makeShop[_name][_typeIs][_seller].price * _num * 95 / 100;\r\n        payable(msg.sender).transfer(sendMoney);\r\n    }\r\n    //  \r\n    function getSellerList(string memory _name, string memory _typeIs,address _seller) public view returns(SellFruit memory){\r\n        return makeShop[_name][_typeIs][_seller];\r\n    }\r\n}",
  "sourcePath": "C:\\Users\\KGA_030\\Desktop\\class\\React_project\\ethfruitshop\\smartContract\\contracts\\FruitShop.sol",
  "compiler": {
    "name": "solc",
    "version": "0.8.17+commit.8df45f5f.Emscripten.clang"
  },
  "schemaVersion": "3.4.11",
  "updatedAt": "2022-12-05T02:48:36.065Z",
  "networkType": "ethereum",
  "devdoc": {
    "kind": "dev",
    "methods": {},
    "version": 1
  },
  "userdoc": {
    "kind": "user",
    "methods": {},
    "version": 1
  }
}