{
  "contractName": "FruitShop",
  "abi": [
    {
      "inputs": [
        {
          "internalType": "string",
          "name": "_name",
          "type": "string"
        },
        {
          "internalType": "string",
          "name": "_symbol",
          "type": "string"
        },
        {
          "internalType": "uint256",
          "name": "_amount",
          "type": "uint256"
        },
        {
          "internalType": "uint256",
          "name": "_carrot",
          "type": "uint256"
        },
        {
          "internalType": "uint256",
          "name": "_apple",
          "type": "uint256"
        },
        {
          "internalType": "uint256",
          "name": "_lemon",
          "type": "uint256"
        },
        {
          "internalType": "uint256",
          "name": "_initPrice",
          "type": "uint256"
        }
      ],
      "stateMutability": "nonpayable",
      "type": "constructor"
    },
    {
      "anonymous": false,
      "inputs": [
        {
          "indexed": false,
          "internalType": "address",
          "name": "owner",
          "type": "address"
        },
        {
          "indexed": false,
          "internalType": "address",
          "name": "spender",
          "type": "address"
        },
        {
          "indexed": false,
          "internalType": "uint256",
          "name": "value",
          "type": "uint256"
        }
      ],
      "name": "Approval",
      "type": "event"
    },
    {
      "anonymous": false,
      "inputs": [
        {
          "indexed": false,
          "internalType": "address",
          "name": "from",
          "type": "address"
        },
        {
          "indexed": false,
          "internalType": "address",
          "name": "to",
          "type": "address"
        },
        {
          "indexed": false,
          "internalType": "uint256",
          "name": "value",
          "type": "uint256"
        }
      ],
      "name": "Transfer",
      "type": "event"
    },
    {
      "anonymous": false,
      "inputs": [
        {
          "indexed": false,
          "internalType": "address",
          "name": "from",
          "type": "address"
        },
        {
          "indexed": false,
          "internalType": "address",
          "name": "to",
          "type": "address"
        },
        {
          "indexed": false,
          "internalType": "string",
          "name": "name",
          "type": "string"
        },
        {
          "indexed": false,
          "internalType": "uint256",
          "name": "num",
          "type": "uint256"
        },
        {
          "indexed": false,
          "internalType": "uint256",
          "name": "value",
          "type": "uint256"
        },
        {
          "indexed": false,
          "internalType": "uint256",
          "name": "date",
          "type": "uint256"
        },
        {
          "indexed": false,
          "internalType": "string",
          "name": "pay",
          "type": "string"
        }
      ],
      "name": "TransferETH",
      "type": "event"
    },
    {
      "anonymous": false,
      "inputs": [
        {
          "indexed": false,
          "internalType": "address",
          "name": "from",
          "type": "address"
        },
        {
          "indexed": false,
          "internalType": "address",
          "name": "to",
          "type": "address"
        },
        {
          "indexed": false,
          "internalType": "string",
          "name": "name",
          "type": "string"
        },
        {
          "indexed": false,
          "internalType": "uint256",
          "name": "num",
          "type": "uint256"
        },
        {
          "indexed": false,
          "internalType": "uint256",
          "name": "value",
          "type": "uint256"
        },
        {
          "indexed": false,
          "internalType": "uint256",
          "name": "date",
          "type": "uint256"
        },
        {
          "indexed": false,
          "internalType": "string",
          "name": "pay",
          "type": "string"
        }
      ],
      "name": "TransferFRT",
      "type": "event"
    },
    {
      "inputs": [
        {
          "internalType": "address",
          "name": "",
          "type": "address"
        },
        {
          "internalType": "address",
          "name": "",
          "type": "address"
        }
      ],
      "name": "allowance",
      "outputs": [
        {
          "internalType": "uint256",
          "name": "",
          "type": "uint256"
        }
      ],
      "stateMutability": "view",
      "type": "function",
      "constant": true
    },
    {
      "inputs": [
        {
          "internalType": "address",
          "name": "_spender",
          "type": "address"
        },
        {
          "internalType": "uint256",
          "name": "_amount",
          "type": "uint256"
        }
      ],
      "name": "approve",
      "outputs": [],
      "stateMutability": "nonpayable",
      "type": "function"
    },
    {
      "inputs": [
        {
          "internalType": "address",
          "name": "_account",
          "type": "address"
        }
      ],
      "name": "balanceOf",
      "outputs": [
        {
          "internalType": "uint256",
          "name": "",
          "type": "uint256"
        }
      ],
      "stateMutability": "view",
      "type": "function",
      "constant": true
    },
    {
      "inputs": [
        {
          "internalType": "address",
          "name": "",
          "type": "address"
        }
      ],
      "name": "balances",
      "outputs": [
        {
          "internalType": "uint256",
          "name": "",
          "type": "uint256"
        }
      ],
      "stateMutability": "view",
      "type": "function",
      "constant": true
    },
    {
      "inputs": [
        {
          "internalType": "uint256",
          "name": "_amount",
          "type": "uint256"
        }
      ],
      "name": "burn",
      "outputs": [],
      "stateMutability": "nonpayable",
      "type": "function"
    },
    {
      "inputs": [],
      "name": "decimals",
      "outputs": [
        {
          "internalType": "uint256",
          "name": "",
          "type": "uint256"
        }
      ],
      "stateMutability": "view",
      "type": "function",
      "constant": true
    },
    {
      "inputs": [],
      "name": "ethCanBuy",
      "outputs": [
        {
          "internalType": "uint256",
          "name": "",
          "type": "uint256"
        }
      ],
      "stateMutability": "view",
      "type": "function",
      "constant": true
    },
    {
      "inputs": [],
      "name": "name",
      "outputs": [
        {
          "internalType": "string",
          "name": "",
          "type": "string"
        }
      ],
      "stateMutability": "view",
      "type": "function",
      "constant": true
    },
    {
      "inputs": [],
      "name": "owner",
      "outputs": [
        {
          "internalType": "address",
          "name": "",
          "type": "address"
        }
      ],
      "stateMutability": "view",
      "type": "function",
      "constant": true
    },
    {
      "inputs": [],
      "name": "symbol",
      "outputs": [
        {
          "internalType": "string",
          "name": "",
          "type": "string"
        }
      ],
      "stateMutability": "view",
      "type": "function",
      "constant": true
    },
    {
      "inputs": [],
      "name": "totalSupply",
      "outputs": [
        {
          "internalType": "uint256",
          "name": "",
          "type": "uint256"
        }
      ],
      "stateMutability": "view",
      "type": "function",
      "constant": true
    },
    {
      "inputs": [
        {
          "internalType": "address",
          "name": "_recipient",
          "type": "address"
        },
        {
          "internalType": "uint256",
          "name": "_amount",
          "type": "uint256"
        }
      ],
      "name": "transfer",
      "outputs": [],
      "stateMutability": "nonpayable",
      "type": "function"
    },
    {
      "inputs": [
        {
          "internalType": "address",
          "name": "_sender",
          "type": "address"
        },
        {
          "internalType": "address",
          "name": "_recipient",
          "type": "address"
        },
        {
          "internalType": "uint256",
          "name": "_amount",
          "type": "uint256"
        }
      ],
      "name": "transferFrom",
      "outputs": [],
      "stateMutability": "nonpayable",
      "type": "function"
    },
    {
      "stateMutability": "payable",
      "type": "receive",
      "payable": true
    },
    {
      "inputs": [],
      "name": "getFruitInitList",
      "outputs": [
        {
          "internalType": "string[]",
          "name": "",
          "type": "string[]"
        }
      ],
      "stateMutability": "view",
      "type": "function",
      "constant": true
    },
    {
      "inputs": [],
      "name": "transferEthToFrt",
      "outputs": [],
      "stateMutability": "payable",
      "type": "function",
      "payable": true
    },
    {
      "inputs": [
        {
          "internalType": "uint256",
          "name": "_amount",
          "type": "uint256"
        }
      ],
      "name": "transferFrtToEth",
      "outputs": [],
      "stateMutability": "payable",
      "type": "function",
      "payable": true
    },
    {
      "inputs": [
        {
          "internalType": "string",
          "name": "_name",
          "type": "string"
        }
      ],
      "name": "getFruitShop",
      "outputs": [
        {
          "components": [
            {
              "internalType": "uint256",
              "name": "num",
              "type": "uint256"
            },
            {
              "internalType": "uint256",
              "name": "price",
              "type": "uint256"
            }
          ],
          "internalType": "struct FruitShop.FruitInfo",
          "name": "",
          "type": "tuple"
        }
      ],
      "stateMutability": "view",
      "type": "function",
      "constant": true
    },
    {
      "inputs": [
        {
          "internalType": "string",
          "name": "_name",
          "type": "string"
        },
        {
          "internalType": "uint256",
          "name": "_amount",
          "type": "uint256"
        }
      ],
      "name": "buyFruitsByETH",
      "outputs": [
        {
          "internalType": "uint256",
          "name": "",
          "type": "uint256"
        }
      ],
      "stateMutability": "payable",
      "type": "function",
      "payable": true
    },
    {
      "inputs": [
        {
          "internalType": "string",
          "name": "_name",
          "type": "string"
        },
        {
          "internalType": "uint256",
          "name": "_amount",
          "type": "uint256"
        }
      ],
      "name": "buyFruitsByFRT",
      "outputs": [
        {
          "internalType": "uint256",
          "name": "",
          "type": "uint256"
        }
      ],
      "stateMutability": "payable",
      "type": "function",
      "payable": true
    },
    {
      "inputs": [
        {
          "internalType": "string",
          "name": "_typeIs",
          "type": "string"
        }
      ],
      "name": "getFruitTrader",
      "outputs": [
        {
          "internalType": "address[]",
          "name": "",
          "type": "address[]"
        }
      ],
      "stateMutability": "view",
      "type": "function",
      "constant": true
    },
    {
      "inputs": [
        {
          "internalType": "string",
          "name": "_name",
          "type": "string"
        },
        {
          "internalType": "uint256",
          "name": "_price",
          "type": "uint256"
        },
        {
          "internalType": "uint256",
          "name": "_num",
          "type": "uint256"
        },
        {
          "internalType": "string",
          "name": "_typeIs",
          "type": "string"
        },
        {
          "internalType": "string",
          "name": "unit",
          "type": "string"
        }
      ],
      "name": "registerFruit",
      "outputs": [],
      "stateMutability": "payable",
      "type": "function",
      "payable": true
    },
    {
      "inputs": [
        {
          "internalType": "string",
          "name": "_name",
          "type": "string"
        },
        {
          "internalType": "string",
          "name": "_typeIs",
          "type": "string"
        },
        {
          "internalType": "string",
          "name": "unit",
          "type": "string"
        }
      ],
      "name": "deleteFruit",
      "outputs": [],
      "stateMutability": "payable",
      "type": "function",
      "payable": true
    },
    {
      "inputs": [
        {
          "internalType": "string",
          "name": "_name",
          "type": "string"
        },
        {
          "internalType": "string",
          "name": "_typeIs",
          "type": "string"
        },
        {
          "internalType": "string",
          "name": "unit",
          "type": "string"
        }
      ],
      "name": "refund",
      "outputs": [],
      "stateMutability": "payable",
      "type": "function",
      "payable": true
    },
    {
      "inputs": [],
      "name": "getFruitWallet",
      "outputs": [
        {
          "internalType": "uint256[]",
          "name": "",
          "type": "uint256[]"
        }
      ],
      "stateMutability": "view",
      "type": "function",
      "constant": true
    },
    {
      "inputs": [],
      "name": "hasFruit",
      "outputs": [
        {
          "internalType": "string[]",
          "name": "",
          "type": "string[]"
        }
      ],
      "stateMutability": "view",
      "type": "function",
      "constant": true
    },
    {
      "inputs": [
        {
          "internalType": "string",
          "name": "_name",
          "type": "string"
        },
        {
          "internalType": "uint256",
          "name": "_num",
          "type": "uint256"
        },
        {
          "internalType": "string",
          "name": "_typeIs",
          "type": "string"
        },
        {
          "internalType": "address",
          "name": "_seller",
          "type": "address"
        },
        {
          "internalType": "string",
          "name": "unit",
          "type": "string"
        }
      ],
      "name": "buyFruit",
      "outputs": [],
      "stateMutability": "payable",
      "type": "function",
      "payable": true
    },
    {
      "inputs": [
        {
          "internalType": "string",
          "name": "_name",
          "type": "string"
        },
        {
          "internalType": "uint256",
          "name": "_num",
          "type": "uint256"
        },
        {
          "internalType": "string",
          "name": "_typeIs",
          "type": "string"
        },
        {
          "internalType": "address",
          "name": "_seller",
          "type": "address"
        },
        {
          "internalType": "string",
          "name": "unit",
          "type": "string"
        }
      ],
      "name": "sellFruit",
      "outputs": [],
      "stateMutability": "payable",
      "type": "function",
      "payable": true
    },
    {
      "inputs": [
        {
          "internalType": "string",
          "name": "_name",
          "type": "string"
        },
        {
          "internalType": "string",
          "name": "_typeIs",
          "type": "string"
        },
        {
          "internalType": "address",
          "name": "_seller",
          "type": "address"
        }
      ],
      "name": "getSellerListETH",
      "outputs": [
        {
          "components": [
            {
              "internalType": "address",
              "name": "owner",
              "type": "address"
            },
            {
              "internalType": "string",
              "name": "name",
              "type": "string"
            },
            {
              "internalType": "uint256",
              "name": "price",
              "type": "uint256"
            },
            {
              "internalType": "uint256",
              "name": "num",
              "type": "uint256"
            },
            {
              "internalType": "string",
              "name": "typeIs",
              "type": "string"
            },
            {
              "internalType": "string",
              "name": "status",
              "type": "string"
            },
            {
              "internalType": "uint256",
              "name": "date",
              "type": "uint256"
            },
            {
              "internalType": "string",
              "name": "unit",
              "type": "string"
            }
          ],
          "internalType": "struct FruitShop.SellFruit",
          "name": "",
          "type": "tuple"
        }
      ],
      "stateMutability": "view",
      "type": "function",
      "constant": true
    },
    {
      "inputs": [
        {
          "internalType": "string",
          "name": "_name",
          "type": "string"
        },
        {
          "internalType": "string",
          "name": "_typeIs",
          "type": "string"
        },
        {
          "internalType": "address",
          "name": "_seller",
          "type": "address"
        }
      ],
      "name": "getSellerListFRT",
      "outputs": [
        {
          "components": [
            {
              "internalType": "address",
              "name": "owner",
              "type": "address"
            },
            {
              "internalType": "string",
              "name": "name",
              "type": "string"
            },
            {
              "internalType": "uint256",
              "name": "price",
              "type": "uint256"
            },
            {
              "internalType": "uint256",
              "name": "num",
              "type": "uint256"
            },
            {
              "internalType": "string",
              "name": "typeIs",
              "type": "string"
            },
            {
              "internalType": "string",
              "name": "status",
              "type": "string"
            },
            {
              "internalType": "uint256",
              "name": "date",
              "type": "uint256"
            },
            {
              "internalType": "string",
              "name": "unit",
              "type": "string"
            }
          ],
          "internalType": "struct FruitShop.SellFruit",
          "name": "",
          "type": "tuple"
        }
      ],
      "stateMutability": "view",
      "type": "function",
      "constant": true
    }
  ],
  "bytecode": "0x6080604052601260025560c86008553480156200001b57600080fd5b5060405162005c7438038062005c74833981810160405281019062000041919062000578565b33600760006101000a81548173ffffffffffffffffffffffffffffffffffffffff021916908373ffffffffffffffffffffffffffffffffffffffff1602179055508660009081620000939190620008aa565b508560019081620000a59190620008aa565b50670de0b6b3a764000081620000bc9190620009c0565b9050836009604051620000cf9062000a66565b908152602001604051809103902060000181905550826009604051620000f59062000acd565b9081526020016040518091039020600001819055508160096040516200011b9062000b34565b9081526020016040518091039020600001819055506003816200013f9190620009c0565b60096040516200014f9062000a66565b908152602001604051809103902060010181905550806009604051620001759062000acd565b908152602001604051809103902060010181905550600281620001999190620009c0565b6009604051620001a99062000b34565b908152602001604051809103902060010181905550600680600181540180825580915050600190039060005260206000200160006040518060400160405280600681526020017f636172726f74000000000000000000000000000000000000000000000000000081525090919091509081620002269190620008aa565b50600680600181540180825580915050600190039060005260206000200160006040518060400160405280600581526020017f6c656d6f6e000000000000000000000000000000000000000000000000000000815250909190915090816200028f9190620008aa565b50600680600181540180825580915050600190039060005260206000200160006040518060400160405280600b81526020017f6170706c652d77686f6c6500000000000000000000000000000000000000000081525090919091509081620002f89190620008aa565b5062000327600254600a6200030e919062000c9f565b866200031b9190620009c0565b6200033460201b60201c565b5050505050505062000d2b565b80600460003373ffffffffffffffffffffffffffffffffffffffff1673ffffffffffffffffffffffffffffffffffffffff168152602001908152602001600020600082825462000385919062000cf0565b925050819055508060036000828254620003a0919062000cf0565b9250508190555050565b6000604051905090565b600080fd5b600080fd5b600080fd5b600080fd5b6000601f19601f8301169050919050565b7f4e487b7100000000000000000000000000000000000000000000000000000000600052604160045260246000fd5b6200041382620003c8565b810181811067ffffffffffffffff82111715620004355762000434620003d9565b5b80604052505050565b60006200044a620003aa565b905062000458828262000408565b919050565b600067ffffffffffffffff8211156200047b576200047a620003d9565b5b6200048682620003c8565b9050602081019050919050565b60005b83811015620004b357808201518184015260208101905062000496565b60008484015250505050565b6000620004d6620004d0846200045d565b6200043e565b905082815260208101848484011115620004f557620004f4620003c3565b5b6200050284828562000493565b509392505050565b600082601f830112620005225762000521620003be565b5b815162000534848260208601620004bf565b91505092915050565b6000819050919050565b62000552816200053d565b81146200055e57600080fd5b50565b600081519050620005728162000547565b92915050565b600080600080600080600060e0888a0312156200059a5762000599620003b4565b5b600088015167ffffffffffffffff811115620005bb57620005ba620003b9565b5b620005c98a828b016200050a565b975050602088015167ffffffffffffffff811115620005ed57620005ec620003b9565b5b620005fb8a828b016200050a565b96505060406200060e8a828b0162000561565b9550506060620006218a828b0162000561565b9450506080620006348a828b0162000561565b93505060a0620006478a828b0162000561565b92505060c06200065a8a828b0162000561565b91505092959891949750929550565b600081519050919050565b7f4e487b7100000000000000000000000000000000000000000000000000000000600052602260045260246000fd5b60006002820490506001821680620006bc57607f821691505b602082108103620006d257620006d162000674565b5b50919050565b60008190508160005260206000209050919050565b60006020601f8301049050919050565b600082821b905092915050565b6000600883026200073c7fffffffffffffffffffffffffffffffffffffffffffffffffffffffffffffffff82620006fd565b620007488683620006fd565b95508019841693508086168417925050509392505050565b6000819050919050565b60006200078b620007856200077f846200053d565b62000760565b6200053d565b9050919050565b6000819050919050565b620007a7836200076a565b620007bf620007b68262000792565b8484546200070a565b825550505050565b600090565b620007d6620007c7565b620007e38184846200079c565b505050565b5b818110156200080b57620007ff600082620007cc565b600181019050620007e9565b5050565b601f8211156200085a576200082481620006d8565b6200082f84620006ed565b810160208510156200083f578190505b620008576200084e85620006ed565b830182620007e8565b50505b505050565b600082821c905092915050565b60006200087f600019846008026200085f565b1980831691505092915050565b60006200089a83836200086c565b9150826002028217905092915050565b620008b58262000669565b67ffffffffffffffff811115620008d157620008d0620003d9565b5b620008dd8254620006a3565b620008ea8282856200080f565b600060209050601f8311600181146200092257600084156200090d578287015190505b6200091985826200088c565b86555062000989565b601f1984166200093286620006d8565b60005b828110156200095c5784890151825560018201915060208501945060208101905062000935565b868310156200097c578489015162000978601f8916826200086c565b8355505b6001600288020188555050505b505050505050565b7f4e487b7100000000000000000000000000000000000000000000000000000000600052601160045260246000fd5b6000620009cd826200053d565b9150620009da836200053d565b9250828202620009ea816200053d565b9150828204841483151762000a045762000a0362000991565b5b5092915050565b600081905092915050565b7f636172726f740000000000000000000000000000000000000000000000000000600082015250565b600062000a4e60068362000a0b565b915062000a5b8262000a16565b600682019050919050565b600062000a738262000a3f565b9150819050919050565b7f6170706c652d77686f6c65000000000000000000000000000000000000000000600082015250565b600062000ab5600b8362000a0b565b915062000ac28262000a7d565b600b82019050919050565b600062000ada8262000aa6565b9150819050919050565b7f6c656d6f6e000000000000000000000000000000000000000000000000000000600082015250565b600062000b1c60058362000a0b565b915062000b298262000ae4565b600582019050919050565b600062000b418262000b0d565b9150819050919050565b60008160011c9050919050565b6000808291508390505b600185111562000baa5780860481111562000b825762000b8162000991565b5b600185161562000b925780820291505b808102905062000ba28562000b4b565b945062000b62565b94509492505050565b60008262000bc5576001905062000c98565b8162000bd5576000905062000c98565b816001811462000bee576002811462000bf95762000c2f565b600191505062000c98565b60ff84111562000c0e5762000c0d62000991565b5b8360020a91508482111562000c285762000c2762000991565b5b5062000c98565b5060208310610133831016604e8410600b841016171562000c695782820a90508381111562000c635762000c6262000991565b5b62000c98565b62000c78848484600162000b58565b9250905081840481111562000c925762000c9162000991565b5b81810290505b9392505050565b600062000cac826200053d565b915062000cb9836200053d565b925062000ce87fffffffffffffffffffffffffffffffffffffffffffffffffffffffffffffffff848462000bb3565b905092915050565b600062000cfd826200053d565b915062000d0a836200053d565b925082820190508082111562000d255762000d2462000991565b5b92915050565b614f398062000d3b6000396000f3fe6080604052600436106101c65760003560e01c806395d89b41116100f7578063b97dfaca11610095578063d1bf410111610064578063d1bf41011461079d578063dd62ed3e146107da578063deeaaca614610817578063e053e3491461083357610387565b8063b97dfaca1461070a578063c1c3c03014610735578063cc79b96614610751578063d0cb477e1461078157610387565b8063ab696fbe116100d1578063ab696fbe14610679578063b04fa18e14610695578063b14073ea146106b1578063b3ae79db146106ee57610387565b806395d89b41146105fa578063a4f9b0e414610625578063a9059cbb1461065057610387565b806331b0a2c611610164578063433ae9341161013e578063433ae9341461055857806364b902941461058857806370a08231146105925780638da5cb5b146105cf57610387565b806331b0a2c6146104c75780633aaa1991146104f257806342966c681461052f57610387565b806318160ddd116101a057806318160ddd1461040b57806323b872dd1461043657806327e235e31461045f578063313ce5671461049c57610387565b806306fdde031461038c578063083a6862146103b7578063095ea7b3146103e257610387565b3661038757600034036101d857600080fd5b6000600854346101e891906138b7565b90508060046000600760009054906101000a900473ffffffffffffffffffffffffffffffffffffffff1673ffffffffffffffffffffffffffffffffffffffff1673ffffffffffffffffffffffffffffffffffffffff16815260200190815260200160002054101561025857600080fd5b8060046000600760009054906101000a900473ffffffffffffffffffffffffffffffffffffffff1673ffffffffffffffffffffffffffffffffffffffff1673ffffffffffffffffffffffffffffffffffffffff16815260200190815260200160002060008282546102c991906138f9565b9250508190555080600460003373ffffffffffffffffffffffffffffffffffffffff1673ffffffffffffffffffffffffffffffffffffffff168152602001908152602001600020600082825461031f919061392d565b92505081905550600760009054906101000a900473ffffffffffffffffffffffffffffffffffffffff1673ffffffffffffffffffffffffffffffffffffffff163373ffffffffffffffffffffffffffffffffffffffff16036103855761038481610870565b5b005b600080fd5b34801561039857600080fd5b506103a16108e2565b6040516103ae91906139f1565b60405180910390f35b3480156103c357600080fd5b506103cc610970565b6040516103d99190613b1f565b60405180910390f35b3480156103ee57600080fd5b5061040960048036038101906104049190613bdf565b610a49565b005b34801561041757600080fd5b50610420610ace565b60405161042d9190613c2e565b60405180910390f35b34801561044257600080fd5b5061045d60048036038101906104589190613c49565b610ad4565b005b34801561046b57600080fd5b5061048660048036038101906104819190613c9c565b610ca1565b6040516104939190613c2e565b60405180910390f35b3480156104a857600080fd5b506104b1610cb9565b6040516104be9190613c2e565b60405180910390f35b3480156104d357600080fd5b506104dc610cbf565b6040516104e99190613c2e565b60405180910390f35b3480156104fe57600080fd5b5061051960048036038101906105149190613dfe565b610cc5565b6040516105269190613f6c565b60405180910390f35b34801561053b57600080fd5b5061055660048036038101906105519190613f8e565b61102f565b005b610572600480360381019061056d9190613fbb565b6110a1565b60405161057f9190613c2e565b60405180910390f35b610590611430565b005b34801561059e57600080fd5b506105b960048036038101906105b49190613c9c565b61158e565b6040516105c69190613c2e565b60405180910390f35b3480156105db57600080fd5b506105e46115d7565b6040516105f19190614026565b60405180910390f35b34801561060657600080fd5b5061060f6115fd565b60405161061c91906139f1565b60405180910390f35b34801561063157600080fd5b5061063a61168b565b6040516106479190613b1f565b60405180910390f35b34801561065c57600080fd5b5061067760048036038101906106729190613bdf565b6117a1565b005b610693600480360381019061068e9190613f8e565b611851565b005b6106af60048036038101906106aa9190614041565b61199e565b005b3480156106bd57600080fd5b506106d860048036038101906106d39190613dfe565b611f48565b6040516106e59190613f6c565b60405180910390f35b61070860048036038101906107039190614110565b6122b2565b005b34801561071657600080fd5b5061071f612b4b565b60405161072c919061428e565b60405180910390f35b61074f600480360381019061074a91906142b0565b612ce0565b005b61076b60048036038101906107669190613fbb565b612e1b565b6040516107789190613c2e565b60405180910390f35b61079b60048036038101906107969190614041565b613265565b005b3480156107a957600080fd5b506107c460048036038101906107bf9190614357565b613563565b6040516107d191906143cf565b60405180910390f35b3480156107e657600080fd5b5061080160048036038101906107fc91906143ea565b6135af565b60405161080e9190613c2e565b60405180910390f35b610831600480360381019061082c91906142b0565b6135d4565b005b34801561083f57600080fd5b5061085a60048036038101906108559190614357565b61375d565b60405161086791906144d9565b60405180910390f35b80600460003373ffffffffffffffffffffffffffffffffffffffff1673ffffffffffffffffffffffffffffffffffffffff16815260200190815260200160002060008282546108bf919061392d565b9250508190555080600360008282546108d8919061392d565b9250508190555050565b600080546108ef9061452a565b80601f016020809104026020016040519081016040528092919081815260200182805461091b9061452a565b80156109685780601f1061093d57610100808354040283529160200191610968565b820191906000526020600020905b81548152906001019060200180831161094b57829003601f168201915b505050505081565b60606006805480602002602001604051908101604052809291908181526020016000905b82821015610a405783829060005260206000200180546109b39061452a565b80601f01602080910402602001604051908101604052809291908181526020018280546109df9061452a565b8015610a2c5780601f10610a0157610100808354040283529160200191610a2c565b820191906000526020600020905b815481529060010190602001808311610a0f57829003601f168201915b505050505081526020019060010190610994565b50505050905090565b80600560003373ffffffffffffffffffffffffffffffffffffffff1673ffffffffffffffffffffffffffffffffffffffff16815260200190815260200160002060008473ffffffffffffffffffffffffffffffffffffffff1673ffffffffffffffffffffffffffffffffffffffff168152602001908152602001600020819055505050565b60035481565b80600560008573ffffffffffffffffffffffffffffffffffffffff1673ffffffffffffffffffffffffffffffffffffffff16815260200190815260200160002060003373ffffffffffffffffffffffffffffffffffffffff1673ffffffffffffffffffffffffffffffffffffffff168152602001908152602001600020541015610b5d57600080fd5b80600560008573ffffffffffffffffffffffffffffffffffffffff1673ffffffffffffffffffffffffffffffffffffffff16815260200190815260200160002060003373ffffffffffffffffffffffffffffffffffffffff1673ffffffffffffffffffffffffffffffffffffffff1681526020019081526020016000206000828254610be991906138f9565b9250508190555080600460008573ffffffffffffffffffffffffffffffffffffffff1673ffffffffffffffffffffffffffffffffffffffff1681526020019081526020016000206000828254610c3f91906138f9565b9250508190555080600460008473ffffffffffffffffffffffffffffffffffffffff1673ffffffffffffffffffffffffffffffffffffffff1681526020019081526020016000206000828254610c95919061392d565b92505081905550505050565b60046020528060005260406000206000915090505481565b60025481565b60085481565b610ccd613809565b600b84604051610cdd9190614597565b908152602001604051809103902083604051610cf99190614597565b9081526020016040518091039020604051610d13906145fa565b908152602001604051809103902060008373ffffffffffffffffffffffffffffffffffffffff1673ffffffffffffffffffffffffffffffffffffffff168152602001908152602001600020604051806101000160405290816000820160009054906101000a900473ffffffffffffffffffffffffffffffffffffffff1673ffffffffffffffffffffffffffffffffffffffff1673ffffffffffffffffffffffffffffffffffffffff168152602001600182018054610dd09061452a565b80601f0160208091040260200160405190810160405280929190818152602001828054610dfc9061452a565b8015610e495780601f10610e1e57610100808354040283529160200191610e49565b820191906000526020600020905b815481529060010190602001808311610e2c57829003601f168201915b505050505081526020016002820154815260200160038201548152602001600482018054610e769061452a565b80601f0160208091040260200160405190810160405280929190818152602001828054610ea29061452a565b8015610eef5780601f10610ec457610100808354040283529160200191610eef565b820191906000526020600020905b815481529060010190602001808311610ed257829003601f168201915b50505050508152602001600582018054610f089061452a565b80601f0160208091040260200160405190810160405280929190818152602001828054610f349061452a565b8015610f815780601f10610f5657610100808354040283529160200191610f81565b820191906000526020600020905b815481529060010190602001808311610f6457829003601f168201915b5050505050815260200160068201548152602001600782018054610fa49061452a565b80601f0160208091040260200160405190810160405280929190818152602001828054610fd09061452a565b801561101d5780601f10610ff25761010080835404028352916020019161101d565b820191906000526020600020905b81548152906001019060200180831161100057829003601f168201915b50505050508152505090509392505050565b80600460003373ffffffffffffffffffffffffffffffffffffffff1673ffffffffffffffffffffffffffffffffffffffff168152602001908152602001600020600082825461107e91906138f9565b92505081905550806003600082825461109791906138f9565b9250508190555050565b6000816009846040516110b49190614597565b90815260200160405180910390206000015410156110d157600080fd5b816009846040516110e29190614597565b9081526020016040518091039020600001600082825461110291906138f9565b925050819055506000805b600d60003373ffffffffffffffffffffffffffffffffffffffff1673ffffffffffffffffffffffffffffffffffffffff1681526020019081526020016000208054905081101561121c578460405160200161116891906139f1565b60405160208183030381529060405280519060200120600d60003373ffffffffffffffffffffffffffffffffffffffff1673ffffffffffffffffffffffffffffffffffffffff16815260200190815260200160002082815481106111cf576111ce61460f565b5b906000526020600020016040516020016111e991906146d7565b604051602081830303815290604052805190602001200361120957600191505b8080611214906146f9565b91505061110d565b50801561129d5782600c60003373ffffffffffffffffffffffffffffffffffffffff1673ffffffffffffffffffffffffffffffffffffffff168152602001908152602001600020600001856040516112749190614597565b90815260200160405180910390206000828254611291919061392d565b92505081905550611373565b600d60003373ffffffffffffffffffffffffffffffffffffffff1673ffffffffffffffffffffffffffffffffffffffff1681526020019081526020016000208490806001815401808255809150506001900390600052602060002001600090919091909150908161130e91906148d8565b5082600c60003373ffffffffffffffffffffffffffffffffffffffff1673ffffffffffffffffffffffffffffffffffffffff168152602001908152602001600020600001856040516113609190614597565b9081526020016040518091039020819055505b7f7433822cf3d2ccdb641ea84f173c2e4c5138f85826166152360d7de95ba632d53360008686670de0b6b3a7640000346113ad91906149d9565b426040516113c096959493929190614a2d565b60405180910390a1600c60003373ffffffffffffffffffffffffffffffffffffffff1673ffffffffffffffffffffffffffffffffffffffff168152602001908152602001600020600001846040516114189190614597565b90815260200160405180910390205491505092915050565b6000340361143d57600080fd5b60006008543461144d91906138b7565b90508060046000600760009054906101000a900473ffffffffffffffffffffffffffffffffffffffff1673ffffffffffffffffffffffffffffffffffffffff1673ffffffffffffffffffffffffffffffffffffffff1681526020019081526020016000205410156114bd57600080fd5b8060046000600760009054906101000a900473ffffffffffffffffffffffffffffffffffffffff1673ffffffffffffffffffffffffffffffffffffffff1673ffffffffffffffffffffffffffffffffffffffff168152602001908152602001600020600082825461152e91906138f9565b9250508190555080600460003373ffffffffffffffffffffffffffffffffffffffff1673ffffffffffffffffffffffffffffffffffffffff1681526020019081526020016000206000828254611584919061392d565b9250508190555050565b6000600460008373ffffffffffffffffffffffffffffffffffffffff1673ffffffffffffffffffffffffffffffffffffffff168152602001908152602001600020549050919050565b600760009054906101000a900473ffffffffffffffffffffffffffffffffffffffff1681565b6001805461160a9061452a565b80601f01602080910402602001604051908101604052809291908181526020018280546116369061452a565b80156116835780601f1061165857610100808354040283529160200191611683565b820191906000526020600020905b81548152906001019060200180831161166657829003601f168201915b505050505081565b6060600d60003373ffffffffffffffffffffffffffffffffffffffff1673ffffffffffffffffffffffffffffffffffffffff168152602001908152602001600020805480602002602001604051908101604052809291908181526020016000905b8282101561179857838290600052602060002001805461170b9061452a565b80601f01602080910402602001604051908101604052809291908181526020018280546117379061452a565b80156117845780601f1061175957610100808354040283529160200191611784565b820191906000526020600020905b81548152906001019060200180831161176757829003601f168201915b5050505050815260200190600101906116ec565b50505050905090565b80600460003373ffffffffffffffffffffffffffffffffffffffff1673ffffffffffffffffffffffffffffffffffffffff16815260200190815260200160002060008282546117f091906138f9565b9250508190555080600460008473ffffffffffffffffffffffffffffffffffffffff1673ffffffffffffffffffffffffffffffffffffffff1681526020019081526020016000206000828254611846919061392d565b925050819055505050565b6000810361185e57600080fd5b600254600a61186d9190614bdb565b8161187891906138b7565b90508060046000600760009054906101000a900473ffffffffffffffffffffffffffffffffffffffff1673ffffffffffffffffffffffffffffffffffffffff1673ffffffffffffffffffffffffffffffffffffffff16815260200190815260200160002060008282546118eb919061392d565b9250508190555080600460003373ffffffffffffffffffffffffffffffffffffffff1673ffffffffffffffffffffffffffffffffffffffff168152602001908152602001600020600082825461194191906138f9565b925050819055503373ffffffffffffffffffffffffffffffffffffffff166108fc60c88361196f91906149d9565b9081150290604051600060405180830381858888f1935050505015801561199a573d6000803e3d6000fd5b5050565b6000805b600d60003373ffffffffffffffffffffffffffffffffffffffff1673ffffffffffffffffffffffffffffffffffffffff16815260200190815260200160002080549050811015611ab157866040516020016119fd91906139f1565b60405160208183030381529060405280519060200120600d60003373ffffffffffffffffffffffffffffffffffffffff1673ffffffffffffffffffffffffffffffffffffffff1681526020019081526020016000208281548110611a6457611a6361460f565b5b90600052602060002001604051602001611a7e91906146d7565b6040516020818303038152906040528051906020012003611a9e57600191505b8080611aa9906146f9565b9150506119a2565b508015611b325784600c60003373ffffffffffffffffffffffffffffffffffffffff1673ffffffffffffffffffffffffffffffffffffffff16815260200190815260200160002060000187604051611b099190614597565b90815260200160405180910390206000828254611b26919061392d565b92505081905550611c08565b600d60003373ffffffffffffffffffffffffffffffffffffffff1673ffffffffffffffffffffffffffffffffffffffff16815260200190815260200160002086908060018154018082558091505060019003906000526020600020016000909190919091509081611ba391906148d8565b5084600c60003373ffffffffffffffffffffffffffffffffffffffff1673ffffffffffffffffffffffffffffffffffffffff16815260200190815260200160002060000187604051611bf59190614597565b9081526020016040518091039020819055505b84600b87604051611c199190614597565b908152602001604051809103902085604051611c359190614597565b908152602001604051809103902083604051611c519190614597565b908152602001604051809103902060008573ffffffffffffffffffffffffffffffffffffffff1673ffffffffffffffffffffffffffffffffffffffff1681526020019081526020016000206003016000828254611cae91906138f9565b9250508190555084600c60008573ffffffffffffffffffffffffffffffffffffffff1673ffffffffffffffffffffffffffffffffffffffff16815260200190815260200160002060000187604051611d069190614597565b90815260200160405180910390206000828254611d2391906138f9565b92505081905550600085600b88604051611d3d9190614597565b908152602001604051809103902086604051611d599190614597565b908152602001604051809103902084604051611d759190614597565b908152602001604051809103902060008673ffffffffffffffffffffffffffffffffffffffff1673ffffffffffffffffffffffffffffffffffffffff16815260200190815260200160002060020154611dce91906138b7565b905060006064605f83611de191906138b7565b611deb91906149d9565b9050600b88604051611dfd9190614597565b908152602001604051809103902086604051611e199190614597565b908152602001604051809103902084604051611e359190614597565b908152602001604051809103902060008673ffffffffffffffffffffffffffffffffffffffff1673ffffffffffffffffffffffffffffffffffffffff16815260200190815260200160002060000160009054906101000a900473ffffffffffffffffffffffffffffffffffffffff1673ffffffffffffffffffffffffffffffffffffffff166108fc829081150290604051600060405180830381858888f19350505050158015611ee9573d6000803e3d6000fd5b507f7433822cf3d2ccdb641ea84f173c2e4c5138f85826166152360d7de95ba632d533868a8a670de0b6b3a764000087611f2391906149d9565b42604051611f3696959493929190614a2d565b60405180910390a15050505050505050565b611f50613809565b600b84604051611f609190614597565b908152602001604051809103902083604051611f7c9190614597565b9081526020016040518091039020604051611f9690614c72565b908152602001604051809103902060008373ffffffffffffffffffffffffffffffffffffffff1673ffffffffffffffffffffffffffffffffffffffff168152602001908152602001600020604051806101000160405290816000820160009054906101000a900473ffffffffffffffffffffffffffffffffffffffff1673ffffffffffffffffffffffffffffffffffffffff1673ffffffffffffffffffffffffffffffffffffffff1681526020016001820180546120539061452a565b80601f016020809104026020016040519081016040528092919081815260200182805461207f9061452a565b80156120cc5780601f106120a1576101008083540402835291602001916120cc565b820191906000526020600020905b8154815290600101906020018083116120af57829003601f168201915b5050505050815260200160028201548152602001600382015481526020016004820180546120f99061452a565b80601f01602080910402602001604051908101604052809291908181526020018280546121259061452a565b80156121725780601f1061214757610100808354040283529160200191612172565b820191906000526020600020905b81548152906001019060200180831161215557829003601f168201915b5050505050815260200160058201805461218b9061452a565b80601f01602080910402602001604051908101604052809291908181526020018280546121b79061452a565b80156122045780601f106121d957610100808354040283529160200191612204565b820191906000526020600020905b8154815290600101906020018083116121e757829003601f168201915b50505050508152602001600682015481526020016007820180546122279061452a565b80601f01602080910402602001604051908101604052809291908181526020018280546122539061452a565b80156122a05780601f10612275576101008083540402835291602001916122a0565b820191906000526020600020905b81548152906001019060200180831161228357829003601f168201915b50505050508152505090509392505050565b600083116122bf57600080fd5b6040516020016122ce90614cd3565b60405160208183030381529060405280519060200120826040516020016122f591906139f1565b604051602081830303815290604052805190602001200361237c5782600c60003373ffffffffffffffffffffffffffffffffffffffff1673ffffffffffffffffffffffffffffffffffffffff168152602001908152602001600020600001866040516123619190614597565b908152602001604051809103902054101561237b57600080fd5b5b60405160200161238b90614d3f565b60405160208183030381529060405280519060200120600b866040516123b19190614597565b9081526020016040518091039020836040516123cd9190614597565b9081526020016040518091039020826040516123e99190614597565b908152602001604051809103902060003373ffffffffffffffffffffffffffffffffffffffff1673ffffffffffffffffffffffffffffffffffffffff16815260200190815260200160002060050160405160200161244791906146d7565b604051602081830303815290604052805190602001200361246757600080fd5b60006001905060005b600a846040516124809190614597565b90815260200160405180910390208054905081101561253e573373ffffffffffffffffffffffffffffffffffffffff16600a856040516124c09190614597565b908152602001604051809103902082815481106124e0576124df61460f565b5b9060005260206000200160009054906101000a900473ffffffffffffffffffffffffffffffffffffffff1673ffffffffffffffffffffffffffffffffffffffff160361252b57600091505b8080612536906146f9565b915050612470565b5080156125c557600a836040516125559190614597565b9081526020016040518091039020339080600181540180825580915050600190039060005260206000200160009091909190916101000a81548173ffffffffffffffffffffffffffffffffffffffff021916908373ffffffffffffffffffffffffffffffffffffffff1602179055505b33600b876040516125d69190614597565b9081526020016040518091039020846040516125f29190614597565b90815260200160405180910390208360405161260e9190614597565b908152602001604051809103902060003373ffffffffffffffffffffffffffffffffffffffff1673ffffffffffffffffffffffffffffffffffffffff16815260200190815260200160002060000160006101000a81548173ffffffffffffffffffffffffffffffffffffffff021916908373ffffffffffffffffffffffffffffffffffffffff160217905550670de0b6b3a7640000856126ae91906138b7565b600b876040516126be9190614597565b9081526020016040518091039020846040516126da9190614597565b9081526020016040518091039020836040516126f69190614597565b908152602001604051809103902060003373ffffffffffffffffffffffffffffffffffffffff1673ffffffffffffffffffffffffffffffffffffffff1681526020019081526020016000206002018190555083600b876040516127599190614597565b9081526020016040518091039020846040516127759190614597565b9081526020016040518091039020836040516127919190614597565b908152602001604051809103902060003373ffffffffffffffffffffffffffffffffffffffff1673ffffffffffffffffffffffffffffffffffffffff1681526020019081526020016000206003018190555085600b876040516127f49190614597565b9081526020016040518091039020846040516128109190614597565b90815260200160405180910390208360405161282c9190614597565b908152602001604051809103902060003373ffffffffffffffffffffffffffffffffffffffff1673ffffffffffffffffffffffffffffffffffffffff168152602001908152602001600020600101908161288691906148d8565b5082600b876040516128989190614597565b9081526020016040518091039020846040516128b49190614597565b9081526020016040518091039020836040516128d09190614597565b908152602001604051809103902060003373ffffffffffffffffffffffffffffffffffffffff1673ffffffffffffffffffffffffffffffffffffffff168152602001908152602001600020600401908161292a91906148d8565b506040518060400160405280600281526020017f6f6e000000000000000000000000000000000000000000000000000000000000815250600b876040516129719190614597565b90815260200160405180910390208460405161298d9190614597565b9081526020016040518091039020836040516129a99190614597565b908152602001604051809103902060003373ffffffffffffffffffffffffffffffffffffffff1673ffffffffffffffffffffffffffffffffffffffff1681526020019081526020016000206005019081612a0391906148d8565b5042600b87604051612a159190614597565b908152602001604051809103902084604051612a319190614597565b908152602001604051809103902083604051612a4d9190614597565b908152602001604051809103902060003373ffffffffffffffffffffffffffffffffffffffff1673ffffffffffffffffffffffffffffffffffffffff1681526020019081526020016000206006018190555081600b87604051612ab09190614597565b908152602001604051809103902084604051612acc9190614597565b908152602001604051809103902083604051612ae89190614597565b908152602001604051809103902060003373ffffffffffffffffffffffffffffffffffffffff1673ffffffffffffffffffffffffffffffffffffffff1681526020019081526020016000206007019081612b4291906148d8565b50505050505050565b60606000600d60003373ffffffffffffffffffffffffffffffffffffffff1673ffffffffffffffffffffffffffffffffffffffff16815260200190815260200160002080549050905060008167ffffffffffffffff811115612bb057612baf613cd3565b5b604051908082528060200260200182016040528015612bde5781602001602082028036833780820191505090505b50905060005b82811015612cd757600c60003373ffffffffffffffffffffffffffffffffffffffff1673ffffffffffffffffffffffffffffffffffffffff168152602001908152602001600020600001600d60003373ffffffffffffffffffffffffffffffffffffffff1673ffffffffffffffffffffffffffffffffffffffff1681526020019081526020016000208281548110612c7f57612c7e61460f565b5b90600052602060002001604051612c969190614de2565b908152602001604051809103902054828281518110612cb857612cb761460f565b5b6020026020010181815250508080612ccf906146f9565b915050612be4565b50809250505090565b6040518060400160405280600381526020017f6f66660000000000000000000000000000000000000000000000000000000000815250600b84604051612d269190614597565b908152602001604051809103902083604051612d429190614597565b908152602001604051809103902082604051612d5e9190614597565b908152602001604051809103902060003373ffffffffffffffffffffffffffffffffffffffff1673ffffffffffffffffffffffffffffffffffffffff1681526020019081526020016000206005019081612db891906148d8565b50604051602001612dc890614e45565b6040516020818303038152906040528051906020012082604051602001612def91906139f1565b6040516020818303038152906040528051906020012003612e1657612e158383836135d4565b5b505050565b600081600984604051612e2e9190614597565b9081526020016040518091039020600001541015612e4b57600080fd5b600854600984604051612e5e9190614597565b90815260200160405180910390206001015483612e7b91906138b7565b612e8591906138b7565b600460003373ffffffffffffffffffffffffffffffffffffffff1673ffffffffffffffffffffffffffffffffffffffff1681526020019081526020016000206000828254612ed391906138f9565b9250508190555081600984604051612eeb9190614597565b90815260200160405180910390206000016000828254612f0b91906138f9565b925050819055506000805b600d60003373ffffffffffffffffffffffffffffffffffffffff1673ffffffffffffffffffffffffffffffffffffffff168152602001908152602001600020805490508110156130255784604051602001612f7191906139f1565b60405160208183030381529060405280519060200120600d60003373ffffffffffffffffffffffffffffffffffffffff1673ffffffffffffffffffffffffffffffffffffffff1681526020019081526020016000208281548110612fd857612fd761460f565b5b90600052602060002001604051602001612ff291906146d7565b604051602081830303815290604052805190602001200361301257600191505b808061301d906146f9565b915050612f16565b5080156130a65782600c60003373ffffffffffffffffffffffffffffffffffffffff1673ffffffffffffffffffffffffffffffffffffffff1681526020019081526020016000206000018560405161307d9190614597565b9081526020016040518091039020600082825461309a919061392d565b9250508190555061317c565b600d60003373ffffffffffffffffffffffffffffffffffffffff1673ffffffffffffffffffffffffffffffffffffffff1681526020019081526020016000208490806001815401808255809150506001900390600052602060002001600090919091909150908161311791906148d8565b5082600c60003373ffffffffffffffffffffffffffffffffffffffff1673ffffffffffffffffffffffffffffffffffffffff168152602001908152602001600020600001856040516131699190614597565b9081526020016040518091039020819055505b7f1dd6e495fd314fa658f9f799bf41822e2c913a508cf78adc22c482601989d7d93360008686670de0b6b3a764000060098a6040516131bb9190614597565b908152602001604051809103902060010154896131d891906138b7565b6131e291906149d9565b426040516131f596959493929190614e88565b60405180910390a1600c60003373ffffffffffffffffffffffffffffffffffffffff1673ffffffffffffffffffffffffffffffffffffffff1681526020019081526020016000206000018460405161324d9190614597565b90815260200160405180910390205491505092915050565b83600b866040516132769190614597565b9081526020016040518091039020846040516132929190614597565b9081526020016040518091039020826040516132ae9190614597565b908152602001604051809103902060008473ffffffffffffffffffffffffffffffffffffffff1673ffffffffffffffffffffffffffffffffffffffff168152602001908152602001600020600301600082825461330b91906138f9565b9250508190555083600c60008473ffffffffffffffffffffffffffffffffffffffff1673ffffffffffffffffffffffffffffffffffffffff168152602001908152602001600020600001866040516133639190614597565b90815260200160405180910390206000828254613380919061392d565b9250508190555083600c60003373ffffffffffffffffffffffffffffffffffffffff1673ffffffffffffffffffffffffffffffffffffffff168152602001908152602001600020600001866040516133d89190614597565b908152602001604051809103902060008282546133f591906138f9565b92505081905550600084600b8760405161340f9190614597565b90815260200160405180910390208560405161342b9190614597565b9081526020016040518091039020836040516134479190614597565b908152602001604051809103902060008573ffffffffffffffffffffffffffffffffffffffff1673ffffffffffffffffffffffffffffffffffffffff168152602001908152602001600020600201546134a091906138b7565b905060006064605f836134b391906138b7565b6134bd91906149d9565b90503373ffffffffffffffffffffffffffffffffffffffff166108fc829081150290604051600060405180830381858888f19350505050158015613505573d6000803e3d6000fd5b507f7433822cf3d2ccdb641ea84f173c2e4c5138f85826166152360d7de95ba632d584338989670de0b6b3a76400008761353f91906149d9565b4260405161355296959493929190614a2d565b60405180910390a150505050505050565b61356b613864565b60098260405161357b9190614597565b9081526020016040518091039020604051806040016040529081600082015481526020016001820154815250509050919050565b6005602052816000526040600020602052806000526040600020600091509150505481565b6000600b846040516135e69190614597565b9081526020016040518091039020836040516136029190614597565b90815260200160405180910390208260405161361e9190614597565b908152602001604051809103902060003373ffffffffffffffffffffffffffffffffffffffff1673ffffffffffffffffffffffffffffffffffffffff16815260200190815260200160002060030154600b8560405161367d9190614597565b9081526020016040518091039020846040516136999190614597565b9081526020016040518091039020836040516136b59190614597565b908152602001604051809103902060003373ffffffffffffffffffffffffffffffffffffffff1673ffffffffffffffffffffffffffffffffffffffff1681526020019081526020016000206002015461370e91906138b7565b90503373ffffffffffffffffffffffffffffffffffffffff166108fc829081150290604051600060405180830381858888f19350505050158015613756573d6000803e3d6000fd5b5050505050565b6060600a8260405161376f9190614597565b90815260200160405180910390208054806020026020016040519081016040528092919081815260200182805480156137fd57602002820191906000526020600020905b8160009054906101000a900473ffffffffffffffffffffffffffffffffffffffff1673ffffffffffffffffffffffffffffffffffffffff16815260200190600101908083116137b3575b50505050509050919050565b604051806101000160405280600073ffffffffffffffffffffffffffffffffffffffff168152602001606081526020016000815260200160008152602001606081526020016060815260200160008152602001606081525090565b604051806040016040528060008152602001600081525090565b6000819050919050565b7f4e487b7100000000000000000000000000000000000000000000000000000000600052601160045260246000fd5b60006138c28261387e565b91506138cd8361387e565b92508282026138db8161387e565b915082820484148315176138f2576138f1613888565b5b5092915050565b60006139048261387e565b915061390f8361387e565b925082820390508181111561392757613926613888565b5b92915050565b60006139388261387e565b91506139438361387e565b925082820190508082111561395b5761395a613888565b5b92915050565b600081519050919050565b600082825260208201905092915050565b60005b8381101561399b578082015181840152602081019050613980565b60008484015250505050565b6000601f19601f8301169050919050565b60006139c382613961565b6139cd818561396c565b93506139dd81856020860161397d565b6139e6816139a7565b840191505092915050565b60006020820190508181036000830152613a0b81846139b8565b905092915050565b600081519050919050565b600082825260208201905092915050565b6000819050602082019050919050565b600082825260208201905092915050565b6000613a5b82613961565b613a658185613a3f565b9350613a7581856020860161397d565b613a7e816139a7565b840191505092915050565b6000613a958383613a50565b905092915050565b6000602082019050919050565b6000613ab582613a13565b613abf8185613a1e565b935083602082028501613ad185613a2f565b8060005b85811015613b0d5784840389528151613aee8582613a89565b9450613af983613a9d565b925060208a01995050600181019050613ad5565b50829750879550505050505092915050565b60006020820190508181036000830152613b398184613aaa565b905092915050565b6000604051905090565b600080fd5b600080fd5b600073ffffffffffffffffffffffffffffffffffffffff82169050919050565b6000613b8082613b55565b9050919050565b613b9081613b75565b8114613b9b57600080fd5b50565b600081359050613bad81613b87565b92915050565b613bbc8161387e565b8114613bc757600080fd5b50565b600081359050613bd981613bb3565b92915050565b60008060408385031215613bf657613bf5613b4b565b5b6000613c0485828601613b9e565b9250506020613c1585828601613bca565b9150509250929050565b613c288161387e565b82525050565b6000602082019050613c436000830184613c1f565b92915050565b600080600060608486031215613c6257613c61613b4b565b5b6000613c7086828701613b9e565b9350506020613c8186828701613b9e565b9250506040613c9286828701613bca565b9150509250925092565b600060208284031215613cb257613cb1613b4b565b5b6000613cc084828501613b9e565b91505092915050565b600080fd5b600080fd5b7f4e487b7100000000000000000000000000000000000000000000000000000000600052604160045260246000fd5b613d0b826139a7565b810181811067ffffffffffffffff82111715613d2a57613d29613cd3565b5b80604052505050565b6000613d3d613b41565b9050613d498282613d02565b919050565b600067ffffffffffffffff821115613d6957613d68613cd3565b5b613d72826139a7565b9050602081019050919050565b82818337600083830152505050565b6000613da1613d9c84613d4e565b613d33565b905082815260208101848484011115613dbd57613dbc613cce565b5b613dc8848285613d7f565b509392505050565b600082601f830112613de557613de4613cc9565b5b8135613df5848260208601613d8e565b91505092915050565b600080600060608486031215613e1757613e16613b4b565b5b600084013567ffffffffffffffff811115613e3557613e34613b50565b5b613e4186828701613dd0565b935050602084013567ffffffffffffffff811115613e6257613e61613b50565b5b613e6e86828701613dd0565b9250506040613e7f86828701613b9e565b9150509250925092565b613e9281613b75565b82525050565b613ea18161387e565b82525050565b600061010083016000830151613ec06000860182613e89565b5060208301518482036020860152613ed88282613a50565b9150506040830151613eed6040860182613e98565b506060830151613f006060860182613e98565b5060808301518482036080860152613f188282613a50565b91505060a083015184820360a0860152613f328282613a50565b91505060c0830151613f4760c0860182613e98565b5060e083015184820360e0860152613f5f8282613a50565b9150508091505092915050565b60006020820190508181036000830152613f868184613ea7565b905092915050565b600060208284031215613fa457613fa3613b4b565b5b6000613fb284828501613bca565b91505092915050565b60008060408385031215613fd257613fd1613b4b565b5b600083013567ffffffffffffffff811115613ff057613fef613b50565b5b613ffc85828601613dd0565b925050602061400d85828601613bca565b9150509250929050565b61402081613b75565b82525050565b600060208201905061403b6000830184614017565b92915050565b600080600080600060a0868803121561405d5761405c613b4b565b5b600086013567ffffffffffffffff81111561407b5761407a613b50565b5b61408788828901613dd0565b955050602061409888828901613bca565b945050604086013567ffffffffffffffff8111156140b9576140b8613b50565b5b6140c588828901613dd0565b93505060606140d688828901613b9e565b925050608086013567ffffffffffffffff8111156140f7576140f6613b50565b5b61410388828901613dd0565b9150509295509295909350565b600080600080600060a0868803121561412c5761412b613b4b565b5b600086013567ffffffffffffffff81111561414a57614149613b50565b5b61415688828901613dd0565b955050602061416788828901613bca565b945050604061417888828901613bca565b935050606086013567ffffffffffffffff81111561419957614198613b50565b5b6141a588828901613dd0565b925050608086013567ffffffffffffffff8111156141c6576141c5613b50565b5b6141d288828901613dd0565b9150509295509295909350565b600081519050919050565b600082825260208201905092915050565b6000819050602082019050919050565b60006142178383613e98565b60208301905092915050565b6000602082019050919050565b600061423b826141df565b61424581856141ea565b9350614250836141fb565b8060005b83811015614281578151614268888261420b565b975061427383614223565b925050600181019050614254565b5085935050505092915050565b600060208201905081810360008301526142a88184614230565b905092915050565b6000806000606084860312156142c9576142c8613b4b565b5b600084013567ffffffffffffffff8111156142e7576142e6613b50565b5b6142f386828701613dd0565b935050602084013567ffffffffffffffff81111561431457614313613b50565b5b61432086828701613dd0565b925050604084013567ffffffffffffffff81111561434157614340613b50565b5b61434d86828701613dd0565b9150509250925092565b60006020828403121561436d5761436c613b4b565b5b600082013567ffffffffffffffff81111561438b5761438a613b50565b5b61439784828501613dd0565b91505092915050565b6040820160008201516143b66000850182613e98565b5060208201516143c96020850182613e98565b50505050565b60006040820190506143e460008301846143a0565b92915050565b6000806040838503121561440157614400613b4b565b5b600061440f85828601613b9e565b925050602061442085828601613b9e565b9150509250929050565b600081519050919050565b600082825260208201905092915050565b6000819050602082019050919050565b60006144628383613e89565b60208301905092915050565b6000602082019050919050565b60006144868261442a565b6144908185614435565b935061449b83614446565b8060005b838110156144cc5781516144b38882614456565b97506144be8361446e565b92505060018101905061449f565b5085935050505092915050565b600060208201905081810360008301526144f3818461447b565b905092915050565b7f4e487b7100000000000000000000000000000000000000000000000000000000600052602260045260246000fd5b6000600282049050600182168061454257607f821691505b602082108103614555576145546144fb565b5b50919050565b600081905092915050565b600061457182613961565b61457b818561455b565b935061458b81856020860161397d565b80840191505092915050565b60006145a38284614566565b915081905092915050565b7f4554480000000000000000000000000000000000000000000000000000000000600082015250565b60006145e460038361455b565b91506145ef826145ae565b600382019050919050565b6000614605826145d7565b9150819050919050565b7f4e487b7100000000000000000000000000000000000000000000000000000000600052603260045260246000fd5b60008190508160005260206000209050919050565b600081546146608161452a565b61466a818661396c565b94506001821660008114614685576001811461469b576146ce565b60ff1983168652811515602002860193506146ce565b6146a48561463e565b60005b838110156146c6578154818901526001820191506020810190506146a7565b808801955050505b50505092915050565b600060208201905081810360008301526146f18184614653565b905092915050565b60006147048261387e565b91507fffffffffffffffffffffffffffffffffffffffffffffffffffffffffffffffff820361473657614735613888565b5b600182019050919050565b60006020601f8301049050919050565b600082821b905092915050565b60006008830261478e7fffffffffffffffffffffffffffffffffffffffffffffffffffffffffffffffff82614751565b6147988683614751565b95508019841693508086168417925050509392505050565b6000819050919050565b60006147d56147d06147cb8461387e565b6147b0565b61387e565b9050919050565b6000819050919050565b6147ef836147ba565b6148036147fb826147dc565b84845461475e565b825550505050565b600090565b61481861480b565b6148238184846147e6565b505050565b5b818110156148475761483c600082614810565b600181019050614829565b5050565b601f82111561488c5761485d8161463e565b61486684614741565b81016020851015614875578190505b61488961488185614741565b830182614828565b50505b505050565b600082821c905092915050565b60006148af60001984600802614891565b1980831691505092915050565b60006148c8838361489e565b9150826002028217905092915050565b6148e182613961565b67ffffffffffffffff8111156148fa576148f9613cd3565b5b614904825461452a565b61490f82828561484b565b600060209050601f8311600181146149425760008415614930578287015190505b61493a85826148bc565b8655506149a2565b601f1984166149508661463e565b60005b8281101561497857848901518255600182019150602085019450602081019050614953565b868310156149955784890151614991601f89168261489e565b8355505b6001600288020188555050505b505050505050565b7f4e487b7100000000000000000000000000000000000000000000000000000000600052601260045260246000fd5b60006149e48261387e565b91506149ef8361387e565b9250826149ff576149fe6149aa565b5b828204905092915050565b6000614a1760038361396c565b9150614a22826145ae565b602082019050919050565b600060e082019050614a426000830189614017565b614a4f6020830188614017565b8181036040830152614a6181876139b8565b9050614a706060830186613c1f565b614a7d6080830185613c1f565b614a8a60a0830184613c1f565b81810360c0830152614a9b81614a0a565b9050979650505050505050565b60008160011c9050919050565b6000808291508390505b6001851115614aff57808604811115614adb57614ada613888565b5b6001851615614aea5780820291505b8081029050614af885614aa8565b9450614abf565b94509492505050565b600082614b185760019050614bd4565b81614b265760009050614bd4565b8160018114614b3c5760028114614b4657614b75565b6001915050614bd4565b60ff841115614b5857614b57613888565b5b8360020a915084821115614b6f57614b6e613888565b5b50614bd4565b5060208310610133831016604e8410600b8410161715614baa5782820a905083811115614ba557614ba4613888565b5b614bd4565b614bb78484846001614ab5565b92509050818404811115614bce57614bcd613888565b5b81810290505b9392505050565b6000614be68261387e565b9150614bf18361387e565b9250614c1e7fffffffffffffffffffffffffffffffffffffffffffffffffffffffffffffffff8484614b08565b905092915050565b7f4652540000000000000000000000000000000000000000000000000000000000600082015250565b6000614c5c60038361455b565b9150614c6782614c26565b600382019050919050565b6000614c7d82614c4f565b9150819050919050565b7f53454c4c00000000000000000000000000000000000000000000000000000000600082015250565b6000614cbd60048361396c565b9150614cc882614c87565b602082019050919050565b60006020820190508181036000830152614cec81614cb0565b9050919050565b7f6f6e000000000000000000000000000000000000000000000000000000000000600082015250565b6000614d2960028361396c565b9150614d3482614cf3565b602082019050919050565b60006020820190508181036000830152614d5881614d1c565b9050919050565b60008154614d6c8161452a565b614d76818661455b565b94506001821660008114614d915760018114614da657614dd9565b60ff1983168652811515820286019350614dd9565b614daf8561463e565b60005b83811015614dd157815481890152600182019150602081019050614db2565b838801955050505b50505092915050565b6000614dee8284614d5f565b915081905092915050565b7f4255590000000000000000000000000000000000000000000000000000000000600082015250565b6000614e2f60038361396c565b9150614e3a82614df9565b602082019050919050565b60006020820190508181036000830152614e5e81614e22565b9050919050565b6000614e7260038361396c565b9150614e7d82614c26565b602082019050919050565b600060e082019050614e9d6000830189614017565b614eaa6020830188614017565b8181036040830152614ebc81876139b8565b9050614ecb6060830186613c1f565b614ed86080830185613c1f565b614ee560a0830184613c1f565b81810360c0830152614ef681614e65565b905097965050505050505056fea26469706673582212209dae77639e3eecfebb047af1dbc7ddbf6768f302ba47c842927c2e0be081a4e864736f6c63430008110033",
  "immutableReferences": {},
  "source": "// SPDX-License-Identifier: MIT\r\npragma solidity ^0.8.17;\r\n\r\nimport './FRT.sol';\r\n\r\ncontract FruitShop is FRT{\r\n    // \r\n    string[] fruitInitList;\r\n    // FRT Token  \r\n    address public owner;\r\n    // 1 200\r\n    uint public ethCanBuy = 200;\r\n    constructor(string memory _name, string memory _symbol, uint _amount,uint _carrot, uint _apple, uint _lemon, uint _initPrice){\r\n        //   \r\n        owner = msg.sender;\r\n        name = _name;\r\n        symbol = _symbol;\r\n\r\n        _initPrice *= 10**18;\r\n        //   \r\n        fruitInit[\"carrot\"].num = _carrot;\r\n        fruitInit[\"apple-whole\"].num = _apple;\r\n        fruitInit[\"lemon\"].num = _lemon;\r\n        fruitInit[\"carrot\"].price = _initPrice * 3;\r\n        fruitInit[\"apple-whole\"].price = _initPrice;\r\n        fruitInit[\"lemon\"].price = _initPrice * 2;\r\n        fruitInitList.push(\"carrot\");\r\n        fruitInitList.push(\"lemon\");\r\n        fruitInitList.push(\"apple-whole\");\r\n        mint(_amount * (10 ** uint(decimals)));\r\n    }\r\n\r\n    //  get\r\n    function getFruitInitList() view public returns(string[] memory){\r\n        return fruitInitList;\r\n    }\r\n    //  frt \r\n    // CA Eth  \r\n    receive() external payable{\r\n        require(msg.value != 0);\r\n        uint _amount = msg.value * ethCanBuy;\r\n\r\n        require(balances[owner] >= _amount);\r\n        balances[owner] -= _amount;\r\n        balances[msg.sender] += _amount;\r\n\r\n        if(msg.sender == owner){\r\n            mint(_amount);\r\n        }\r\n    }\r\n    //   \r\n    // ETH => FRT\r\n    function transferEthToFrt () payable public{\r\n        require(msg.value != 0);\r\n        uint _maxCan = msg.value * ethCanBuy ;\r\n        require(balances[owner] >= _maxCan);\r\n\r\n        balances[owner] -= _maxCan;\r\n        balances[msg.sender] += _maxCan;\r\n    }\r\n\r\n    // FRT => ETH\r\n    function transferFrtToEth (uint _amount) payable public{\r\n        require(_amount != 0);\r\n        _amount *=  10**decimals;\r\n\r\n        balances[owner] += _amount;\r\n        balances[msg.sender] -= _amount;\r\n        payable(msg.sender).transfer(_amount /200);\r\n    }\r\n\r\n    //   100 \r\n    struct FruitInfo{\r\n        uint num;\r\n        uint price;\r\n    }\r\n    mapping (string=>FruitInfo) fruitInit;\r\n    //   \r\n    function getFruitShop(string memory _name)view public returns(FruitInfo memory){\r\n        return fruitInit[_name];\r\n    }\r\n    //  ETH  \r\n    function buyFruitsByETH(string memory _name, uint _amount) public payable returns(uint){\r\n        require(fruitInit[_name].num >= _amount);\r\n        fruitInit[_name].num -= _amount;\r\n        bool check = false;\r\n        for(uint i = 0 ; i<hasFruitList[msg.sender].length; i++){\r\n            if(keccak256(abi.encode(hasFruitList[msg.sender][i]))==keccak256(abi.encode(_name))){\r\n                check = true;\r\n            }\r\n        }\r\n        if(check){\r\n            fruitWallet[msg.sender].num[_name] += _amount;\r\n        }else{\r\n            hasFruitList[msg.sender].push(_name);\r\n            fruitWallet[msg.sender].num[_name] = _amount;\r\n        }\r\n        emit TransferETH(msg.sender,address(0),_name, _amount, msg.value/(10**18),block.timestamp,\"ETH\");\r\n        return fruitWallet[msg.sender].num[_name];\r\n    }\r\n    //  FRT  \r\n    function buyFruitsByFRT(string memory _name, uint _amount) public payable returns(uint){\r\n        require(fruitInit[_name].num >= _amount);\r\n        balances[msg.sender] -= _amount * fruitInit[_name].price * ethCanBuy;\r\n        fruitInit[_name].num -= _amount;\r\n        bool check = false;\r\n        for(uint i = 0 ; i<hasFruitList[msg.sender].length; i++){\r\n            if(keccak256(abi.encode(hasFruitList[msg.sender][i]))==keccak256(abi.encode(_name))){\r\n                check = true;\r\n            }\r\n        }\r\n        if(check){\r\n            fruitWallet[msg.sender].num[_name] += _amount;\r\n        }else{\r\n            hasFruitList[msg.sender].push(_name);\r\n            fruitWallet[msg.sender].num[_name] = _amount;\r\n        }\r\n        emit TransferFRT(msg.sender,address(0),_name, _amount, _amount * fruitInit[_name].price/(10**18) ,block.timestamp,\"FRT\");\r\n        return fruitWallet[msg.sender].num[_name];\r\n    }\r\n    //  \r\n\r\n    //  ->  -> , \r\n    // \r\n    mapping(string=>address[]) fruitTrader;\r\n    function getFruitTrader(string memory _typeIs)view public returns(address[] memory){\r\n        return fruitTrader[_typeIs];\r\n    }\r\n    //  \r\n    // { : ,,}\r\n    struct SellFruit{\r\n        address owner;\r\n        string name;\r\n        uint price;\r\n        uint num;\r\n        string typeIs;\r\n        string status;\r\n        uint date;\r\n        string unit;\r\n    }\r\n    mapping (string=>mapping(string=>mapping(string=>mapping(address=>SellFruit)))) makeShop;\r\n    //  \r\n    function registerFruit(string memory _name,uint _price, uint _num,string memory _typeIs, string memory unit) public payable {\r\n        require(_num >0);\r\n        if(keccak256(abi.encode(_typeIs))==keccak256(abi.encode(\"SELL\"))){\r\n            require(fruitWallet[msg.sender].num[_name] >= _num);\r\n        }\r\n        require(keccak256(abi.encode(makeShop[_name][_typeIs][unit][msg.sender].status)) != keccak256(abi.encode(\"on\")));\r\n        bool check = true;\r\n        for(uint i = 0; i<fruitTrader[_typeIs].length; i++){\r\n            if(fruitTrader[_typeIs][i] == msg.sender){\r\n                check = false;\r\n            }\r\n        }\r\n        if(check) fruitTrader[_typeIs].push(payable(msg.sender));\r\n        makeShop[_name][_typeIs][unit][msg.sender].owner = msg.sender;\r\n        makeShop[_name][_typeIs][unit][msg.sender].price = _price * 10 ** 18;\r\n        makeShop[_name][_typeIs][unit][msg.sender].num = _num;\r\n        makeShop[_name][_typeIs][unit][msg.sender].name = _name;\r\n        makeShop[_name][_typeIs][unit][msg.sender].typeIs = _typeIs;\r\n        makeShop[_name][_typeIs][unit][msg.sender].status = \"on\";\r\n        makeShop[_name][_typeIs][unit][msg.sender].date = block.timestamp;\r\n        makeShop[_name][_typeIs][unit][msg.sender].unit = unit;\r\n    }\r\n    //  \r\n    function deleteFruit(string memory _name,string memory _typeIs,string memory unit) public payable{\r\n        makeShop[_name][_typeIs][unit][msg.sender].status = \"off\";\r\n        if(keccak256(abi.encode(_typeIs))==keccak256(abi.encode(\"BUY\"))){\r\n            refund(_name, _typeIs,unit);\r\n        }\r\n    }\r\n    //   \r\n    function refund(string memory _name,string memory _typeIs, string memory unit) public payable {\r\n            uint refundMoney = makeShop[_name][_typeIs][unit][msg.sender].price * makeShop[_name][_typeIs][unit][msg.sender].num;\r\n            payable(msg.sender).transfer(refundMoney);\r\n    }\r\n    //  \r\n    // { : {  : }}\r\n    struct Fruit{\r\n        mapping(string=>uint) num;\r\n    }\r\n    mapping (address=>Fruit) fruitWallet;\r\n    mapping (address=>string[]) hasFruitList;\r\n    //   \r\n    function getFruitWallet() view public returns(uint[] memory){\r\n        uint count = hasFruitList[msg.sender].length;\r\n        uint[] memory wallet = new uint[](count);\r\n        for(uint i=0; i<count;i++){\r\n            wallet[i] = fruitWallet[msg.sender].num[hasFruitList[msg.sender][i]];\r\n        }\r\n        return wallet;\r\n    }\r\n    //   \r\n    function hasFruit() view public returns(string[] memory){\r\n        return hasFruitList[msg.sender];\r\n    }\r\n    //   \r\n    function buyFruit(string memory _name, uint _num, string memory _typeIs, address _seller, string memory unit) public payable {\r\n        bool check = false;\r\n        for(uint i = 0 ; i<hasFruitList[msg.sender].length; i++){\r\n            if(keccak256(abi.encode(hasFruitList[msg.sender][i]))==keccak256(abi.encode(_name))){\r\n                check = true;\r\n            }\r\n        }\r\n        if(check){\r\n            fruitWallet[msg.sender].num[_name] += _num;\r\n        }else{\r\n            hasFruitList[msg.sender].push(_name);\r\n            fruitWallet[msg.sender].num[_name] = _num;\r\n        }\r\n        makeShop[_name][_typeIs][unit][_seller].num -= _num;\r\n        fruitWallet[_seller].num[_name] -= _num;\r\n        uint _amount = makeShop[_name][_typeIs][unit][_seller].price * _num;\r\n        uint sendMoney = _amount * 95 / 100;\r\n        \r\n        payable(makeShop[_name][_typeIs][unit][_seller].owner).transfer(sendMoney);\r\n        emit TransferETH(msg.sender,_seller,_name, _num, _amount/(10**18), block.timestamp,\"ETH\");\r\n    }\r\n    //   \r\n    function sellFruit(string memory _name, uint _num,string memory _typeIs,address _seller, string memory unit) public payable {\r\n        makeShop[_name][_typeIs][unit][_seller].num -= _num;\r\n        fruitWallet[_seller].num[_name] += _num;\r\n        fruitWallet[msg.sender].num[_name] -= _num;\r\n        uint _amount =  makeShop[_name][_typeIs][unit][_seller].price * _num;\r\n        uint sendMoney = _amount * 95 / 100;\r\n        payable(msg.sender).transfer(sendMoney);\r\n        emit TransferETH(_seller,msg.sender,_name, _num, _amount/(10**18) , block.timestamp, \"ETH\");\r\n    }\r\n    //  \r\n    function getSellerListETH(string memory _name, string memory _typeIs,address _seller) public view returns(SellFruit memory){\r\n        return makeShop[_name][_typeIs][\"ETH\"][_seller];\r\n    }\r\n    function getSellerListFRT(string memory _name, string memory _typeIs,address _seller) public view returns(SellFruit memory){\r\n        return makeShop[_name][_typeIs][\"FRT\"][_seller];\r\n    }\r\n\r\n\r\n    //     \r\n    event TransferETH(address from, address to, string name, uint num, uint value, uint date, string pay);\r\n    event TransferFRT(address from, address to, string name, uint num, uint value, uint date, string pay);\r\n}",
  "sourcePath": "C:\\Users\\KGA_030\\Desktop\\class\\React_project\\ethfruitshop\\smartContract\\contracts\\FruitShop.sol",
  "compiler": {
    "name": "solc",
    "version": "0.8.17+commit.8df45f5f.Emscripten.clang"
  },
  "schemaVersion": "3.4.11",
  "updatedAt": "2022-12-08T06:25:10.995Z",
  "networkType": "ethereum",
  "devdoc": {
    "kind": "dev",
    "methods": {},
    "version": 1
  },
  "userdoc": {
    "kind": "user",
    "methods": {},
    "version": 1
  }
}