{
  "contractName": "FruitShop",
  "abi": [
    {
      "inputs": [
        {
          "internalType": "string",
          "name": "_name",
          "type": "string"
        },
        {
          "internalType": "string",
          "name": "_symbol",
          "type": "string"
        },
        {
          "internalType": "uint256",
          "name": "_amount",
          "type": "uint256"
        },
        {
          "internalType": "uint256",
          "name": "_carrot",
          "type": "uint256"
        },
        {
          "internalType": "uint256",
          "name": "_apple",
          "type": "uint256"
        },
        {
          "internalType": "uint256",
          "name": "_lemon",
          "type": "uint256"
        },
        {
          "internalType": "uint256",
          "name": "_initPrice",
          "type": "uint256"
        }
      ],
      "stateMutability": "nonpayable",
      "type": "constructor"
    },
    {
      "anonymous": false,
      "inputs": [
        {
          "indexed": false,
          "internalType": "address",
          "name": "owner",
          "type": "address"
        },
        {
          "indexed": false,
          "internalType": "address",
          "name": "spender",
          "type": "address"
        },
        {
          "indexed": false,
          "internalType": "uint256",
          "name": "value",
          "type": "uint256"
        }
      ],
      "name": "Approval",
      "type": "event"
    },
    {
      "anonymous": false,
      "inputs": [
        {
          "indexed": false,
          "internalType": "address",
          "name": "from",
          "type": "address"
        },
        {
          "indexed": false,
          "internalType": "address",
          "name": "to",
          "type": "address"
        },
        {
          "indexed": false,
          "internalType": "uint256",
          "name": "value",
          "type": "uint256"
        }
      ],
      "name": "Transfer",
      "type": "event"
    },
    {
      "anonymous": false,
      "inputs": [
        {
          "indexed": false,
          "internalType": "address",
          "name": "from",
          "type": "address"
        },
        {
          "indexed": false,
          "internalType": "address",
          "name": "to",
          "type": "address"
        },
        {
          "indexed": false,
          "internalType": "string",
          "name": "name",
          "type": "string"
        },
        {
          "indexed": false,
          "internalType": "uint256",
          "name": "num",
          "type": "uint256"
        },
        {
          "indexed": false,
          "internalType": "uint256",
          "name": "value",
          "type": "uint256"
        },
        {
          "indexed": false,
          "internalType": "uint256",
          "name": "date",
          "type": "uint256"
        },
        {
          "indexed": false,
          "internalType": "string",
          "name": "pay",
          "type": "string"
        }
      ],
      "name": "TransferETH",
      "type": "event"
    },
    {
      "anonymous": false,
      "inputs": [
        {
          "indexed": false,
          "internalType": "address",
          "name": "from",
          "type": "address"
        },
        {
          "indexed": false,
          "internalType": "address",
          "name": "to",
          "type": "address"
        },
        {
          "indexed": false,
          "internalType": "string",
          "name": "name",
          "type": "string"
        },
        {
          "indexed": false,
          "internalType": "uint256",
          "name": "num",
          "type": "uint256"
        },
        {
          "indexed": false,
          "internalType": "uint256",
          "name": "value",
          "type": "uint256"
        },
        {
          "indexed": false,
          "internalType": "uint256",
          "name": "date",
          "type": "uint256"
        },
        {
          "indexed": false,
          "internalType": "string",
          "name": "pay",
          "type": "string"
        }
      ],
      "name": "TransferFRT",
      "type": "event"
    },
    {
      "inputs": [
        {
          "internalType": "address",
          "name": "",
          "type": "address"
        },
        {
          "internalType": "address",
          "name": "",
          "type": "address"
        }
      ],
      "name": "allowance",
      "outputs": [
        {
          "internalType": "uint256",
          "name": "",
          "type": "uint256"
        }
      ],
      "stateMutability": "view",
      "type": "function",
      "constant": true
    },
    {
      "inputs": [
        {
          "internalType": "address",
          "name": "_spender",
          "type": "address"
        },
        {
          "internalType": "uint256",
          "name": "_amount",
          "type": "uint256"
        }
      ],
      "name": "approve",
      "outputs": [],
      "stateMutability": "nonpayable",
      "type": "function"
    },
    {
      "inputs": [
        {
          "internalType": "address",
          "name": "_account",
          "type": "address"
        }
      ],
      "name": "balanceOf",
      "outputs": [
        {
          "internalType": "uint256",
          "name": "",
          "type": "uint256"
        }
      ],
      "stateMutability": "view",
      "type": "function",
      "constant": true
    },
    {
      "inputs": [
        {
          "internalType": "address",
          "name": "",
          "type": "address"
        }
      ],
      "name": "balances",
      "outputs": [
        {
          "internalType": "uint256",
          "name": "",
          "type": "uint256"
        }
      ],
      "stateMutability": "view",
      "type": "function",
      "constant": true
    },
    {
      "inputs": [
        {
          "internalType": "uint256",
          "name": "_amount",
          "type": "uint256"
        }
      ],
      "name": "burn",
      "outputs": [],
      "stateMutability": "nonpayable",
      "type": "function"
    },
    {
      "inputs": [],
      "name": "decimals",
      "outputs": [
        {
          "internalType": "uint256",
          "name": "",
          "type": "uint256"
        }
      ],
      "stateMutability": "view",
      "type": "function",
      "constant": true
    },
    {
      "inputs": [],
      "name": "ethCanBuy",
      "outputs": [
        {
          "internalType": "uint256",
          "name": "",
          "type": "uint256"
        }
      ],
      "stateMutability": "view",
      "type": "function",
      "constant": true
    },
    {
      "inputs": [],
      "name": "name",
      "outputs": [
        {
          "internalType": "string",
          "name": "",
          "type": "string"
        }
      ],
      "stateMutability": "view",
      "type": "function",
      "constant": true
    },
    {
      "inputs": [],
      "name": "owner",
      "outputs": [
        {
          "internalType": "address",
          "name": "",
          "type": "address"
        }
      ],
      "stateMutability": "view",
      "type": "function",
      "constant": true
    },
    {
      "inputs": [],
      "name": "symbol",
      "outputs": [
        {
          "internalType": "string",
          "name": "",
          "type": "string"
        }
      ],
      "stateMutability": "view",
      "type": "function",
      "constant": true
    },
    {
      "inputs": [],
      "name": "totalSupply",
      "outputs": [
        {
          "internalType": "uint256",
          "name": "",
          "type": "uint256"
        }
      ],
      "stateMutability": "view",
      "type": "function",
      "constant": true
    },
    {
      "inputs": [
        {
          "internalType": "address",
          "name": "_recipient",
          "type": "address"
        },
        {
          "internalType": "uint256",
          "name": "_amount",
          "type": "uint256"
        }
      ],
      "name": "transfer",
      "outputs": [],
      "stateMutability": "nonpayable",
      "type": "function"
    },
    {
      "inputs": [
        {
          "internalType": "address",
          "name": "_sender",
          "type": "address"
        },
        {
          "internalType": "address",
          "name": "_recipient",
          "type": "address"
        },
        {
          "internalType": "uint256",
          "name": "_amount",
          "type": "uint256"
        }
      ],
      "name": "transferFrom",
      "outputs": [],
      "stateMutability": "nonpayable",
      "type": "function"
    },
    {
      "stateMutability": "payable",
      "type": "receive",
      "payable": true
    },
    {
      "inputs": [],
      "name": "getFruitInitList",
      "outputs": [
        {
          "internalType": "string[]",
          "name": "",
          "type": "string[]"
        }
      ],
      "stateMutability": "view",
      "type": "function",
      "constant": true
    },
    {
      "inputs": [],
      "name": "transferEthToFrt",
      "outputs": [],
      "stateMutability": "payable",
      "type": "function",
      "payable": true
    },
    {
      "inputs": [
        {
          "internalType": "uint256",
          "name": "_amount",
          "type": "uint256"
        }
      ],
      "name": "transferFrtToEth",
      "outputs": [],
      "stateMutability": "payable",
      "type": "function",
      "payable": true
    },
    {
      "inputs": [
        {
          "internalType": "string",
          "name": "_name",
          "type": "string"
        }
      ],
      "name": "getFruitShop",
      "outputs": [
        {
          "components": [
            {
              "internalType": "uint256",
              "name": "num",
              "type": "uint256"
            },
            {
              "internalType": "uint256",
              "name": "price",
              "type": "uint256"
            }
          ],
          "internalType": "struct FruitShop.FruitInfo",
          "name": "",
          "type": "tuple"
        }
      ],
      "stateMutability": "view",
      "type": "function",
      "constant": true
    },
    {
      "inputs": [
        {
          "internalType": "string",
          "name": "_name",
          "type": "string"
        },
        {
          "internalType": "uint256",
          "name": "_amount",
          "type": "uint256"
        }
      ],
      "name": "buyFruitsByETH",
      "outputs": [
        {
          "internalType": "uint256",
          "name": "",
          "type": "uint256"
        }
      ],
      "stateMutability": "payable",
      "type": "function",
      "payable": true
    },
    {
      "inputs": [
        {
          "internalType": "string",
          "name": "_name",
          "type": "string"
        },
        {
          "internalType": "uint256",
          "name": "_amount",
          "type": "uint256"
        }
      ],
      "name": "buyFruitsByFRT",
      "outputs": [
        {
          "internalType": "uint256",
          "name": "",
          "type": "uint256"
        }
      ],
      "stateMutability": "payable",
      "type": "function",
      "payable": true
    },
    {
      "inputs": [
        {
          "internalType": "string",
          "name": "_typeIs",
          "type": "string"
        }
      ],
      "name": "getFruitTrader",
      "outputs": [
        {
          "internalType": "address[]",
          "name": "",
          "type": "address[]"
        }
      ],
      "stateMutability": "view",
      "type": "function",
      "constant": true
    },
    {
      "inputs": [
        {
          "internalType": "string",
          "name": "_name",
          "type": "string"
        },
        {
          "internalType": "uint256",
          "name": "_price",
          "type": "uint256"
        },
        {
          "internalType": "uint256",
          "name": "_num",
          "type": "uint256"
        },
        {
          "internalType": "string",
          "name": "_typeIs",
          "type": "string"
        },
        {
          "internalType": "string",
          "name": "_unit",
          "type": "string"
        }
      ],
      "name": "registerFruit",
      "outputs": [],
      "stateMutability": "payable",
      "type": "function",
      "payable": true
    },
    {
      "inputs": [
        {
          "internalType": "string",
          "name": "_name",
          "type": "string"
        },
        {
          "internalType": "string",
          "name": "_typeIs",
          "type": "string"
        },
        {
          "internalType": "string",
          "name": "_unit",
          "type": "string"
        }
      ],
      "name": "deleteFruit",
      "outputs": [],
      "stateMutability": "payable",
      "type": "function",
      "payable": true
    },
    {
      "inputs": [
        {
          "internalType": "string",
          "name": "_name",
          "type": "string"
        },
        {
          "internalType": "string",
          "name": "_typeIs",
          "type": "string"
        },
        {
          "internalType": "string",
          "name": "_unit",
          "type": "string"
        }
      ],
      "name": "refund",
      "outputs": [],
      "stateMutability": "payable",
      "type": "function",
      "payable": true
    },
    {
      "inputs": [],
      "name": "getFruitWallet",
      "outputs": [
        {
          "internalType": "uint256[]",
          "name": "",
          "type": "uint256[]"
        }
      ],
      "stateMutability": "view",
      "type": "function",
      "constant": true
    },
    {
      "inputs": [],
      "name": "hasFruit",
      "outputs": [
        {
          "internalType": "string[]",
          "name": "",
          "type": "string[]"
        }
      ],
      "stateMutability": "view",
      "type": "function",
      "constant": true
    },
    {
      "inputs": [
        {
          "internalType": "string",
          "name": "_name",
          "type": "string"
        },
        {
          "internalType": "uint256",
          "name": "_num",
          "type": "uint256"
        },
        {
          "internalType": "string",
          "name": "_typeIs",
          "type": "string"
        },
        {
          "internalType": "address",
          "name": "_seller",
          "type": "address"
        },
        {
          "internalType": "string",
          "name": "_unit",
          "type": "string"
        }
      ],
      "name": "buyFruit",
      "outputs": [],
      "stateMutability": "payable",
      "type": "function",
      "payable": true
    },
    {
      "inputs": [
        {
          "internalType": "string",
          "name": "_name",
          "type": "string"
        },
        {
          "internalType": "uint256",
          "name": "_num",
          "type": "uint256"
        },
        {
          "internalType": "string",
          "name": "_typeIs",
          "type": "string"
        },
        {
          "internalType": "address",
          "name": "_seller",
          "type": "address"
        },
        {
          "internalType": "string",
          "name": "_unit",
          "type": "string"
        }
      ],
      "name": "sellFruit",
      "outputs": [],
      "stateMutability": "payable",
      "type": "function",
      "payable": true
    },
    {
      "inputs": [
        {
          "internalType": "string",
          "name": "_name",
          "type": "string"
        },
        {
          "internalType": "string",
          "name": "_typeIs",
          "type": "string"
        },
        {
          "internalType": "address",
          "name": "_seller",
          "type": "address"
        }
      ],
      "name": "getSellerListETH",
      "outputs": [
        {
          "components": [
            {
              "internalType": "address",
              "name": "owner",
              "type": "address"
            },
            {
              "internalType": "string",
              "name": "name",
              "type": "string"
            },
            {
              "internalType": "uint256",
              "name": "price",
              "type": "uint256"
            },
            {
              "internalType": "uint256",
              "name": "num",
              "type": "uint256"
            },
            {
              "internalType": "string",
              "name": "typeIs",
              "type": "string"
            },
            {
              "internalType": "string",
              "name": "status",
              "type": "string"
            },
            {
              "internalType": "uint256",
              "name": "date",
              "type": "uint256"
            },
            {
              "internalType": "string",
              "name": "unit",
              "type": "string"
            }
          ],
          "internalType": "struct FruitShop.SellFruit",
          "name": "",
          "type": "tuple"
        }
      ],
      "stateMutability": "view",
      "type": "function",
      "constant": true
    },
    {
      "inputs": [
        {
          "internalType": "string",
          "name": "_name",
          "type": "string"
        },
        {
          "internalType": "string",
          "name": "_typeIs",
          "type": "string"
        },
        {
          "internalType": "address",
          "name": "_seller",
          "type": "address"
        }
      ],
      "name": "getSellerListFRT",
      "outputs": [
        {
          "components": [
            {
              "internalType": "address",
              "name": "owner",
              "type": "address"
            },
            {
              "internalType": "string",
              "name": "name",
              "type": "string"
            },
            {
              "internalType": "uint256",
              "name": "price",
              "type": "uint256"
            },
            {
              "internalType": "uint256",
              "name": "num",
              "type": "uint256"
            },
            {
              "internalType": "string",
              "name": "typeIs",
              "type": "string"
            },
            {
              "internalType": "string",
              "name": "status",
              "type": "string"
            },
            {
              "internalType": "uint256",
              "name": "date",
              "type": "uint256"
            },
            {
              "internalType": "string",
              "name": "unit",
              "type": "string"
            }
          ],
          "internalType": "struct FruitShop.SellFruit",
          "name": "",
          "type": "tuple"
        }
      ],
      "stateMutability": "view",
      "type": "function",
      "constant": true
    }
  ],
  "bytecode": "0x6080604052601260025560c86008553480156200001b57600080fd5b50604051620060ef380380620060ef833981810160405281019062000041919062000578565b33600760006101000a81548173ffffffffffffffffffffffffffffffffffffffff021916908373ffffffffffffffffffffffffffffffffffffffff1602179055508660009081620000939190620008aa565b508560019081620000a59190620008aa565b50670de0b6b3a764000081620000bc9190620009c0565b9050836009604051620000cf9062000a66565b908152602001604051809103902060000181905550826009604051620000f59062000acd565b9081526020016040518091039020600001819055508160096040516200011b9062000b34565b9081526020016040518091039020600001819055506003816200013f9190620009c0565b60096040516200014f9062000a66565b908152602001604051809103902060010181905550806009604051620001759062000acd565b908152602001604051809103902060010181905550600281620001999190620009c0565b6009604051620001a99062000b34565b908152602001604051809103902060010181905550600680600181540180825580915050600190039060005260206000200160006040518060400160405280600681526020017f636172726f74000000000000000000000000000000000000000000000000000081525090919091509081620002269190620008aa565b50600680600181540180825580915050600190039060005260206000200160006040518060400160405280600581526020017f6c656d6f6e000000000000000000000000000000000000000000000000000000815250909190915090816200028f9190620008aa565b50600680600181540180825580915050600190039060005260206000200160006040518060400160405280600b81526020017f6170706c652d77686f6c6500000000000000000000000000000000000000000081525090919091509081620002f89190620008aa565b5062000327600254600a6200030e919062000c9f565b866200031b9190620009c0565b6200033460201b60201c565b5050505050505062000d2b565b80600460003373ffffffffffffffffffffffffffffffffffffffff1673ffffffffffffffffffffffffffffffffffffffff168152602001908152602001600020600082825462000385919062000cf0565b925050819055508060036000828254620003a0919062000cf0565b9250508190555050565b6000604051905090565b600080fd5b600080fd5b600080fd5b600080fd5b6000601f19601f8301169050919050565b7f4e487b7100000000000000000000000000000000000000000000000000000000600052604160045260246000fd5b6200041382620003c8565b810181811067ffffffffffffffff82111715620004355762000434620003d9565b5b80604052505050565b60006200044a620003aa565b905062000458828262000408565b919050565b600067ffffffffffffffff8211156200047b576200047a620003d9565b5b6200048682620003c8565b9050602081019050919050565b60005b83811015620004b357808201518184015260208101905062000496565b60008484015250505050565b6000620004d6620004d0846200045d565b6200043e565b905082815260208101848484011115620004f557620004f4620003c3565b5b6200050284828562000493565b509392505050565b600082601f830112620005225762000521620003be565b5b815162000534848260208601620004bf565b91505092915050565b6000819050919050565b62000552816200053d565b81146200055e57600080fd5b50565b600081519050620005728162000547565b92915050565b600080600080600080600060e0888a0312156200059a5762000599620003b4565b5b600088015167ffffffffffffffff811115620005bb57620005ba620003b9565b5b620005c98a828b016200050a565b975050602088015167ffffffffffffffff811115620005ed57620005ec620003b9565b5b620005fb8a828b016200050a565b96505060406200060e8a828b0162000561565b9550506060620006218a828b0162000561565b9450506080620006348a828b0162000561565b93505060a0620006478a828b0162000561565b92505060c06200065a8a828b0162000561565b91505092959891949750929550565b600081519050919050565b7f4e487b7100000000000000000000000000000000000000000000000000000000600052602260045260246000fd5b60006002820490506001821680620006bc57607f821691505b602082108103620006d257620006d162000674565b5b50919050565b60008190508160005260206000209050919050565b60006020601f8301049050919050565b600082821b905092915050565b6000600883026200073c7fffffffffffffffffffffffffffffffffffffffffffffffffffffffffffffffff82620006fd565b620007488683620006fd565b95508019841693508086168417925050509392505050565b6000819050919050565b60006200078b620007856200077f846200053d565b62000760565b6200053d565b9050919050565b6000819050919050565b620007a7836200076a565b620007bf620007b68262000792565b8484546200070a565b825550505050565b600090565b620007d6620007c7565b620007e38184846200079c565b505050565b5b818110156200080b57620007ff600082620007cc565b600181019050620007e9565b5050565b601f8211156200085a576200082481620006d8565b6200082f84620006ed565b810160208510156200083f578190505b620008576200084e85620006ed565b830182620007e8565b50505b505050565b600082821c905092915050565b60006200087f600019846008026200085f565b1980831691505092915050565b60006200089a83836200086c565b9150826002028217905092915050565b620008b58262000669565b67ffffffffffffffff811115620008d157620008d0620003d9565b5b620008dd8254620006a3565b620008ea8282856200080f565b600060209050601f8311600181146200092257600084156200090d578287015190505b6200091985826200088c565b86555062000989565b601f1984166200093286620006d8565b60005b828110156200095c5784890151825560018201915060208501945060208101905062000935565b868310156200097c578489015162000978601f8916826200086c565b8355505b6001600288020188555050505b505050505050565b7f4e487b7100000000000000000000000000000000000000000000000000000000600052601160045260246000fd5b6000620009cd826200053d565b9150620009da836200053d565b9250828202620009ea816200053d565b9150828204841483151762000a045762000a0362000991565b5b5092915050565b600081905092915050565b7f636172726f740000000000000000000000000000000000000000000000000000600082015250565b600062000a4e60068362000a0b565b915062000a5b8262000a16565b600682019050919050565b600062000a738262000a3f565b9150819050919050565b7f6170706c652d77686f6c65000000000000000000000000000000000000000000600082015250565b600062000ab5600b8362000a0b565b915062000ac28262000a7d565b600b82019050919050565b600062000ada8262000aa6565b9150819050919050565b7f6c656d6f6e000000000000000000000000000000000000000000000000000000600082015250565b600062000b1c60058362000a0b565b915062000b298262000ae4565b600582019050919050565b600062000b418262000b0d565b9150819050919050565b60008160011c9050919050565b6000808291508390505b600185111562000baa5780860481111562000b825762000b8162000991565b5b600185161562000b925780820291505b808102905062000ba28562000b4b565b945062000b62565b94509492505050565b60008262000bc5576001905062000c98565b8162000bd5576000905062000c98565b816001811462000bee576002811462000bf95762000c2f565b600191505062000c98565b60ff84111562000c0e5762000c0d62000991565b5b8360020a91508482111562000c285762000c2762000991565b5b5062000c98565b5060208310610133831016604e8410600b841016171562000c695782820a90508381111562000c635762000c6262000991565b5b62000c98565b62000c78848484600162000b58565b9250905081840481111562000c925762000c9162000991565b5b81810290505b9392505050565b600062000cac826200053d565b915062000cb9836200053d565b925062000ce87fffffffffffffffffffffffffffffffffffffffffffffffffffffffffffffffff848462000bb3565b905092915050565b600062000cfd826200053d565b915062000d0a836200053d565b925082820190508082111562000d255762000d2462000991565b5b92915050565b6153b48062000d3b6000396000f3fe6080604052600436106101c65760003560e01c806395d89b41116100f7578063b97dfaca11610095578063d1bf410111610064578063d1bf41011461079d578063dd62ed3e146107da578063deeaaca614610817578063e053e3491461083357610387565b8063b97dfaca1461070a578063c1c3c03014610735578063cc79b96614610751578063d0cb477e1461078157610387565b8063ab696fbe116100d1578063ab696fbe14610679578063b04fa18e14610695578063b14073ea146106b1578063b3ae79db146106ee57610387565b806395d89b41146105fa578063a4f9b0e414610625578063a9059cbb1461065057610387565b806331b0a2c611610164578063433ae9341161013e578063433ae9341461055857806364b902941461058857806370a08231146105925780638da5cb5b146105cf57610387565b806331b0a2c6146104c75780633aaa1991146104f257806342966c681461052f57610387565b806318160ddd116101a057806318160ddd1461040b57806323b872dd1461043657806327e235e31461045f578063313ce5671461049c57610387565b806306fdde031461038c578063083a6862146103b7578063095ea7b3146103e257610387565b3661038757600034036101d857600080fd5b6000600854346101e89190613cf2565b90508060046000600760009054906101000a900473ffffffffffffffffffffffffffffffffffffffff1673ffffffffffffffffffffffffffffffffffffffff1673ffffffffffffffffffffffffffffffffffffffff16815260200190815260200160002054101561025857600080fd5b8060046000600760009054906101000a900473ffffffffffffffffffffffffffffffffffffffff1673ffffffffffffffffffffffffffffffffffffffff1673ffffffffffffffffffffffffffffffffffffffff16815260200190815260200160002060008282546102c99190613d34565b9250508190555080600460003373ffffffffffffffffffffffffffffffffffffffff1673ffffffffffffffffffffffffffffffffffffffff168152602001908152602001600020600082825461031f9190613d68565b92505081905550600760009054906101000a900473ffffffffffffffffffffffffffffffffffffffff1673ffffffffffffffffffffffffffffffffffffffff163373ffffffffffffffffffffffffffffffffffffffff16036103855761038481610870565b5b005b600080fd5b34801561039857600080fd5b506103a16108e2565b6040516103ae9190613e2c565b60405180910390f35b3480156103c357600080fd5b506103cc610970565b6040516103d99190613f5a565b60405180910390f35b3480156103ee57600080fd5b506104096004803603810190610404919061401a565b610a49565b005b34801561041757600080fd5b50610420610ace565b60405161042d9190614069565b60405180910390f35b34801561044257600080fd5b5061045d60048036038101906104589190614084565b610ad4565b005b34801561046b57600080fd5b50610486600480360381019061048191906140d7565b610ca1565b6040516104939190614069565b60405180910390f35b3480156104a857600080fd5b506104b1610cb9565b6040516104be9190614069565b60405180910390f35b3480156104d357600080fd5b506104dc610cbf565b6040516104e99190614069565b60405180910390f35b3480156104fe57600080fd5b5061051960048036038101906105149190614239565b610cc5565b60405161052691906143a7565b60405180910390f35b34801561053b57600080fd5b50610556600480360381019061055191906143c9565b61102f565b005b610572600480360381019061056d91906143f6565b6110a1565b60405161057f9190614069565b60405180910390f35b610590611430565b005b34801561059e57600080fd5b506105b960048036038101906105b491906140d7565b61158e565b6040516105c69190614069565b60405180910390f35b3480156105db57600080fd5b506105e46115d7565b6040516105f19190614461565b60405180910390f35b34801561060657600080fd5b5061060f6115fd565b60405161061c9190613e2c565b60405180910390f35b34801561063157600080fd5b5061063a61168b565b6040516106479190613f5a565b60405180910390f35b34801561065c57600080fd5b506106776004803603810190610672919061401a565b6117a1565b005b610693600480360381019061068e91906143c9565b611851565b005b6106af60048036038101906106aa919061447c565b61199e565b005b3480156106bd57600080fd5b506106d860048036038101906106d39190614239565b61202a565b6040516106e591906143a7565b60405180910390f35b6107086004803603810190610703919061454b565b612394565b005b34801561071657600080fd5b5061071f612d6d565b60405161072c91906146c9565b60405180910390f35b61074f600480360381019061074a91906146eb565b612f02565b005b61076b600480360381019061076691906143f6565b613148565b6040516107789190614069565b60405180910390f35b61079b6004803603810190610796919061447c565b61359f565b005b3480156107a957600080fd5b506107c460048036038101906107bf9190614792565b61399e565b6040516107d1919061480a565b60405180910390f35b3480156107e657600080fd5b5061080160048036038101906107fc9190614825565b6139ea565b60405161080e9190614069565b60405180910390f35b610831600480360381019061082c91906146eb565b613a0f565b005b34801561083f57600080fd5b5061085a60048036038101906108559190614792565b613b98565b6040516108679190614914565b60405180910390f35b80600460003373ffffffffffffffffffffffffffffffffffffffff1673ffffffffffffffffffffffffffffffffffffffff16815260200190815260200160002060008282546108bf9190613d68565b9250508190555080600360008282546108d89190613d68565b9250508190555050565b600080546108ef90614965565b80601f016020809104026020016040519081016040528092919081815260200182805461091b90614965565b80156109685780601f1061093d57610100808354040283529160200191610968565b820191906000526020600020905b81548152906001019060200180831161094b57829003601f168201915b505050505081565b60606006805480602002602001604051908101604052809291908181526020016000905b82821015610a405783829060005260206000200180546109b390614965565b80601f01602080910402602001604051908101604052809291908181526020018280546109df90614965565b8015610a2c5780601f10610a0157610100808354040283529160200191610a2c565b820191906000526020600020905b815481529060010190602001808311610a0f57829003601f168201915b505050505081526020019060010190610994565b50505050905090565b80600560003373ffffffffffffffffffffffffffffffffffffffff1673ffffffffffffffffffffffffffffffffffffffff16815260200190815260200160002060008473ffffffffffffffffffffffffffffffffffffffff1673ffffffffffffffffffffffffffffffffffffffff168152602001908152602001600020819055505050565b60035481565b80600560008573ffffffffffffffffffffffffffffffffffffffff1673ffffffffffffffffffffffffffffffffffffffff16815260200190815260200160002060003373ffffffffffffffffffffffffffffffffffffffff1673ffffffffffffffffffffffffffffffffffffffff168152602001908152602001600020541015610b5d57600080fd5b80600560008573ffffffffffffffffffffffffffffffffffffffff1673ffffffffffffffffffffffffffffffffffffffff16815260200190815260200160002060003373ffffffffffffffffffffffffffffffffffffffff1673ffffffffffffffffffffffffffffffffffffffff1681526020019081526020016000206000828254610be99190613d34565b9250508190555080600460008573ffffffffffffffffffffffffffffffffffffffff1673ffffffffffffffffffffffffffffffffffffffff1681526020019081526020016000206000828254610c3f9190613d34565b9250508190555080600460008473ffffffffffffffffffffffffffffffffffffffff1673ffffffffffffffffffffffffffffffffffffffff1681526020019081526020016000206000828254610c959190613d68565b92505081905550505050565b60046020528060005260406000206000915090505481565b60025481565b60085481565b610ccd613c44565b600b84604051610cdd91906149d2565b908152602001604051809103902083604051610cf991906149d2565b9081526020016040518091039020604051610d1390614a35565b908152602001604051809103902060008373ffffffffffffffffffffffffffffffffffffffff1673ffffffffffffffffffffffffffffffffffffffff168152602001908152602001600020604051806101000160405290816000820160009054906101000a900473ffffffffffffffffffffffffffffffffffffffff1673ffffffffffffffffffffffffffffffffffffffff1673ffffffffffffffffffffffffffffffffffffffff168152602001600182018054610dd090614965565b80601f0160208091040260200160405190810160405280929190818152602001828054610dfc90614965565b8015610e495780601f10610e1e57610100808354040283529160200191610e49565b820191906000526020600020905b815481529060010190602001808311610e2c57829003601f168201915b505050505081526020016002820154815260200160038201548152602001600482018054610e7690614965565b80601f0160208091040260200160405190810160405280929190818152602001828054610ea290614965565b8015610eef5780601f10610ec457610100808354040283529160200191610eef565b820191906000526020600020905b815481529060010190602001808311610ed257829003601f168201915b50505050508152602001600582018054610f0890614965565b80601f0160208091040260200160405190810160405280929190818152602001828054610f3490614965565b8015610f815780601f10610f5657610100808354040283529160200191610f81565b820191906000526020600020905b815481529060010190602001808311610f6457829003601f168201915b5050505050815260200160068201548152602001600782018054610fa490614965565b80601f0160208091040260200160405190810160405280929190818152602001828054610fd090614965565b801561101d5780601f10610ff25761010080835404028352916020019161101d565b820191906000526020600020905b81548152906001019060200180831161100057829003601f168201915b50505050508152505090509392505050565b80600460003373ffffffffffffffffffffffffffffffffffffffff1673ffffffffffffffffffffffffffffffffffffffff168152602001908152602001600020600082825461107e9190613d34565b9250508190555080600360008282546110979190613d34565b9250508190555050565b6000816009846040516110b491906149d2565b90815260200160405180910390206000015410156110d157600080fd5b816009846040516110e291906149d2565b908152602001604051809103902060000160008282546111029190613d34565b925050819055506000805b600d60003373ffffffffffffffffffffffffffffffffffffffff1673ffffffffffffffffffffffffffffffffffffffff1681526020019081526020016000208054905081101561121c57846040516020016111689190613e2c565b60405160208183030381529060405280519060200120600d60003373ffffffffffffffffffffffffffffffffffffffff1673ffffffffffffffffffffffffffffffffffffffff16815260200190815260200160002082815481106111cf576111ce614a4a565b5b906000526020600020016040516020016111e99190614b12565b604051602081830303815290604052805190602001200361120957600191505b808061121490614b34565b91505061110d565b50801561129d5782600c60003373ffffffffffffffffffffffffffffffffffffffff1673ffffffffffffffffffffffffffffffffffffffff1681526020019081526020016000206000018560405161127491906149d2565b908152602001604051809103902060008282546112919190613d68565b92505081905550611373565b600d60003373ffffffffffffffffffffffffffffffffffffffff1673ffffffffffffffffffffffffffffffffffffffff1681526020019081526020016000208490806001815401808255809150506001900390600052602060002001600090919091909150908161130e9190614d13565b5082600c60003373ffffffffffffffffffffffffffffffffffffffff1673ffffffffffffffffffffffffffffffffffffffff1681526020019081526020016000206000018560405161136091906149d2565b9081526020016040518091039020819055505b7f7433822cf3d2ccdb641ea84f173c2e4c5138f85826166152360d7de95ba632d53360008686670de0b6b3a7640000346113ad9190614e14565b426040516113c096959493929190614e68565b60405180910390a1600c60003373ffffffffffffffffffffffffffffffffffffffff1673ffffffffffffffffffffffffffffffffffffffff1681526020019081526020016000206000018460405161141891906149d2565b90815260200160405180910390205491505092915050565b6000340361143d57600080fd5b60006008543461144d9190613cf2565b90508060046000600760009054906101000a900473ffffffffffffffffffffffffffffffffffffffff1673ffffffffffffffffffffffffffffffffffffffff1673ffffffffffffffffffffffffffffffffffffffff1681526020019081526020016000205410156114bd57600080fd5b8060046000600760009054906101000a900473ffffffffffffffffffffffffffffffffffffffff1673ffffffffffffffffffffffffffffffffffffffff1673ffffffffffffffffffffffffffffffffffffffff168152602001908152602001600020600082825461152e9190613d34565b9250508190555080600460003373ffffffffffffffffffffffffffffffffffffffff1673ffffffffffffffffffffffffffffffffffffffff16815260200190815260200160002060008282546115849190613d68565b9250508190555050565b6000600460008373ffffffffffffffffffffffffffffffffffffffff1673ffffffffffffffffffffffffffffffffffffffff168152602001908152602001600020549050919050565b600760009054906101000a900473ffffffffffffffffffffffffffffffffffffffff1681565b6001805461160a90614965565b80601f016020809104026020016040519081016040528092919081815260200182805461163690614965565b80156116835780601f1061165857610100808354040283529160200191611683565b820191906000526020600020905b81548152906001019060200180831161166657829003601f168201915b505050505081565b6060600d60003373ffffffffffffffffffffffffffffffffffffffff1673ffffffffffffffffffffffffffffffffffffffff168152602001908152602001600020805480602002602001604051908101604052809291908181526020016000905b8282101561179857838290600052602060002001805461170b90614965565b80601f016020809104026020016040519081016040528092919081815260200182805461173790614965565b80156117845780601f1061175957610100808354040283529160200191611784565b820191906000526020600020905b81548152906001019060200180831161176757829003601f168201915b5050505050815260200190600101906116ec565b50505050905090565b80600460003373ffffffffffffffffffffffffffffffffffffffff1673ffffffffffffffffffffffffffffffffffffffff16815260200190815260200160002060008282546117f09190613d34565b9250508190555080600460008473ffffffffffffffffffffffffffffffffffffffff1673ffffffffffffffffffffffffffffffffffffffff16815260200190815260200160002060008282546118469190613d68565b925050819055505050565b6000810361185e57600080fd5b600254600a61186d9190615016565b816118789190613cf2565b90508060046000600760009054906101000a900473ffffffffffffffffffffffffffffffffffffffff1673ffffffffffffffffffffffffffffffffffffffff1673ffffffffffffffffffffffffffffffffffffffff16815260200190815260200160002060008282546118eb9190613d68565b9250508190555080600460003373ffffffffffffffffffffffffffffffffffffffff1673ffffffffffffffffffffffffffffffffffffffff16815260200190815260200160002060008282546119419190613d34565b925050819055503373ffffffffffffffffffffffffffffffffffffffff166108fc60c88361196f9190614e14565b9081150290604051600060405180830381858888f1935050505015801561199a573d6000803e3d6000fd5b5050565b6000805b600d60003373ffffffffffffffffffffffffffffffffffffffff1673ffffffffffffffffffffffffffffffffffffffff16815260200190815260200160002080549050811015611ab157866040516020016119fd9190613e2c565b60405160208183030381529060405280519060200120600d60003373ffffffffffffffffffffffffffffffffffffffff1673ffffffffffffffffffffffffffffffffffffffff1681526020019081526020016000208281548110611a6457611a63614a4a565b5b90600052602060002001604051602001611a7e9190614b12565b6040516020818303038152906040528051906020012003611a9e57600191505b8080611aa990614b34565b9150506119a2565b508015611b325784600c60003373ffffffffffffffffffffffffffffffffffffffff1673ffffffffffffffffffffffffffffffffffffffff16815260200190815260200160002060000187604051611b0991906149d2565b90815260200160405180910390206000828254611b269190613d68565b92505081905550611c08565b600d60003373ffffffffffffffffffffffffffffffffffffffff1673ffffffffffffffffffffffffffffffffffffffff16815260200190815260200160002086908060018154018082558091505060019003906000526020600020016000909190919091509081611ba39190614d13565b5084600c60003373ffffffffffffffffffffffffffffffffffffffff1673ffffffffffffffffffffffffffffffffffffffff16815260200190815260200160002060000187604051611bf591906149d2565b9081526020016040518091039020819055505b84600b87604051611c1991906149d2565b908152602001604051809103902085604051611c3591906149d2565b908152602001604051809103902083604051611c5191906149d2565b908152602001604051809103902060008573ffffffffffffffffffffffffffffffffffffffff1673ffffffffffffffffffffffffffffffffffffffff1681526020019081526020016000206003016000828254611cae9190613d34565b92505081905550600085600b88604051611cc891906149d2565b908152602001604051809103902086604051611ce491906149d2565b908152602001604051809103902084604051611d0091906149d2565b908152602001604051809103902060008673ffffffffffffffffffffffffffffffffffffffff1673ffffffffffffffffffffffffffffffffffffffff16815260200190815260200160002060020154611d599190613cf2565b905060006064605f83611d6c9190613cf2565b611d769190614e14565b9050604051602001611d8790615061565b6040516020818303038152906040528051906020012084604051602001611dae9190613e2c565b6040516020818303038152906040528051906020012003611f1f57600b88604051611dd991906149d2565b908152602001604051809103902086604051611df591906149d2565b908152602001604051809103902084604051611e1191906149d2565b908152602001604051809103902060008673ffffffffffffffffffffffffffffffffffffffff1673ffffffffffffffffffffffffffffffffffffffff16815260200190815260200160002060000160009054906101000a900473ffffffffffffffffffffffffffffffffffffffff1673ffffffffffffffffffffffffffffffffffffffff166108fc829081150290604051600060405180830381858888f19350505050158015611ec5573d6000803e3d6000fd5b507f7433822cf3d2ccdb641ea84f173c2e4c5138f85826166152360d7de95ba632d533868a8a670de0b6b3a764000087611eff9190614e14565b42604051611f1296959493929190614e68565b60405180910390a1612020565b81600460003373ffffffffffffffffffffffffffffffffffffffff1673ffffffffffffffffffffffffffffffffffffffff1681526020019081526020016000206000828254611f6e9190613d34565b9250508190555080600460008773ffffffffffffffffffffffffffffffffffffffff1673ffffffffffffffffffffffffffffffffffffffff1681526020019081526020016000206000828254611fc49190613d68565b925050819055507f1dd6e495fd314fa658f9f799bf41822e2c913a508cf78adc22c482601989d7d933868a8a670de0b6b3a7640000876120049190614e14565b42604051612017969594939291906150cd565b60405180910390a15b5050505050505050565b612032613c44565b600b8460405161204291906149d2565b90815260200160405180910390208360405161205e91906149d2565b90815260200160405180910390206040516120789061516b565b908152602001604051809103902060008373ffffffffffffffffffffffffffffffffffffffff1673ffffffffffffffffffffffffffffffffffffffff168152602001908152602001600020604051806101000160405290816000820160009054906101000a900473ffffffffffffffffffffffffffffffffffffffff1673ffffffffffffffffffffffffffffffffffffffff1673ffffffffffffffffffffffffffffffffffffffff16815260200160018201805461213590614965565b80601f016020809104026020016040519081016040528092919081815260200182805461216190614965565b80156121ae5780601f10612183576101008083540402835291602001916121ae565b820191906000526020600020905b81548152906001019060200180831161219157829003601f168201915b5050505050815260200160028201548152602001600382015481526020016004820180546121db90614965565b80601f016020809104026020016040519081016040528092919081815260200182805461220790614965565b80156122545780601f1061222957610100808354040283529160200191612254565b820191906000526020600020905b81548152906001019060200180831161223757829003601f168201915b5050505050815260200160058201805461226d90614965565b80601f016020809104026020016040519081016040528092919081815260200182805461229990614965565b80156122e65780601f106122bb576101008083540402835291602001916122e6565b820191906000526020600020905b8154815290600101906020018083116122c957829003601f168201915b505050505081526020016006820154815260200160078201805461230990614965565b80601f016020809104026020016040519081016040528092919081815260200182805461233590614965565b80156123825780601f1061235757610100808354040283529160200191612382565b820191906000526020600020905b81548152906001019060200180831161236557829003601f168201915b50505050508152505090509392505050565b600083116123a157600080fd5b6040516020016123b0906151cc565b60405160208183030381529060405280519060200120826040516020016123d79190613e2c565b60405160208183030381529060405280519060200120036124d75782600c60003373ffffffffffffffffffffffffffffffffffffffff1673ffffffffffffffffffffffffffffffffffffffff1681526020019081526020016000206000018660405161244391906149d2565b908152602001604051809103902054101561245d57600080fd5b82600c60003373ffffffffffffffffffffffffffffffffffffffff1673ffffffffffffffffffffffffffffffffffffffff168152602001908152602001600020600001866040516124ae91906149d2565b908152602001604051809103902060008282546124cb9190613d34565b9250508190555061259e565b6040516020016124e6906151ec565b604051602081830303815290604052805190602001208160405160200161250d9190613e2c565b604051602081830303815290604052805190602001200361259d57670de0b6b3a7640000838561253d9190613cf2565b6125479190613cf2565b600460003373ffffffffffffffffffffffffffffffffffffffff1673ffffffffffffffffffffffffffffffffffffffff16815260200190815260200160002060008282546125959190613d34565b925050819055505b5b6040516020016125ad90615258565b60405160208183030381529060405280519060200120600b866040516125d391906149d2565b9081526020016040518091039020836040516125ef91906149d2565b90815260200160405180910390208260405161260b91906149d2565b908152602001604051809103902060003373ffffffffffffffffffffffffffffffffffffffff1673ffffffffffffffffffffffffffffffffffffffff1681526020019081526020016000206005016040516020016126699190614b12565b604051602081830303815290604052805190602001200361268957600080fd5b60006001905060005b600a846040516126a291906149d2565b908152602001604051809103902080549050811015612760573373ffffffffffffffffffffffffffffffffffffffff16600a856040516126e291906149d2565b9081526020016040518091039020828154811061270257612701614a4a565b5b9060005260206000200160009054906101000a900473ffffffffffffffffffffffffffffffffffffffff1673ffffffffffffffffffffffffffffffffffffffff160361274d57600091505b808061275890614b34565b915050612692565b5080156127e757600a8360405161277791906149d2565b9081526020016040518091039020339080600181540180825580915050600190039060005260206000200160009091909190916101000a81548173ffffffffffffffffffffffffffffffffffffffff021916908373ffffffffffffffffffffffffffffffffffffffff1602179055505b33600b876040516127f891906149d2565b90815260200160405180910390208460405161281491906149d2565b90815260200160405180910390208360405161283091906149d2565b908152602001604051809103902060003373ffffffffffffffffffffffffffffffffffffffff1673ffffffffffffffffffffffffffffffffffffffff16815260200190815260200160002060000160006101000a81548173ffffffffffffffffffffffffffffffffffffffff021916908373ffffffffffffffffffffffffffffffffffffffff160217905550670de0b6b3a7640000856128d09190613cf2565b600b876040516128e091906149d2565b9081526020016040518091039020846040516128fc91906149d2565b90815260200160405180910390208360405161291891906149d2565b908152602001604051809103902060003373ffffffffffffffffffffffffffffffffffffffff1673ffffffffffffffffffffffffffffffffffffffff1681526020019081526020016000206002018190555083600b8760405161297b91906149d2565b90815260200160405180910390208460405161299791906149d2565b9081526020016040518091039020836040516129b391906149d2565b908152602001604051809103902060003373ffffffffffffffffffffffffffffffffffffffff1673ffffffffffffffffffffffffffffffffffffffff1681526020019081526020016000206003018190555085600b87604051612a1691906149d2565b908152602001604051809103902084604051612a3291906149d2565b908152602001604051809103902083604051612a4e91906149d2565b908152602001604051809103902060003373ffffffffffffffffffffffffffffffffffffffff1673ffffffffffffffffffffffffffffffffffffffff1681526020019081526020016000206001019081612aa89190614d13565b5082600b87604051612aba91906149d2565b908152602001604051809103902084604051612ad691906149d2565b908152602001604051809103902083604051612af291906149d2565b908152602001604051809103902060003373ffffffffffffffffffffffffffffffffffffffff1673ffffffffffffffffffffffffffffffffffffffff1681526020019081526020016000206004019081612b4c9190614d13565b506040518060400160405280600281526020017f6f6e000000000000000000000000000000000000000000000000000000000000815250600b87604051612b9391906149d2565b908152602001604051809103902084604051612baf91906149d2565b908152602001604051809103902083604051612bcb91906149d2565b908152602001604051809103902060003373ffffffffffffffffffffffffffffffffffffffff1673ffffffffffffffffffffffffffffffffffffffff1681526020019081526020016000206005019081612c259190614d13565b5042600b87604051612c3791906149d2565b908152602001604051809103902084604051612c5391906149d2565b908152602001604051809103902083604051612c6f91906149d2565b908152602001604051809103902060003373ffffffffffffffffffffffffffffffffffffffff1673ffffffffffffffffffffffffffffffffffffffff1681526020019081526020016000206006018190555081600b87604051612cd291906149d2565b908152602001604051809103902084604051612cee91906149d2565b908152602001604051809103902083604051612d0a91906149d2565b908152602001604051809103902060003373ffffffffffffffffffffffffffffffffffffffff1673ffffffffffffffffffffffffffffffffffffffff1681526020019081526020016000206007019081612d649190614d13565b50505050505050565b60606000600d60003373ffffffffffffffffffffffffffffffffffffffff1673ffffffffffffffffffffffffffffffffffffffff16815260200190815260200160002080549050905060008167ffffffffffffffff811115612dd257612dd161410e565b5b604051908082528060200260200182016040528015612e005781602001602082028036833780820191505090505b50905060005b82811015612ef957600c60003373ffffffffffffffffffffffffffffffffffffffff1673ffffffffffffffffffffffffffffffffffffffff168152602001908152602001600020600001600d60003373ffffffffffffffffffffffffffffffffffffffff1673ffffffffffffffffffffffffffffffffffffffff1681526020019081526020016000208281548110612ea157612ea0614a4a565b5b90600052602060002001604051612eb891906152fb565b908152602001604051809103902054828281518110612eda57612ed9614a4a565b5b6020026020010181815250508080612ef190614b34565b915050612e06565b50809250505090565b6040518060400160405280600381526020017f6f66660000000000000000000000000000000000000000000000000000000000815250600b84604051612f4891906149d2565b908152602001604051809103902083604051612f6491906149d2565b908152602001604051809103902082604051612f8091906149d2565b908152602001604051809103902060003373ffffffffffffffffffffffffffffffffffffffff1673ffffffffffffffffffffffffffffffffffffffff1681526020019081526020016000206005019081612fda9190614d13565b50604051602001612fea9061535e565b60405160208183030381529060405280519060200120826040516020016130119190613e2c565b604051602081830303815290604052805190602001200361303857613037838383613a0f565b5b600b8360405161304891906149d2565b90815260200160405180910390208260405161306491906149d2565b90815260200160405180910390208160405161308091906149d2565b908152602001604051809103902060003373ffffffffffffffffffffffffffffffffffffffff1673ffffffffffffffffffffffffffffffffffffffff16815260200190815260200160002060030154600c60003373ffffffffffffffffffffffffffffffffffffffff1673ffffffffffffffffffffffffffffffffffffffff1681526020019081526020016000206000018460405161311f91906149d2565b9081526020016040518091039020600082825461313c9190613d68565b92505081905550505050565b60008160098460405161315b91906149d2565b908152602001604051809103902060000154101561317857600080fd5b60085460098460405161318b91906149d2565b908152602001604051809103902060010154836131a89190613cf2565b6131b29190613cf2565b600460003373ffffffffffffffffffffffffffffffffffffffff1673ffffffffffffffffffffffffffffffffffffffff16815260200190815260200160002060008282546132009190613d34565b925050819055508160098460405161321891906149d2565b908152602001604051809103902060000160008282546132389190613d34565b925050819055506000805b600d60003373ffffffffffffffffffffffffffffffffffffffff1673ffffffffffffffffffffffffffffffffffffffff16815260200190815260200160002080549050811015613352578460405160200161329e9190613e2c565b60405160208183030381529060405280519060200120600d60003373ffffffffffffffffffffffffffffffffffffffff1673ffffffffffffffffffffffffffffffffffffffff168152602001908152602001600020828154811061330557613304614a4a565b5b9060005260206000200160405160200161331f9190614b12565b604051602081830303815290604052805190602001200361333f57600191505b808061334a90614b34565b915050613243565b5080156133d35782600c60003373ffffffffffffffffffffffffffffffffffffffff1673ffffffffffffffffffffffffffffffffffffffff168152602001908152602001600020600001856040516133aa91906149d2565b908152602001604051809103902060008282546133c79190613d68565b925050819055506134a9565b600d60003373ffffffffffffffffffffffffffffffffffffffff1673ffffffffffffffffffffffffffffffffffffffff168152602001908152602001600020849080600181540180825580915050600190039060005260206000200160009091909190915090816134449190614d13565b5082600c60003373ffffffffffffffffffffffffffffffffffffffff1673ffffffffffffffffffffffffffffffffffffffff1681526020019081526020016000206000018560405161349691906149d2565b9081526020016040518091039020819055505b7f1dd6e495fd314fa658f9f799bf41822e2c913a508cf78adc22c482601989d7d93360008686670de0b6b3a764000060085460098b6040516134eb91906149d2565b9081526020016040518091039020600101548a6135089190613cf2565b6135129190613cf2565b61351c9190614e14565b4260405161352f969594939291906150cd565b60405180910390a1600c60003373ffffffffffffffffffffffffffffffffffffffff1673ffffffffffffffffffffffffffffffffffffffff1681526020019081526020016000206000018460405161358791906149d2565b90815260200160405180910390205491505092915050565b83600b866040516135b091906149d2565b9081526020016040518091039020846040516135cc91906149d2565b9081526020016040518091039020826040516135e891906149d2565b908152602001604051809103902060008473ffffffffffffffffffffffffffffffffffffffff1673ffffffffffffffffffffffffffffffffffffffff16815260200190815260200160002060030160008282546136459190613d34565b9250508190555083600c60008473ffffffffffffffffffffffffffffffffffffffff1673ffffffffffffffffffffffffffffffffffffffff1681526020019081526020016000206000018660405161369d91906149d2565b908152602001604051809103902060008282546136ba9190613d68565b9250508190555083600c60003373ffffffffffffffffffffffffffffffffffffffff1673ffffffffffffffffffffffffffffffffffffffff1681526020019081526020016000206000018660405161371291906149d2565b9081526020016040518091039020600082825461372f9190613d34565b92505081905550600084600b8760405161374991906149d2565b90815260200160405180910390208560405161376591906149d2565b90815260200160405180910390208360405161378191906149d2565b908152602001604051809103902060008573ffffffffffffffffffffffffffffffffffffffff1673ffffffffffffffffffffffffffffffffffffffff168152602001908152602001600020600201546137da9190613cf2565b905060006064605f836137ed9190613cf2565b6137f79190614e14565b905060405160200161380890615061565b604051602081830303815290604052805190602001208360405160200161382f9190613e2c565b60405160208183030381529060405280519060200120036138ea573373ffffffffffffffffffffffffffffffffffffffff166108fc829081150290604051600060405180830381858888f19350505050158015613890573d6000803e3d6000fd5b507f7433822cf3d2ccdb641ea84f173c2e4c5138f85826166152360d7de95ba632d584338989670de0b6b3a7640000876138ca9190614e14565b426040516138dd96959493929190614e68565b60405180910390a1613995565b80600460003373ffffffffffffffffffffffffffffffffffffffff1673ffffffffffffffffffffffffffffffffffffffff16815260200190815260200160002060008282546139399190613d68565b925050819055507f1dd6e495fd314fa658f9f799bf41822e2c913a508cf78adc22c482601989d7d933858989670de0b6b3a7640000876139799190614e14565b4260405161398c969594939291906150cd565b60405180910390a15b50505050505050565b6139a6613c9f565b6009826040516139b691906149d2565b9081526020016040518091039020604051806040016040529081600082015481526020016001820154815250509050919050565b6005602052816000526040600020602052806000526040600020600091509150505481565b6000600b84604051613a2191906149d2565b908152602001604051809103902083604051613a3d91906149d2565b908152602001604051809103902082604051613a5991906149d2565b908152602001604051809103902060003373ffffffffffffffffffffffffffffffffffffffff1673ffffffffffffffffffffffffffffffffffffffff16815260200190815260200160002060030154600b85604051613ab891906149d2565b908152602001604051809103902084604051613ad491906149d2565b908152602001604051809103902083604051613af091906149d2565b908152602001604051809103902060003373ffffffffffffffffffffffffffffffffffffffff1673ffffffffffffffffffffffffffffffffffffffff16815260200190815260200160002060020154613b499190613cf2565b90503373ffffffffffffffffffffffffffffffffffffffff166108fc829081150290604051600060405180830381858888f19350505050158015613b91573d6000803e3d6000fd5b5050505050565b6060600a82604051613baa91906149d2565b9081526020016040518091039020805480602002602001604051908101604052809291908181526020018280548015613c3857602002820191906000526020600020905b8160009054906101000a900473ffffffffffffffffffffffffffffffffffffffff1673ffffffffffffffffffffffffffffffffffffffff1681526020019060010190808311613bee575b50505050509050919050565b604051806101000160405280600073ffffffffffffffffffffffffffffffffffffffff168152602001606081526020016000815260200160008152602001606081526020016060815260200160008152602001606081525090565b604051806040016040528060008152602001600081525090565b6000819050919050565b7f4e487b7100000000000000000000000000000000000000000000000000000000600052601160045260246000fd5b6000613cfd82613cb9565b9150613d0883613cb9565b9250828202613d1681613cb9565b91508282048414831517613d2d57613d2c613cc3565b5b5092915050565b6000613d3f82613cb9565b9150613d4a83613cb9565b9250828203905081811115613d6257613d61613cc3565b5b92915050565b6000613d7382613cb9565b9150613d7e83613cb9565b9250828201905080821115613d9657613d95613cc3565b5b92915050565b600081519050919050565b600082825260208201905092915050565b60005b83811015613dd6578082015181840152602081019050613dbb565b60008484015250505050565b6000601f19601f8301169050919050565b6000613dfe82613d9c565b613e088185613da7565b9350613e18818560208601613db8565b613e2181613de2565b840191505092915050565b60006020820190508181036000830152613e468184613df3565b905092915050565b600081519050919050565b600082825260208201905092915050565b6000819050602082019050919050565b600082825260208201905092915050565b6000613e9682613d9c565b613ea08185613e7a565b9350613eb0818560208601613db8565b613eb981613de2565b840191505092915050565b6000613ed08383613e8b565b905092915050565b6000602082019050919050565b6000613ef082613e4e565b613efa8185613e59565b935083602082028501613f0c85613e6a565b8060005b85811015613f485784840389528151613f298582613ec4565b9450613f3483613ed8565b925060208a01995050600181019050613f10565b50829750879550505050505092915050565b60006020820190508181036000830152613f748184613ee5565b905092915050565b6000604051905090565b600080fd5b600080fd5b600073ffffffffffffffffffffffffffffffffffffffff82169050919050565b6000613fbb82613f90565b9050919050565b613fcb81613fb0565b8114613fd657600080fd5b50565b600081359050613fe881613fc2565b92915050565b613ff781613cb9565b811461400257600080fd5b50565b60008135905061401481613fee565b92915050565b6000806040838503121561403157614030613f86565b5b600061403f85828601613fd9565b925050602061405085828601614005565b9150509250929050565b61406381613cb9565b82525050565b600060208201905061407e600083018461405a565b92915050565b60008060006060848603121561409d5761409c613f86565b5b60006140ab86828701613fd9565b93505060206140bc86828701613fd9565b92505060406140cd86828701614005565b9150509250925092565b6000602082840312156140ed576140ec613f86565b5b60006140fb84828501613fd9565b91505092915050565b600080fd5b600080fd5b7f4e487b7100000000000000000000000000000000000000000000000000000000600052604160045260246000fd5b61414682613de2565b810181811067ffffffffffffffff821117156141655761416461410e565b5b80604052505050565b6000614178613f7c565b9050614184828261413d565b919050565b600067ffffffffffffffff8211156141a4576141a361410e565b5b6141ad82613de2565b9050602081019050919050565b82818337600083830152505050565b60006141dc6141d784614189565b61416e565b9050828152602081018484840111156141f8576141f7614109565b5b6142038482856141ba565b509392505050565b600082601f8301126142205761421f614104565b5b81356142308482602086016141c9565b91505092915050565b60008060006060848603121561425257614251613f86565b5b600084013567ffffffffffffffff8111156142705761426f613f8b565b5b61427c8682870161420b565b935050602084013567ffffffffffffffff81111561429d5761429c613f8b565b5b6142a98682870161420b565b92505060406142ba86828701613fd9565b9150509250925092565b6142cd81613fb0565b82525050565b6142dc81613cb9565b82525050565b6000610100830160008301516142fb60008601826142c4565b50602083015184820360208601526143138282613e8b565b915050604083015161432860408601826142d3565b50606083015161433b60608601826142d3565b50608083015184820360808601526143538282613e8b565b91505060a083015184820360a086015261436d8282613e8b565b91505060c083015161438260c08601826142d3565b5060e083015184820360e086015261439a8282613e8b565b9150508091505092915050565b600060208201905081810360008301526143c181846142e2565b905092915050565b6000602082840312156143df576143de613f86565b5b60006143ed84828501614005565b91505092915050565b6000806040838503121561440d5761440c613f86565b5b600083013567ffffffffffffffff81111561442b5761442a613f8b565b5b6144378582860161420b565b925050602061444885828601614005565b9150509250929050565b61445b81613fb0565b82525050565b60006020820190506144766000830184614452565b92915050565b600080600080600060a0868803121561449857614497613f86565b5b600086013567ffffffffffffffff8111156144b6576144b5613f8b565b5b6144c28882890161420b565b95505060206144d388828901614005565b945050604086013567ffffffffffffffff8111156144f4576144f3613f8b565b5b6145008882890161420b565b935050606061451188828901613fd9565b925050608086013567ffffffffffffffff81111561453257614531613f8b565b5b61453e8882890161420b565b9150509295509295909350565b600080600080600060a0868803121561456757614566613f86565b5b600086013567ffffffffffffffff81111561458557614584613f8b565b5b6145918882890161420b565b95505060206145a288828901614005565b94505060406145b388828901614005565b935050606086013567ffffffffffffffff8111156145d4576145d3613f8b565b5b6145e08882890161420b565b925050608086013567ffffffffffffffff81111561460157614600613f8b565b5b61460d8882890161420b565b9150509295509295909350565b600081519050919050565b600082825260208201905092915050565b6000819050602082019050919050565b600061465283836142d3565b60208301905092915050565b6000602082019050919050565b60006146768261461a565b6146808185614625565b935061468b83614636565b8060005b838110156146bc5781516146a38882614646565b97506146ae8361465e565b92505060018101905061468f565b5085935050505092915050565b600060208201905081810360008301526146e3818461466b565b905092915050565b60008060006060848603121561470457614703613f86565b5b600084013567ffffffffffffffff81111561472257614721613f8b565b5b61472e8682870161420b565b935050602084013567ffffffffffffffff81111561474f5761474e613f8b565b5b61475b8682870161420b565b925050604084013567ffffffffffffffff81111561477c5761477b613f8b565b5b6147888682870161420b565b9150509250925092565b6000602082840312156147a8576147a7613f86565b5b600082013567ffffffffffffffff8111156147c6576147c5613f8b565b5b6147d28482850161420b565b91505092915050565b6040820160008201516147f160008501826142d3565b50602082015161480460208501826142d3565b50505050565b600060408201905061481f60008301846147db565b92915050565b6000806040838503121561483c5761483b613f86565b5b600061484a85828601613fd9565b925050602061485b85828601613fd9565b9150509250929050565b600081519050919050565b600082825260208201905092915050565b6000819050602082019050919050565b600061489d83836142c4565b60208301905092915050565b6000602082019050919050565b60006148c182614865565b6148cb8185614870565b93506148d683614881565b8060005b838110156149075781516148ee8882614891565b97506148f9836148a9565b9250506001810190506148da565b5085935050505092915050565b6000602082019050818103600083015261492e81846148b6565b905092915050565b7f4e487b7100000000000000000000000000000000000000000000000000000000600052602260045260246000fd5b6000600282049050600182168061497d57607f821691505b6020821081036149905761498f614936565b5b50919050565b600081905092915050565b60006149ac82613d9c565b6149b68185614996565b93506149c6818560208601613db8565b80840191505092915050565b60006149de82846149a1565b915081905092915050565b7f4554480000000000000000000000000000000000000000000000000000000000600082015250565b6000614a1f600383614996565b9150614a2a826149e9565b600382019050919050565b6000614a4082614a12565b9150819050919050565b7f4e487b7100000000000000000000000000000000000000000000000000000000600052603260045260246000fd5b60008190508160005260206000209050919050565b60008154614a9b81614965565b614aa58186613da7565b94506001821660008114614ac05760018114614ad657614b09565b60ff198316865281151560200286019350614b09565b614adf85614a79565b60005b83811015614b0157815481890152600182019150602081019050614ae2565b808801955050505b50505092915050565b60006020820190508181036000830152614b2c8184614a8e565b905092915050565b6000614b3f82613cb9565b91507fffffffffffffffffffffffffffffffffffffffffffffffffffffffffffffffff8203614b7157614b70613cc3565b5b600182019050919050565b60006020601f8301049050919050565b600082821b905092915050565b600060088302614bc97fffffffffffffffffffffffffffffffffffffffffffffffffffffffffffffffff82614b8c565b614bd38683614b8c565b95508019841693508086168417925050509392505050565b6000819050919050565b6000614c10614c0b614c0684613cb9565b614beb565b613cb9565b9050919050565b6000819050919050565b614c2a83614bf5565b614c3e614c3682614c17565b848454614b99565b825550505050565b600090565b614c53614c46565b614c5e818484614c21565b505050565b5b81811015614c8257614c77600082614c4b565b600181019050614c64565b5050565b601f821115614cc757614c9881614a79565b614ca184614b7c565b81016020851015614cb0578190505b614cc4614cbc85614b7c565b830182614c63565b50505b505050565b600082821c905092915050565b6000614cea60001984600802614ccc565b1980831691505092915050565b6000614d038383614cd9565b9150826002028217905092915050565b614d1c82613d9c565b67ffffffffffffffff811115614d3557614d3461410e565b5b614d3f8254614965565b614d4a828285614c86565b600060209050601f831160018114614d7d5760008415614d6b578287015190505b614d758582614cf7565b865550614ddd565b601f198416614d8b86614a79565b60005b82811015614db357848901518255600182019150602085019450602081019050614d8e565b86831015614dd05784890151614dcc601f891682614cd9565b8355505b6001600288020188555050505b505050505050565b7f4e487b7100000000000000000000000000000000000000000000000000000000600052601260045260246000fd5b6000614e1f82613cb9565b9150614e2a83613cb9565b925082614e3a57614e39614de5565b5b828204905092915050565b6000614e52600383613da7565b9150614e5d826149e9565b602082019050919050565b600060e082019050614e7d6000830189614452565b614e8a6020830188614452565b8181036040830152614e9c8187613df3565b9050614eab606083018661405a565b614eb8608083018561405a565b614ec560a083018461405a565b81810360c0830152614ed681614e45565b9050979650505050505050565b60008160011c9050919050565b6000808291508390505b6001851115614f3a57808604811115614f1657614f15613cc3565b5b6001851615614f255780820291505b8081029050614f3385614ee3565b9450614efa565b94509492505050565b600082614f53576001905061500f565b81614f61576000905061500f565b8160018114614f775760028114614f8157614fb0565b600191505061500f565b60ff841115614f9357614f92613cc3565b5b8360020a915084821115614faa57614fa9613cc3565b5b5061500f565b5060208310610133831016604e8410600b8410161715614fe55782820a905083811115614fe057614fdf613cc3565b5b61500f565b614ff28484846001614ef0565b9250905081840481111561500957615008613cc3565b5b81810290505b9392505050565b600061502182613cb9565b915061502c83613cb9565b92506150597fffffffffffffffffffffffffffffffffffffffffffffffffffffffffffffffff8484614f43565b905092915050565b6000602082019050818103600083015261507a81614e45565b9050919050565b7f4652540000000000000000000000000000000000000000000000000000000000600082015250565b60006150b7600383613da7565b91506150c282615081565b602082019050919050565b600060e0820190506150e26000830189614452565b6150ef6020830188614452565b81810360408301526151018187613df3565b9050615110606083018661405a565b61511d608083018561405a565b61512a60a083018461405a565b81810360c083015261513b816150aa565b9050979650505050505050565b6000615155600383614996565b915061516082615081565b600382019050919050565b600061517682615148565b9150819050919050565b7f53454c4c00000000000000000000000000000000000000000000000000000000600082015250565b60006151b6600483613da7565b91506151c182615180565b602082019050919050565b600060208201905081810360008301526151e5816151a9565b9050919050565b60006020820190508181036000830152615205816150aa565b9050919050565b7f6f6e000000000000000000000000000000000000000000000000000000000000600082015250565b6000615242600283613da7565b915061524d8261520c565b602082019050919050565b6000602082019050818103600083015261527181615235565b9050919050565b6000815461528581614965565b61528f8186614996565b945060018216600081146152aa57600181146152bf576152f2565b60ff19831686528115158202860193506152f2565b6152c885614a79565b60005b838110156152ea578154818901526001820191506020810190506152cb565b838801955050505b50505092915050565b60006153078284615278565b915081905092915050565b7f4255590000000000000000000000000000000000000000000000000000000000600082015250565b6000615348600383613da7565b915061535382615312565b602082019050919050565b600060208201905081810360008301526153778161533b565b905091905056fea2646970667358221220959ddd2b3f071d4e26fa9786daeac3928394953193b2f3015daca39db3d11c4d64736f6c63430008110033",
  "immutableReferences": {},
  "source": "// SPDX-License-Identifier: MIT\r\npragma solidity ^0.8.17;\r\n\r\nimport './FRT.sol';\r\n\r\ncontract FruitShop is FRT{\r\n    // \r\n    string[] fruitInitList;\r\n    // FRT Token  \r\n    address public owner;\r\n    // 1 200\r\n    uint public ethCanBuy = 200;\r\n    constructor(string memory _name, string memory _symbol, uint _amount,uint _carrot, uint _apple, uint _lemon, uint _initPrice){\r\n        //   \r\n        owner = msg.sender;\r\n        name = _name;\r\n        symbol = _symbol;\r\n\r\n        _initPrice *= 10**18;\r\n        //   \r\n        fruitInit[\"carrot\"].num = _carrot;\r\n        fruitInit[\"apple-whole\"].num = _apple;\r\n        fruitInit[\"lemon\"].num = _lemon;\r\n        fruitInit[\"carrot\"].price = _initPrice * 3;\r\n        fruitInit[\"apple-whole\"].price = _initPrice;\r\n        fruitInit[\"lemon\"].price = _initPrice * 2;\r\n        fruitInitList.push(\"carrot\");\r\n        fruitInitList.push(\"lemon\");\r\n        fruitInitList.push(\"apple-whole\");\r\n        mint(_amount * (10 ** uint(decimals)));\r\n    }\r\n\r\n    //  get\r\n    function getFruitInitList() view public returns(string[] memory){\r\n        return fruitInitList;\r\n    }\r\n    //  frt \r\n    // CA Eth  \r\n    receive() external payable{\r\n        require(msg.value != 0);\r\n        uint _amount = msg.value * ethCanBuy;\r\n\r\n        require(balances[owner] >= _amount);\r\n        balances[owner] -= _amount;\r\n        balances[msg.sender] += _amount;\r\n\r\n        if(msg.sender == owner){\r\n            mint(_amount);\r\n        }\r\n    }\r\n    //   \r\n    // ETH => FRT\r\n    function transferEthToFrt () payable public{\r\n        require(msg.value != 0);\r\n        uint _maxCan = msg.value * ethCanBuy ;\r\n        require(balances[owner] >= _maxCan);\r\n\r\n        balances[owner] -= _maxCan;\r\n        balances[msg.sender] += _maxCan;\r\n    }\r\n\r\n    // FRT => ETH\r\n    function transferFrtToEth (uint _amount) payable public{\r\n        require(_amount != 0);\r\n        _amount *=  10**decimals;\r\n\r\n        balances[owner] += _amount;\r\n        balances[msg.sender] -= _amount;\r\n        payable(msg.sender).transfer(_amount /200);\r\n    }\r\n\r\n    //   100 \r\n    struct FruitInfo{\r\n        uint num;\r\n        uint price;\r\n    }\r\n    mapping (string=>FruitInfo) fruitInit;\r\n    //   \r\n    function getFruitShop(string memory _name)view public returns(FruitInfo memory){\r\n        return fruitInit[_name];\r\n    }\r\n    //  ETH  \r\n    function buyFruitsByETH(string memory _name, uint _amount) public payable returns(uint){\r\n        require(fruitInit[_name].num >= _amount);\r\n        fruitInit[_name].num -= _amount;\r\n        bool check = false;\r\n        for(uint i = 0 ; i<hasFruitList[msg.sender].length; i++){\r\n            if(keccak256(abi.encode(hasFruitList[msg.sender][i]))==keccak256(abi.encode(_name))){\r\n                check = true;\r\n            }\r\n        }\r\n        if(check){\r\n            fruitWallet[msg.sender].num[_name] += _amount;\r\n        }else{\r\n            hasFruitList[msg.sender].push(_name);\r\n            fruitWallet[msg.sender].num[_name] = _amount;\r\n        }\r\n        emit TransferETH(msg.sender,address(0),_name, _amount, msg.value/(10**18),block.timestamp,\"ETH\");\r\n        return fruitWallet[msg.sender].num[_name];\r\n    }\r\n    //  FRT  \r\n    function buyFruitsByFRT(string memory _name, uint _amount) public payable returns(uint){\r\n        require(fruitInit[_name].num >= _amount);\r\n        balances[msg.sender] -= _amount * fruitInit[_name].price * ethCanBuy;\r\n        fruitInit[_name].num -= _amount;\r\n        bool check = false;\r\n        for(uint i = 0 ; i<hasFruitList[msg.sender].length; i++){\r\n            if(keccak256(abi.encode(hasFruitList[msg.sender][i]))==keccak256(abi.encode(_name))){\r\n                check = true;\r\n            }\r\n        }\r\n        if(check){\r\n            fruitWallet[msg.sender].num[_name] += _amount;\r\n        }else{\r\n            hasFruitList[msg.sender].push(_name);\r\n            fruitWallet[msg.sender].num[_name] = _amount;\r\n        }\r\n        emit TransferFRT(msg.sender,address(0),_name, _amount, _amount * fruitInit[_name].price * ethCanBuy /(10**18) ,block.timestamp,\"FRT\");\r\n        return fruitWallet[msg.sender].num[_name];\r\n    }\r\n    //  \r\n\r\n    //  ->  -> , \r\n    // \r\n    mapping(string=>address[]) fruitTrader;\r\n    function getFruitTrader(string memory _typeIs)view public returns(address[] memory){\r\n        return fruitTrader[_typeIs];\r\n    }\r\n    //  \r\n    // { : ,,}\r\n    struct SellFruit{\r\n        address owner;\r\n        string name;\r\n        uint price;\r\n        uint num;\r\n        string typeIs;\r\n        string status;\r\n        uint date;\r\n        string unit;\r\n    }\r\n    mapping (string=>mapping(string=>mapping(string=>mapping(address=>SellFruit)))) makeShop;\r\n    //  \r\n    function registerFruit(string memory _name,uint _price, uint _num,string memory _typeIs, string memory _unit) public payable {\r\n        require(_num >0);\r\n        if(keccak256(abi.encode(_typeIs))==keccak256(abi.encode(\"SELL\"))){\r\n            require(fruitWallet[msg.sender].num[_name] >= _num);\r\n            fruitWallet[msg.sender].num[_name] -= _num;\r\n        }else{\r\n            if(keccak256(abi.encode(_unit))==keccak256(abi.encode(\"FRT\"))){\r\n                balances[msg.sender] -= _price * _num * 10 ** 18;\r\n            }\r\n        }\r\n        require(keccak256(abi.encode(makeShop[_name][_typeIs][_unit][msg.sender].status)) != keccak256(abi.encode(\"on\")));\r\n        bool check = true;\r\n        for(uint i = 0; i<fruitTrader[_typeIs].length; i++){\r\n            if(fruitTrader[_typeIs][i] == msg.sender){\r\n                check = false;\r\n            }\r\n        }\r\n        \r\n        if(check) fruitTrader[_typeIs].push(payable(msg.sender));\r\n        makeShop[_name][_typeIs][_unit][msg.sender].owner = msg.sender;\r\n        makeShop[_name][_typeIs][_unit][msg.sender].price = _price * 10 ** 18;\r\n        makeShop[_name][_typeIs][_unit][msg.sender].num = _num;\r\n        makeShop[_name][_typeIs][_unit][msg.sender].name = _name;\r\n        makeShop[_name][_typeIs][_unit][msg.sender].typeIs = _typeIs;\r\n        makeShop[_name][_typeIs][_unit][msg.sender].status = \"on\";\r\n        makeShop[_name][_typeIs][_unit][msg.sender].date = block.timestamp;\r\n        makeShop[_name][_typeIs][_unit][msg.sender].unit = _unit;\r\n    }\r\n    //  \r\n    function deleteFruit(string memory _name,string memory _typeIs,string memory _unit) public payable{\r\n        makeShop[_name][_typeIs][_unit][msg.sender].status = \"off\";\r\n        if(keccak256(abi.encode(_typeIs))==keccak256(abi.encode(\"BUY\"))){\r\n            refund(_name, _typeIs,_unit);\r\n        }\r\n        fruitWallet[msg.sender].num[_name] += makeShop[_name][_typeIs][_unit][msg.sender].num;\r\n    }\r\n    //   \r\n    function refund(string memory _name,string memory _typeIs, string memory _unit) public payable {\r\n            uint refundMoney = makeShop[_name][_typeIs][_unit][msg.sender].price * makeShop[_name][_typeIs][_unit][msg.sender].num;\r\n            payable(msg.sender).transfer(refundMoney);\r\n    }\r\n    //  \r\n    // { : {  : }}\r\n    struct Fruit{\r\n        mapping(string=>uint) num;\r\n    }\r\n    mapping (address=>Fruit) fruitWallet;\r\n    mapping (address=>string[]) hasFruitList;\r\n    //   \r\n    function getFruitWallet() view public returns(uint[] memory){\r\n        uint count = hasFruitList[msg.sender].length;\r\n        uint[] memory wallet = new uint[](count);\r\n        for(uint i=0; i<count;i++){\r\n            wallet[i] = fruitWallet[msg.sender].num[hasFruitList[msg.sender][i]];\r\n        }\r\n        return wallet;\r\n    }\r\n    //   \r\n    function hasFruit() view public returns(string[] memory){\r\n        return hasFruitList[msg.sender];\r\n    }\r\n    //   \r\n    function buyFruit(string memory _name, uint _num, string memory _typeIs, address _seller, string memory _unit) public payable {\r\n        bool check = false;\r\n        for(uint i = 0 ; i<hasFruitList[msg.sender].length; i++){\r\n            if(keccak256(abi.encode(hasFruitList[msg.sender][i]))==keccak256(abi.encode(_name))){\r\n                check = true;\r\n            }\r\n        }\r\n        if(check){\r\n            fruitWallet[msg.sender].num[_name] += _num;\r\n        }else{\r\n            hasFruitList[msg.sender].push(_name);\r\n            fruitWallet[msg.sender].num[_name] = _num;\r\n        }\r\n        makeShop[_name][_typeIs][_unit][_seller].num -= _num;\r\n        uint _amount = makeShop[_name][_typeIs][_unit][_seller].price * _num;\r\n        uint sendMoney = _amount * 95 / 100;\r\n        if(keccak256(abi.encode(_unit))==keccak256(abi.encode(\"ETH\"))){\r\n            payable(makeShop[_name][_typeIs][_unit][_seller].owner).transfer(sendMoney);\r\n            emit TransferETH(msg.sender,_seller,_name, _num, _amount/(10**18), block.timestamp,\"ETH\");\r\n        }else{\r\n            balances[msg.sender] -= _amount;\r\n            balances[_seller] += sendMoney;\r\n             emit TransferFRT(msg.sender,_seller,_name, _num, _amount/(10**18), block.timestamp,\"FRT\");\r\n        }\r\n        \r\n        \r\n    }\r\n    //   \r\n    function sellFruit(string memory _name, uint _num,string memory _typeIs,address _seller, string memory _unit) public payable {\r\n        makeShop[_name][_typeIs][_unit][_seller].num -= _num;\r\n        fruitWallet[_seller].num[_name] += _num;\r\n        fruitWallet[msg.sender].num[_name] -= _num;\r\n        uint _amount =  makeShop[_name][_typeIs][_unit][_seller].price * _num;\r\n        uint sendMoney = _amount * 95 / 100;\r\n        if(keccak256(abi.encode(_unit))==keccak256(abi.encode(\"ETH\"))){\r\n            payable(msg.sender).transfer(sendMoney);\r\n            emit TransferETH(_seller,msg.sender,_name, _num, _amount/(10**18) , block.timestamp, \"ETH\");\r\n        }else{ \r\n            balances[msg.sender] += sendMoney;\r\n            emit TransferFRT(msg.sender,_seller,_name, _num, _amount/(10**18), block.timestamp,\"FRT\");\r\n        }\r\n    }\r\n    //  \r\n    function getSellerListETH(string memory _name, string memory _typeIs,address _seller) public view returns(SellFruit memory){\r\n        return makeShop[_name][_typeIs][\"ETH\"][_seller];\r\n    }\r\n    function getSellerListFRT(string memory _name, string memory _typeIs,address _seller) public view returns(SellFruit memory){\r\n        return makeShop[_name][_typeIs][\"FRT\"][_seller];\r\n    }\r\n\r\n\r\n    //     \r\n    event TransferETH(address from, address to, string name, uint num, uint value, uint date, string pay);\r\n    event TransferFRT(address from, address to, string name, uint num, uint value, uint date, string pay);\r\n}",
  "sourcePath": "C:\\Users\\KGA_030\\Desktop\\class\\React_project\\ethfruitshop\\smartContract\\contracts\\FruitShop.sol",
  "compiler": {
    "name": "solc",
    "version": "0.8.17+commit.8df45f5f.Emscripten.clang"
  },
  "schemaVersion": "3.4.11",
  "updatedAt": "2022-12-09T08:08:12.166Z",
  "networkType": "ethereum",
  "devdoc": {
    "kind": "dev",
    "methods": {},
    "version": 1
  },
  "userdoc": {
    "kind": "user",
    "methods": {},
    "version": 1
  }
}