{
  "contractName": "FruitShop",
  "abi": [
    {
      "inputs": [
        {
          "internalType": "string",
          "name": "_name",
          "type": "string"
        },
        {
          "internalType": "uint256",
          "name": "_price",
          "type": "uint256"
        },
        {
          "internalType": "uint256",
          "name": "_num",
          "type": "uint256"
        },
        {
          "internalType": "string",
          "name": "_typeIs",
          "type": "string"
        }
      ],
      "name": "registerFruit",
      "outputs": [
        {
          "internalType": "bool",
          "name": "check",
          "type": "bool"
        }
      ],
      "stateMutability": "payable",
      "type": "function",
      "payable": true
    },
    {
      "inputs": [
        {
          "internalType": "string",
          "name": "_name",
          "type": "string"
        },
        {
          "internalType": "string",
          "name": "_typeIs",
          "type": "string"
        }
      ],
      "name": "deleteFruit",
      "outputs": [
        {
          "internalType": "bool",
          "name": "check",
          "type": "bool"
        }
      ],
      "stateMutability": "payable",
      "type": "function",
      "payable": true
    },
    {
      "inputs": [
        {
          "internalType": "string",
          "name": "_name",
          "type": "string"
        },
        {
          "internalType": "string",
          "name": "_typeIs",
          "type": "string"
        }
      ],
      "name": "refund",
      "outputs": [],
      "stateMutability": "payable",
      "type": "function",
      "payable": true
    },
    {
      "inputs": [],
      "name": "getFruitWallet",
      "outputs": [
        {
          "internalType": "uint256[]",
          "name": "",
          "type": "uint256[]"
        }
      ],
      "stateMutability": "view",
      "type": "function",
      "constant": true
    },
    {
      "inputs": [],
      "name": "hasFruit",
      "outputs": [
        {
          "internalType": "string[]",
          "name": "",
          "type": "string[]"
        }
      ],
      "stateMutability": "view",
      "type": "function",
      "constant": true
    },
    {
      "inputs": [
        {
          "internalType": "string",
          "name": "_name",
          "type": "string"
        },
        {
          "internalType": "uint256",
          "name": "_num",
          "type": "uint256"
        },
        {
          "internalType": "string",
          "name": "_typeIs",
          "type": "string"
        }
      ],
      "name": "buyFruit",
      "outputs": [],
      "stateMutability": "payable",
      "type": "function",
      "payable": true
    },
    {
      "inputs": [
        {
          "internalType": "string",
          "name": "_name",
          "type": "string"
        },
        {
          "internalType": "uint256",
          "name": "_num",
          "type": "uint256"
        },
        {
          "internalType": "string",
          "name": "_typeIs",
          "type": "string"
        }
      ],
      "name": "sellFruit",
      "outputs": [],
      "stateMutability": "payable",
      "type": "function",
      "payable": true
    },
    {
      "inputs": [],
      "name": "getBuyFruitList",
      "outputs": [
        {
          "internalType": "string[]",
          "name": "",
          "type": "string[]"
        }
      ],
      "stateMutability": "view",
      "type": "function",
      "constant": true
    },
    {
      "inputs": [],
      "name": "getSellFruitList",
      "outputs": [
        {
          "internalType": "string[]",
          "name": "",
          "type": "string[]"
        }
      ],
      "stateMutability": "view",
      "type": "function",
      "constant": true
    },
    {
      "inputs": [
        {
          "internalType": "string",
          "name": "_name",
          "type": "string"
        },
        {
          "internalType": "string",
          "name": "_typeIs",
          "type": "string"
        }
      ],
      "name": "getSellerList",
      "outputs": [
        {
          "components": [
            {
              "internalType": "address",
              "name": "owner",
              "type": "address"
            },
            {
              "internalType": "string",
              "name": "name",
              "type": "string"
            },
            {
              "internalType": "uint256",
              "name": "price",
              "type": "uint256"
            },
            {
              "internalType": "uint256",
              "name": "num",
              "type": "uint256"
            },
            {
              "internalType": "string",
              "name": "typeIs",
              "type": "string"
            }
          ],
          "internalType": "struct FruitShop.SellFruit",
          "name": "",
          "type": "tuple"
        }
      ],
      "stateMutability": "view",
      "type": "function",
      "constant": true
    }
  ],
  "bytecode": "0x608060405234801561001057600080fd5b50612243806100206000396000f3fe6080604052600436106100915760003560e01c80637377c240116100595780637377c2401461016857806379ddcb3a14610184578063a4f9b0e4146101a0578063b97dfaca146101cb578063fb12e26c146101f657610091565b806309404f4d146100965780632dc3f939146100c157806348328a20146100ec5780634835e15a1461010857806368ec634e14610138575b600080fd5b3480156100a257600080fd5b506100ab610233565b6040516100b89190611518565b60405180910390f35b3480156100cd57600080fd5b506100d6610326565b6040516100e39190611518565b60405180910390f35b61010660048036038101906101019190611683565b610419565b005b610122600480360381019061011d9190611731565b610541565b60405161012f91906117eb565b60405180910390f35b610152600480360381019061014d9190611683565b610827565b60405161015f91906117eb565b60405180910390f35b610182600480360381019061017d9190611806565b610a01565b005b61019e60048036038101906101999190611806565b610b7c565b005b3480156101ac57600080fd5b506101b5610e96565b6040516101c29190611518565b60405180910390f35b3480156101d757600080fd5b506101e0610fac565b6040516101ed919061194f565b60405180910390f35b34801561020257600080fd5b5061021d60048036038101906102189190611683565b611141565b60405161022a9190611a2f565b60405180910390f35b6060600060405161024390611aa8565b9081526020016040518091039020805480602002602001604051908101604052809291908181526020016000905b8282101561031d57838290600052602060002001805461029090611aec565b80601f01602080910402602001604051908101604052809291908181526020018280546102bc90611aec565b80156103095780601f106102de57610100808354040283529160200191610309565b820191906000526020600020905b8154815290600101906020018083116102ec57829003601f168201915b505050505081526020019060010190610271565b50505050905090565b6060600060405161033690611b69565b9081526020016040518091039020805480602002602001604051908101604052809291908181526020016000905b8282101561041057838290600052602060002001805461038390611aec565b80601f01602080910402602001604051908101604052809291908181526020018280546103af90611aec565b80156103fc5780601f106103d1576101008083540402835291602001916103fc565b820191906000526020600020905b8154815290600101906020018083116103df57829003601f168201915b505050505081526020019060010190610364565b50505050905090565b60405160200161042890611bb2565b604051602081830303815290604052805190602001208160405160200161044f9190611c0b565b604051602081830303815290604052805190602001200361053d57600060018360405161047c9190611c5e565b9081526020016040518091039020826040516104989190611c5e565b9081526020016040518091039020600301546001846040516104ba9190611c5e565b9081526020016040518091039020836040516104d69190611c5e565b9081526020016040518091039020600201546104f29190611ca4565b90503373ffffffffffffffffffffffffffffffffffffffff166108fc829081150290604051600060405180830381858888f1935050505015801561053a573d6000803e3d6000fd5b50505b5050565b60006001905060005b60008360405161055a9190611c5e565b90815260200160405180910390208054905081101561061757856040516020016105849190611c0b565b604051602081830303815290604052805190602001206000846040516105aa9190611c5e565b908152602001604051809103902082815481106105ca576105c9611ce6565b5b906000526020600020016040516020016105e49190611dae565b604051602081830303815290604052805190602001200361060457600091505b808061060f90611dd0565b91505061054a565b50600115158115150361081f576000826040516106349190611c5e565b9081526020016040518091039020859080600181540180825580915050600190039060005260206000200160009091909190915090816106749190611faf565b50336001866040516106869190611c5e565b9081526020016040518091039020836040516106a29190611c5e565b908152602001604051809103902060000160006101000a81548173ffffffffffffffffffffffffffffffffffffffff021916908373ffffffffffffffffffffffffffffffffffffffff160217905550670de0b6b3a7640000846107059190611ca4565b6001866040516107159190611c5e565b9081526020016040518091039020836040516107319190611c5e565b908152602001604051809103902060020181905550826001866040516107579190611c5e565b9081526020016040518091039020836040516107739190611c5e565b908152602001604051809103902060030181905550846001866040516107999190611c5e565b9081526020016040518091039020836040516107b59190611c5e565b908152602001604051809103902060010190816107d29190611faf565b50816001866040516107e49190611c5e565b9081526020016040518091039020836040516108009190611c5e565b9081526020016040518091039020600401908161081d9190611faf565b505b949350505050565b60003360405160200161083a9190612090565b604051602081830303815290604052805190602001206001846040516108609190611c5e565b90815260200160405180910390208360405161087c9190611c5e565b908152602001604051809103902060000160009054906101000a900473ffffffffffffffffffffffffffffffffffffffff166040516020016108be9190612090565b60405160208183030381529060405280519060200120036109fb5760005b6000836040516108ec9190611c5e565b9081526020016040518091039020805490508110156109f957836040516020016109169190611c0b565b6040516020818303038152906040528051906020012060008460405161093c9190611c5e565b9081526020016040518091039020828154811061095c5761095b611ce6565b5b906000526020600020016040516020016109769190611dae565b60405160208183030381529060405280519060200120036109e65761099b8484610419565b6000836040516109ab9190611c5e565b908152602001604051809103902081815481106109cb576109ca611ce6565b5b9060005260206000200160006109e19190611324565b600191505b80806109f190611dd0565b9150506108dc565b505b92915050565b81600184604051610a129190611c5e565b908152602001604051809103902082604051610a2e9190611c5e565b90815260200160405180910390206003016000828254610a4e91906120ab565b9250508190555081600260003373ffffffffffffffffffffffffffffffffffffffff1673ffffffffffffffffffffffffffffffffffffffff16815260200190815260200160002060000184604051610aa69190611c5e565b90815260200160405180910390206000828254610ac391906120ab565b9250508190555060006064605f84600187604051610ae19190611c5e565b908152602001604051809103902085604051610afd9190611c5e565b908152602001604051809103902060020154610b199190611ca4565b610b239190611ca4565b610b2d919061210e565b90503373ffffffffffffffffffffffffffffffffffffffff166108fc829081150290604051600060405180830381858888f19350505050158015610b75573d6000803e3d6000fd5b5050505050565b6000600260003373ffffffffffffffffffffffffffffffffffffffff1673ffffffffffffffffffffffffffffffffffffffff16815260200190815260200160002060000184604051610bce9190611c5e565b9081526020016040518091039020541115610c5d5781600260003373ffffffffffffffffffffffffffffffffffffffff1673ffffffffffffffffffffffffffffffffffffffff16815260200190815260200160002060000184604051610c349190611c5e565b90815260200160405180910390206000828254610c51919061213f565b92505081905550610d33565b600360003373ffffffffffffffffffffffffffffffffffffffff1673ffffffffffffffffffffffffffffffffffffffff16815260200190815260200160002083908060018154018082558091505060019003906000526020600020016000909190919091509081610cce9190611faf565b5081600260003373ffffffffffffffffffffffffffffffffffffffff1673ffffffffffffffffffffffffffffffffffffffff16815260200190815260200160002060000184604051610d209190611c5e565b9081526020016040518091039020819055505b81600184604051610d449190611c5e565b908152602001604051809103902082604051610d609190611c5e565b90815260200160405180910390206003016000828254610d8091906120ab565b9250508190555060006064605f84600187604051610d9e9190611c5e565b908152602001604051809103902085604051610dba9190611c5e565b908152602001604051809103902060020154610dd69190611ca4565b610de09190611ca4565b610dea919061210e565b9050600184604051610dfc9190611c5e565b908152602001604051809103902082604051610e189190611c5e565b908152602001604051809103902060000160009054906101000a900473ffffffffffffffffffffffffffffffffffffffff1673ffffffffffffffffffffffffffffffffffffffff166108fc829081150290604051600060405180830381858888f19350505050158015610e8f573d6000803e3d6000fd5b5050505050565b6060600360003373ffffffffffffffffffffffffffffffffffffffff1673ffffffffffffffffffffffffffffffffffffffff168152602001908152602001600020805480602002602001604051908101604052809291908181526020016000905b82821015610fa3578382906000526020600020018054610f1690611aec565b80601f0160208091040260200160405190810160405280929190818152602001828054610f4290611aec565b8015610f8f5780601f10610f6457610100808354040283529160200191610f8f565b820191906000526020600020905b815481529060010190602001808311610f7257829003601f168201915b505050505081526020019060010190610ef7565b50505050905090565b60606000600360003373ffffffffffffffffffffffffffffffffffffffff1673ffffffffffffffffffffffffffffffffffffffff16815260200190815260200160002080549050905060008167ffffffffffffffff81111561101157611010611558565b5b60405190808252806020026020018201604052801561103f5781602001602082028036833780820191505090505b50905060005b8281101561113857600260003373ffffffffffffffffffffffffffffffffffffffff1673ffffffffffffffffffffffffffffffffffffffff168152602001908152602001600020600001600360003373ffffffffffffffffffffffffffffffffffffffff1673ffffffffffffffffffffffffffffffffffffffff16815260200190815260200160002082815481106110e0576110df611ce6565b5b906000526020600020016040516110f791906121f6565b90815260200160405180910390205482828151811061111957611118611ce6565b5b602002602001018181525050808061113090611dd0565b915050611045565b50809250505090565b611149611364565b6001836040516111599190611c5e565b9081526020016040518091039020826040516111759190611c5e565b90815260200160405180910390206040518060a00160405290816000820160009054906101000a900473ffffffffffffffffffffffffffffffffffffffff1673ffffffffffffffffffffffffffffffffffffffff1673ffffffffffffffffffffffffffffffffffffffff1681526020016001820180546111f490611aec565b80601f016020809104026020016040519081016040528092919081815260200182805461122090611aec565b801561126d5780601f106112425761010080835404028352916020019161126d565b820191906000526020600020905b81548152906001019060200180831161125057829003601f168201915b50505050508152602001600282015481526020016003820154815260200160048201805461129a90611aec565b80601f01602080910402602001604051908101604052809291908181526020018280546112c690611aec565b80156113135780601f106112e857610100808354040283529160200191611313565b820191906000526020600020905b8154815290600101906020018083116112f657829003601f168201915b505050505081525050905092915050565b50805461133090611aec565b6000825580601f106113425750611361565b601f01602090049060005260206000209081019061136091906113a9565b5b50565b6040518060a00160405280600073ffffffffffffffffffffffffffffffffffffffff168152602001606081526020016000815260200160008152602001606081525090565b5b808211156113c25760008160009055506001016113aa565b5090565b600081519050919050565b600082825260208201905092915050565b6000819050602082019050919050565b600081519050919050565b600082825260208201905092915050565b60005b8381101561142c578082015181840152602081019050611411565b60008484015250505050565b6000601f19601f8301169050919050565b6000611454826113f2565b61145e81856113fd565b935061146e81856020860161140e565b61147781611438565b840191505092915050565b600061148e8383611449565b905092915050565b6000602082019050919050565b60006114ae826113c6565b6114b881856113d1565b9350836020820285016114ca856113e2565b8060005b8581101561150657848403895281516114e78582611482565b94506114f283611496565b925060208a019950506001810190506114ce565b50829750879550505050505092915050565b6000602082019050818103600083015261153281846114a3565b905092915050565b6000604051905090565b600080fd5b600080fd5b600080fd5b600080fd5b7f4e487b7100000000000000000000000000000000000000000000000000000000600052604160045260246000fd5b61159082611438565b810181811067ffffffffffffffff821117156115af576115ae611558565b5b80604052505050565b60006115c261153a565b90506115ce8282611587565b919050565b600067ffffffffffffffff8211156115ee576115ed611558565b5b6115f782611438565b9050602081019050919050565b82818337600083830152505050565b6000611626611621846115d3565b6115b8565b90508281526020810184848401111561164257611641611553565b5b61164d848285611604565b509392505050565b600082601f83011261166a5761166961154e565b5b813561167a848260208601611613565b91505092915050565b6000806040838503121561169a57611699611544565b5b600083013567ffffffffffffffff8111156116b8576116b7611549565b5b6116c485828601611655565b925050602083013567ffffffffffffffff8111156116e5576116e4611549565b5b6116f185828601611655565b9150509250929050565b6000819050919050565b61170e816116fb565b811461171957600080fd5b50565b60008135905061172b81611705565b92915050565b6000806000806080858703121561174b5761174a611544565b5b600085013567ffffffffffffffff81111561176957611768611549565b5b61177587828801611655565b94505060206117868782880161171c565b93505060406117978782880161171c565b925050606085013567ffffffffffffffff8111156117b8576117b7611549565b5b6117c487828801611655565b91505092959194509250565b60008115159050919050565b6117e5816117d0565b82525050565b600060208201905061180060008301846117dc565b92915050565b60008060006060848603121561181f5761181e611544565b5b600084013567ffffffffffffffff81111561183d5761183c611549565b5b61184986828701611655565b935050602061185a8682870161171c565b925050604084013567ffffffffffffffff81111561187b5761187a611549565b5b61188786828701611655565b9150509250925092565b600081519050919050565b600082825260208201905092915050565b6000819050602082019050919050565b6118c6816116fb565b82525050565b60006118d883836118bd565b60208301905092915050565b6000602082019050919050565b60006118fc82611891565b611906818561189c565b9350611911836118ad565b8060005b8381101561194257815161192988826118cc565b9750611934836118e4565b925050600181019050611915565b5085935050505092915050565b6000602082019050818103600083015261196981846118f1565b905092915050565b600073ffffffffffffffffffffffffffffffffffffffff82169050919050565b600061199c82611971565b9050919050565b6119ac81611991565b82525050565b600060a0830160008301516119ca60008601826119a3565b50602083015184820360208601526119e28282611449565b91505060408301516119f760408601826118bd565b506060830151611a0a60608601826118bd565b5060808301518482036080860152611a228282611449565b9150508091505092915050565b60006020820190508181036000830152611a4981846119b2565b905092915050565b600081905092915050565b7f4255590000000000000000000000000000000000000000000000000000000000600082015250565b6000611a92600383611a51565b9150611a9d82611a5c565b600382019050919050565b6000611ab382611a85565b9150819050919050565b7f4e487b7100000000000000000000000000000000000000000000000000000000600052602260045260246000fd5b60006002820490506001821680611b0457607f821691505b602082108103611b1757611b16611abd565b5b50919050565b7f53454c4c00000000000000000000000000000000000000000000000000000000600082015250565b6000611b53600483611a51565b9150611b5e82611b1d565b600482019050919050565b6000611b7482611b46565b9150819050919050565b600082825260208201905092915050565b6000611b9c600383611b7e565b9150611ba782611a5c565b602082019050919050565b60006020820190508181036000830152611bcb81611b8f565b9050919050565b6000611bdd826113f2565b611be78185611b7e565b9350611bf781856020860161140e565b611c0081611438565b840191505092915050565b60006020820190508181036000830152611c258184611bd2565b905092915050565b6000611c38826113f2565b611c428185611a51565b9350611c5281856020860161140e565b80840191505092915050565b6000611c6a8284611c2d565b915081905092915050565b7f4e487b7100000000000000000000000000000000000000000000000000000000600052601160045260246000fd5b6000611caf826116fb565b9150611cba836116fb565b9250828202611cc8816116fb565b91508282048414831517611cdf57611cde611c75565b5b5092915050565b7f4e487b7100000000000000000000000000000000000000000000000000000000600052603260045260246000fd5b60008190508160005260206000209050919050565b60008154611d3781611aec565b611d418186611b7e565b94506001821660008114611d5c5760018114611d7257611da5565b60ff198316865281151560200286019350611da5565b611d7b85611d15565b60005b83811015611d9d57815481890152600182019150602081019050611d7e565b808801955050505b50505092915050565b60006020820190508181036000830152611dc88184611d2a565b905092915050565b6000611ddb826116fb565b91507fffffffffffffffffffffffffffffffffffffffffffffffffffffffffffffffff8203611e0d57611e0c611c75565b5b600182019050919050565b60006020601f8301049050919050565b600082821b905092915050565b600060088302611e657fffffffffffffffffffffffffffffffffffffffffffffffffffffffffffffffff82611e28565b611e6f8683611e28565b95508019841693508086168417925050509392505050565b6000819050919050565b6000611eac611ea7611ea2846116fb565b611e87565b6116fb565b9050919050565b6000819050919050565b611ec683611e91565b611eda611ed282611eb3565b848454611e35565b825550505050565b600090565b611eef611ee2565b611efa818484611ebd565b505050565b5b81811015611f1e57611f13600082611ee7565b600181019050611f00565b5050565b601f821115611f6357611f3481611d15565b611f3d84611e18565b81016020851015611f4c578190505b611f60611f5885611e18565b830182611eff565b50505b505050565b600082821c905092915050565b6000611f8660001984600802611f68565b1980831691505092915050565b6000611f9f8383611f75565b9150826002028217905092915050565b611fb8826113f2565b67ffffffffffffffff811115611fd157611fd0611558565b5b611fdb8254611aec565b611fe6828285611f22565b600060209050601f8311600181146120195760008415612007578287015190505b6120118582611f93565b865550612079565b601f19841661202786611d15565b60005b8281101561204f5784890151825560018201915060208501945060208101905061202a565b8683101561206c5784890151612068601f891682611f75565b8355505b6001600288020188555050505b505050505050565b61208a81611991565b82525050565b60006020820190506120a56000830184612081565b92915050565b60006120b6826116fb565b91506120c1836116fb565b92508282039050818111156120d9576120d8611c75565b5b92915050565b7f4e487b7100000000000000000000000000000000000000000000000000000000600052601260045260246000fd5b6000612119826116fb565b9150612124836116fb565b925082612134576121336120df565b5b828204905092915050565b600061214a826116fb565b9150612155836116fb565b925082820190508082111561216d5761216c611c75565b5b92915050565b6000815461218081611aec565b61218a8186611a51565b945060018216600081146121a557600181146121ba576121ed565b60ff19831686528115158202860193506121ed565b6121c385611d15565b60005b838110156121e5578154818901526001820191506020810190506121c6565b838801955050505b50505092915050565b60006122028284612173565b91508190509291505056fea2646970667358221220cf47151b029fdbaa8476e41f6eb1c6c2b3ae46874ec4ac0aa8eee3089ebef05d64736f6c63430008110033",
  "immutableReferences": {},
  "source": "// SPDX-License-Identifier: MIT\r\npragma solidity ^0.8.17;\r\n\r\ncontract FruitShop{\r\n    //  ->  -> , \r\n    // \r\n    mapping (string=>string[]) fruitList;\r\n    //  \r\n    // { : ,,}\r\n    struct SellFruit{\r\n        address owner;\r\n        string name;\r\n        uint price;\r\n        uint num;\r\n        string typeIs;\r\n    }\r\n    mapping (string=>mapping(string=>SellFruit)) makeShop;\r\n    //  \r\n    function registerFruit(string memory _name,uint _price, uint _num,string memory _typeIs) public payable returns(bool check){\r\n        check = true;\r\n        for(uint i = 0 ;i<fruitList[_typeIs].length;i++){\r\n            if(keccak256(abi.encode(fruitList[_typeIs][i]))  == keccak256(abi.encode(_name))) check = false;\r\n        }\r\n        if(check == true) {\r\n            fruitList[_typeIs].push(_name);\r\n        makeShop[_name][_typeIs].owner = msg.sender;\r\n            makeShop[_name][_typeIs].price = _price * 10 ** 18;\r\n            makeShop[_name][_typeIs].num = _num;\r\n            makeShop[_name][_typeIs].name = _name;\r\n            makeShop[_name][_typeIs].typeIs = _typeIs;\r\n        }\r\n        return check;\r\n    }\r\n    //  \r\n    function deleteFruit(string memory _name,string memory _typeIs) public payable returns(bool check){\r\n        check = false;\r\n        if(keccak256(abi.encode(makeShop[_name][_typeIs].owner))  == keccak256(abi.encode(msg.sender))){\r\n            for(uint i = 0 ;i<fruitList[_typeIs].length; i++){\r\n                if(keccak256(abi.encode(fruitList[_typeIs][i])) == keccak256(abi.encode(_name))){\r\n                    refund(_name, _typeIs);\r\n                    delete fruitList[_typeIs][i];\r\n                    check = true;\r\n                }\r\n            }\r\n        }\r\n        return check;\r\n    }\r\n    //   \r\n    function refund(string memory _name,string memory _typeIs) public payable {\r\n        if(keccak256(abi.encode(_typeIs))==keccak256(abi.encode(\"BUY\"))){\r\n            uint refundMoney = makeShop[_name][_typeIs].price * makeShop[_name][_typeIs].num;\r\n            payable(msg.sender).transfer(refundMoney);\r\n        }\r\n    }\r\n    //  \r\n    // { : {  : }}\r\n    struct Fruit{\r\n        mapping(string=>uint) num;\r\n    }\r\n    mapping (address=>Fruit) fruitWallet;\r\n    mapping (address=>string[]) hasFruitList;\r\n    //   \r\n    function getFruitWallet() view public returns(uint[] memory){\r\n        uint count = hasFruitList[msg.sender].length;\r\n        uint[] memory wallet = new uint[](count);\r\n        for(uint i=0; i<count;i++){\r\n            wallet[i] = fruitWallet[msg.sender].num[hasFruitList[msg.sender][i]];\r\n        }\r\n        return wallet;\r\n    }\r\n    //   \r\n    function hasFruit() view public returns(string[] memory){\r\n        return hasFruitList[msg.sender];\r\n    }\r\n    //  \r\n    function buyFruit(string memory _name, uint _num, string memory _typeIs) public payable {\r\n        if(fruitWallet[msg.sender].num[_name] > 0){\r\n            fruitWallet[msg.sender].num[_name] += _num;\r\n        }else{\r\n            hasFruitList[msg.sender].push(_name);\r\n            fruitWallet[msg.sender].num[_name] = _num;\r\n        }\r\n        makeShop[_name][_typeIs].num -= _num;\r\n        uint sendMoney = makeShop[_name][_typeIs].price * _num * 95 / 100;\r\n        payable(makeShop[_name][_typeIs].owner).transfer(sendMoney);\r\n    }\r\n    //  \r\n    function sellFruit(string memory _name, uint _num,string memory _typeIs) public payable {\r\n        makeShop[_name][_typeIs].num -= _num;\r\n        fruitWallet[msg.sender].num[_name] -= _num;\r\n        uint sendMoney = makeShop[_name][_typeIs].price * _num * 95 / 100;\r\n        payable(msg.sender).transfer(sendMoney);\r\n    }\r\n    //  \r\n    function getBuyFruitList() public view returns(string[] memory)  {\r\n        return fruitList[\"BUY\"];\r\n    }\r\n    function getSellFruitList() public view returns(string[] memory)  {\r\n        return fruitList[\"SELL\"];\r\n    }\r\n    //  \r\n    function getSellerList(string memory _name, string memory _typeIs) public view returns(SellFruit memory){\r\n    return makeShop[_name][_typeIs];\r\n    }\r\n}",
  "sourcePath": "C:\\Users\\KGA_030\\Desktop\\class\\React_project\\ethfruitshop\\smartContract\\contracts\\FruitShop.sol",
  "compiler": {
    "name": "solc",
    "version": "0.8.17+commit.8df45f5f.Emscripten.clang"
  },
  "schemaVersion": "3.4.11",
  "updatedAt": "2022-12-02T06:18:13.462Z",
  "networkType": "ethereum",
  "devdoc": {
    "kind": "dev",
    "methods": {},
    "version": 1
  },
  "userdoc": {
    "kind": "user",
    "methods": {},
    "version": 1
  }
}