{
  "contractName": "FruitShop",
  "abi": [
    {
      "inputs": [
        {
          "internalType": "string",
          "name": "_name",
          "type": "string"
        },
        {
          "internalType": "uint256",
          "name": "_price",
          "type": "uint256"
        },
        {
          "internalType": "uint256",
          "name": "_num",
          "type": "uint256"
        },
        {
          "internalType": "string",
          "name": "_typeIs",
          "type": "string"
        }
      ],
      "name": "registerFruit",
      "outputs": [
        {
          "internalType": "bool",
          "name": "check",
          "type": "bool"
        }
      ],
      "stateMutability": "payable",
      "type": "function",
      "payable": true
    },
    {
      "inputs": [
        {
          "internalType": "string",
          "name": "_name",
          "type": "string"
        },
        {
          "internalType": "string",
          "name": "_typeIs",
          "type": "string"
        }
      ],
      "name": "deleteFruit",
      "outputs": [
        {
          "internalType": "bool",
          "name": "check",
          "type": "bool"
        }
      ],
      "stateMutability": "nonpayable",
      "type": "function"
    },
    {
      "inputs": [
        {
          "internalType": "string",
          "name": "_name",
          "type": "string"
        },
        {
          "internalType": "uint256",
          "name": "_num",
          "type": "uint256"
        },
        {
          "internalType": "string",
          "name": "_typeIs",
          "type": "string"
        }
      ],
      "name": "buyFruit",
      "outputs": [],
      "stateMutability": "payable",
      "type": "function",
      "payable": true
    },
    {
      "inputs": [
        {
          "internalType": "string",
          "name": "_name",
          "type": "string"
        },
        {
          "internalType": "uint256",
          "name": "_num",
          "type": "uint256"
        },
        {
          "internalType": "string",
          "name": "_typeIs",
          "type": "string"
        }
      ],
      "name": "sellFruit",
      "outputs": [],
      "stateMutability": "payable",
      "type": "function",
      "payable": true
    },
    {
      "inputs": [],
      "name": "getBuyFruitList",
      "outputs": [
        {
          "internalType": "string[]",
          "name": "",
          "type": "string[]"
        }
      ],
      "stateMutability": "view",
      "type": "function",
      "constant": true
    },
    {
      "inputs": [],
      "name": "getSellFruitList",
      "outputs": [
        {
          "internalType": "string[]",
          "name": "",
          "type": "string[]"
        }
      ],
      "stateMutability": "view",
      "type": "function",
      "constant": true
    },
    {
      "inputs": [
        {
          "internalType": "string",
          "name": "_name",
          "type": "string"
        },
        {
          "internalType": "string",
          "name": "_typeIs",
          "type": "string"
        }
      ],
      "name": "getSellerList",
      "outputs": [
        {
          "components": [
            {
              "internalType": "address",
              "name": "owner",
              "type": "address"
            },
            {
              "internalType": "string",
              "name": "name",
              "type": "string"
            },
            {
              "internalType": "uint256",
              "name": "price",
              "type": "uint256"
            },
            {
              "internalType": "uint256",
              "name": "num",
              "type": "uint256"
            },
            {
              "internalType": "string",
              "name": "typeIs",
              "type": "string"
            }
          ],
          "internalType": "struct FruitShop.SellFruit",
          "name": "",
          "type": "tuple"
        }
      ],
      "stateMutability": "view",
      "type": "function",
      "constant": true
    }
  ],
  "bytecode": "0x608060405234801561001057600080fd5b50611b18806100206000396000f3fe6080604052600436106100705760003560e01c806368ec634e1161004e57806368ec634e146100fb5780637377c2401461013857806379ddcb3a14610154578063fb12e26c1461017057610070565b806309404f4d146100755780632dc3f939146100a05780634835e15a146100cb575b600080fd5b34801561008157600080fd5b5061008a6101ad565b6040516100979190610f9b565b60405180910390f35b3480156100ac57600080fd5b506100b56102a0565b6040516100c29190610f9b565b60405180910390f35b6100e560048036038101906100e0919061113c565b610393565b6040516100f291906111f6565b60405180910390f35b34801561010757600080fd5b50610122600480360381019061011d9190611211565b610679565b60405161012f91906111f6565b60405180910390f35b610152600480360381019061014d9190611289565b610849565b005b61016e60048036038101906101699190611289565b610970565b005b34801561017c57600080fd5b5061019760048036038101906101929190611211565b610bc4565b6040516101a491906113e1565b60405180910390f35b606060006040516101bd9061145a565b9081526020016040518091039020805480602002602001604051908101604052809291908181526020016000905b8282101561029757838290600052602060002001805461020a9061149e565b80601f01602080910402602001604051908101604052809291908181526020018280546102369061149e565b80156102835780601f1061025857610100808354040283529160200191610283565b820191906000526020600020905b81548152906001019060200180831161026657829003601f168201915b5050505050815260200190600101906101eb565b50505050905090565b606060006040516102b09061151b565b9081526020016040518091039020805480602002602001604051908101604052809291908181526020016000905b8282101561038a5783829060005260206000200180546102fd9061149e565b80601f01602080910402602001604051908101604052809291908181526020018280546103299061149e565b80156103765780601f1061034b57610100808354040283529160200191610376565b820191906000526020600020905b81548152906001019060200180831161035957829003601f168201915b5050505050815260200190600101906102de565b50505050905090565b60006001905060005b6000836040516103ac9190611561565b90815260200160405180910390208054905081101561046957856040516020016103d691906115c2565b604051602081830303815290604052805190602001206000846040516103fc9190611561565b9081526020016040518091039020828154811061041c5761041b6115e4565b5b9060005260206000200160405160200161043691906116ac565b604051602081830303815290604052805190602001200361045657600091505b8080610461906116fd565b91505061039c565b506001151581151503610671576000826040516104869190611561565b9081526020016040518091039020859080600181540180825580915050600190039060005260206000200160009091909190915090816104c691906118dc565b50336001866040516104d89190611561565b9081526020016040518091039020836040516104f49190611561565b908152602001604051809103902060000160006101000a81548173ffffffffffffffffffffffffffffffffffffffff021916908373ffffffffffffffffffffffffffffffffffffffff160217905550670de0b6b3a76400008461055791906119ae565b6001866040516105679190611561565b9081526020016040518091039020836040516105839190611561565b908152602001604051809103902060020181905550826001866040516105a99190611561565b9081526020016040518091039020836040516105c59190611561565b908152602001604051809103902060030181905550846001866040516105eb9190611561565b9081526020016040518091039020836040516106079190611561565b9081526020016040518091039020600101908161062491906118dc565b50816001866040516106369190611561565b9081526020016040518091039020836040516106529190611561565b9081526020016040518091039020600401908161066f91906118dc565b505b949350505050565b60003360405160200161068c91906119ff565b604051602081830303815290604052805190602001206001846040516106b29190611561565b9081526020016040518091039020836040516106ce9190611561565b908152602001604051809103902060000160009054906101000a900473ffffffffffffffffffffffffffffffffffffffff1660405160200161071091906119ff565b60405160208183030381529060405280519060200120036108435760005b60008360405161073e9190611561565b908152602001604051809103902080549050811015610841578360405160200161076891906115c2565b6040516020818303038152906040528051906020012060008460405161078e9190611561565b908152602001604051809103902082815481106107ae576107ad6115e4565b5b906000526020600020016040516020016107c891906116ac565b604051602081830303815290604052805190602001200361082e576000836040516107f39190611561565b90815260200160405180910390208181548110610813576108126115e4565b5b9060005260206000200160006108299190610da7565b600191505b8080610839906116fd565b91505061072e565b505b92915050565b81600260003373ffffffffffffffffffffffffffffffffffffffff1673ffffffffffffffffffffffffffffffffffffffff1681526020019081526020016000206000018460405161089a9190611561565b908152602001604051809103902060008282546108b79190611a1a565b9250508190555060006064605f846001876040516108d59190611561565b9081526020016040518091039020856040516108f19190611561565b90815260200160405180910390206002015461090d91906119ae565b61091791906119ae565b6109219190611a7d565b90503373ffffffffffffffffffffffffffffffffffffffff166108fc829081150290604051600060405180830381858888f19350505050158015610969573d6000803e3d6000fd5b5050505050565b6000600260003373ffffffffffffffffffffffffffffffffffffffff1673ffffffffffffffffffffffffffffffffffffffff168152602001908152602001600020600001846040516109c29190611561565b9081526020016040518091039020541115610a515781600260003373ffffffffffffffffffffffffffffffffffffffff1673ffffffffffffffffffffffffffffffffffffffff16815260200190815260200160002060000184604051610a289190611561565b90815260200160405180910390206000828254610a459190611aae565b92505081905550610ab5565b81600260003373ffffffffffffffffffffffffffffffffffffffff1673ffffffffffffffffffffffffffffffffffffffff16815260200190815260200160002060000184604051610aa29190611561565b9081526020016040518091039020819055505b60006064605f84600187604051610acc9190611561565b908152602001604051809103902085604051610ae89190611561565b908152602001604051809103902060020154610b0491906119ae565b610b0e91906119ae565b610b189190611a7d565b9050600184604051610b2a9190611561565b908152602001604051809103902082604051610b469190611561565b908152602001604051809103902060000160009054906101000a900473ffffffffffffffffffffffffffffffffffffffff1673ffffffffffffffffffffffffffffffffffffffff166108fc829081150290604051600060405180830381858888f19350505050158015610bbd573d6000803e3d6000fd5b5050505050565b610bcc610de7565b600183604051610bdc9190611561565b908152602001604051809103902082604051610bf89190611561565b90815260200160405180910390206040518060a00160405290816000820160009054906101000a900473ffffffffffffffffffffffffffffffffffffffff1673ffffffffffffffffffffffffffffffffffffffff1673ffffffffffffffffffffffffffffffffffffffff168152602001600182018054610c779061149e565b80601f0160208091040260200160405190810160405280929190818152602001828054610ca39061149e565b8015610cf05780601f10610cc557610100808354040283529160200191610cf0565b820191906000526020600020905b815481529060010190602001808311610cd357829003601f168201915b505050505081526020016002820154815260200160038201548152602001600482018054610d1d9061149e565b80601f0160208091040260200160405190810160405280929190818152602001828054610d499061149e565b8015610d965780601f10610d6b57610100808354040283529160200191610d96565b820191906000526020600020905b815481529060010190602001808311610d7957829003601f168201915b505050505081525050905092915050565b508054610db39061149e565b6000825580601f10610dc55750610de4565b601f016020900490600052602060002090810190610de39190610e2c565b5b50565b6040518060a00160405280600073ffffffffffffffffffffffffffffffffffffffff168152602001606081526020016000815260200160008152602001606081525090565b5b80821115610e45576000816000905550600101610e2d565b5090565b600081519050919050565b600082825260208201905092915050565b6000819050602082019050919050565b600081519050919050565b600082825260208201905092915050565b60005b83811015610eaf578082015181840152602081019050610e94565b60008484015250505050565b6000601f19601f8301169050919050565b6000610ed782610e75565b610ee18185610e80565b9350610ef1818560208601610e91565b610efa81610ebb565b840191505092915050565b6000610f118383610ecc565b905092915050565b6000602082019050919050565b6000610f3182610e49565b610f3b8185610e54565b935083602082028501610f4d85610e65565b8060005b85811015610f895784840389528151610f6a8582610f05565b9450610f7583610f19565b925060208a01995050600181019050610f51565b50829750879550505050505092915050565b60006020820190508181036000830152610fb58184610f26565b905092915050565b6000604051905090565b600080fd5b600080fd5b600080fd5b600080fd5b7f4e487b7100000000000000000000000000000000000000000000000000000000600052604160045260246000fd5b61101382610ebb565b810181811067ffffffffffffffff8211171561103257611031610fdb565b5b80604052505050565b6000611045610fbd565b9050611051828261100a565b919050565b600067ffffffffffffffff82111561107157611070610fdb565b5b61107a82610ebb565b9050602081019050919050565b82818337600083830152505050565b60006110a96110a484611056565b61103b565b9050828152602081018484840111156110c5576110c4610fd6565b5b6110d0848285611087565b509392505050565b600082601f8301126110ed576110ec610fd1565b5b81356110fd848260208601611096565b91505092915050565b6000819050919050565b61111981611106565b811461112457600080fd5b50565b60008135905061113681611110565b92915050565b6000806000806080858703121561115657611155610fc7565b5b600085013567ffffffffffffffff81111561117457611173610fcc565b5b611180878288016110d8565b945050602061119187828801611127565b93505060406111a287828801611127565b925050606085013567ffffffffffffffff8111156111c3576111c2610fcc565b5b6111cf878288016110d8565b91505092959194509250565b60008115159050919050565b6111f0816111db565b82525050565b600060208201905061120b60008301846111e7565b92915050565b6000806040838503121561122857611227610fc7565b5b600083013567ffffffffffffffff81111561124657611245610fcc565b5b611252858286016110d8565b925050602083013567ffffffffffffffff81111561127357611272610fcc565b5b61127f858286016110d8565b9150509250929050565b6000806000606084860312156112a2576112a1610fc7565b5b600084013567ffffffffffffffff8111156112c0576112bf610fcc565b5b6112cc868287016110d8565b93505060206112dd86828701611127565b925050604084013567ffffffffffffffff8111156112fe576112fd610fcc565b5b61130a868287016110d8565b9150509250925092565b600073ffffffffffffffffffffffffffffffffffffffff82169050919050565b600061133f82611314565b9050919050565b61134f81611334565b82525050565b61135e81611106565b82525050565b600060a08301600083015161137c6000860182611346565b50602083015184820360208601526113948282610ecc565b91505060408301516113a96040860182611355565b5060608301516113bc6060860182611355565b50608083015184820360808601526113d48282610ecc565b9150508091505092915050565b600060208201905081810360008301526113fb8184611364565b905092915050565b600081905092915050565b7f4255590000000000000000000000000000000000000000000000000000000000600082015250565b6000611444600383611403565b915061144f8261140e565b600382019050919050565b600061146582611437565b9150819050919050565b7f4e487b7100000000000000000000000000000000000000000000000000000000600052602260045260246000fd5b600060028204905060018216806114b657607f821691505b6020821081036114c9576114c861146f565b5b50919050565b7f53454c4c00000000000000000000000000000000000000000000000000000000600082015250565b6000611505600483611403565b9150611510826114cf565b600482019050919050565b6000611526826114f8565b9150819050919050565b600061153b82610e75565b6115458185611403565b9350611555818560208601610e91565b80840191505092915050565b600061156d8284611530565b915081905092915050565b600082825260208201905092915050565b600061159482610e75565b61159e8185611578565b93506115ae818560208601610e91565b6115b781610ebb565b840191505092915050565b600060208201905081810360008301526115dc8184611589565b905092915050565b7f4e487b7100000000000000000000000000000000000000000000000000000000600052603260045260246000fd5b60008190508160005260206000209050919050565b600081546116358161149e565b61163f8186611578565b9450600182166000811461165a5760018114611670576116a3565b60ff1983168652811515602002860193506116a3565b61167985611613565b60005b8381101561169b5781548189015260018201915060208101905061167c565b808801955050505b50505092915050565b600060208201905081810360008301526116c68184611628565b905092915050565b7f4e487b7100000000000000000000000000000000000000000000000000000000600052601160045260246000fd5b600061170882611106565b91507fffffffffffffffffffffffffffffffffffffffffffffffffffffffffffffffff820361173a576117396116ce565b5b600182019050919050565b60006020601f8301049050919050565b600082821b905092915050565b6000600883026117927fffffffffffffffffffffffffffffffffffffffffffffffffffffffffffffffff82611755565b61179c8683611755565b95508019841693508086168417925050509392505050565b6000819050919050565b60006117d96117d46117cf84611106565b6117b4565b611106565b9050919050565b6000819050919050565b6117f3836117be565b6118076117ff826117e0565b848454611762565b825550505050565b600090565b61181c61180f565b6118278184846117ea565b505050565b5b8181101561184b57611840600082611814565b60018101905061182d565b5050565b601f8211156118905761186181611613565b61186a84611745565b81016020851015611879578190505b61188d61188585611745565b83018261182c565b50505b505050565b600082821c905092915050565b60006118b360001984600802611895565b1980831691505092915050565b60006118cc83836118a2565b9150826002028217905092915050565b6118e582610e75565b67ffffffffffffffff8111156118fe576118fd610fdb565b5b611908825461149e565b61191382828561184f565b600060209050601f8311600181146119465760008415611934578287015190505b61193e85826118c0565b8655506119a6565b601f19841661195486611613565b60005b8281101561197c57848901518255600182019150602085019450602081019050611957565b868310156119995784890151611995601f8916826118a2565b8355505b6001600288020188555050505b505050505050565b60006119b982611106565b91506119c483611106565b92508282026119d281611106565b915082820484148315176119e9576119e86116ce565b5b5092915050565b6119f981611334565b82525050565b6000602082019050611a1460008301846119f0565b92915050565b6000611a2582611106565b9150611a3083611106565b9250828203905081811115611a4857611a476116ce565b5b92915050565b7f4e487b7100000000000000000000000000000000000000000000000000000000600052601260045260246000fd5b6000611a8882611106565b9150611a9383611106565b925082611aa357611aa2611a4e565b5b828204905092915050565b6000611ab982611106565b9150611ac483611106565b9250828201905080821115611adc57611adb6116ce565b5b9291505056fea2646970667358221220cd91a6ef26bcf35df1a03f28f3d7ffad91a37f3a7b04395f8f7b4c8dca81f87a64736f6c63430008110033",
  "immutableReferences": {},
  "source": "// SPDX-License-Identifier: MIT\r\npragma solidity ^0.8.17;\r\n\r\ncontract FruitShop{\r\n    //  ->  -> , \r\n    // \r\n    mapping (string=>string[]) fruitList;\r\n    //  \r\n    // { : ,,}\r\n    struct SellFruit{\r\n        address owner;\r\n        string name;\r\n        uint price;\r\n        uint num;\r\n        string typeIs;\r\n    }\r\n    mapping (string=>mapping(string=>SellFruit)) makeShop;\r\n    //  \r\n    function registerFruit(string memory _name,uint _price, uint _num,string memory _typeIs) public payable returns(bool check){\r\n        check = true;\r\n        for(uint i = 0 ;i<fruitList[_typeIs].length;i++){\r\n            if(keccak256(abi.encode(fruitList[_typeIs][i]))  == keccak256(abi.encode(_name))) check = false;\r\n        }\r\n        if(check == true) {\r\n            fruitList[_typeIs].push(_name);\r\n        makeShop[_name][_typeIs].owner = msg.sender;\r\n            makeShop[_name][_typeIs].price = _price * 10 ** 18;\r\n            makeShop[_name][_typeIs].num = _num;\r\n            makeShop[_name][_typeIs].name = _name;\r\n            makeShop[_name][_typeIs].typeIs = _typeIs;\r\n        }\r\n        return check;\r\n    }\r\n    //  \r\n    function deleteFruit(string memory _name,string memory _typeIs) public returns(bool check){\r\n        check = false;\r\n        if(keccak256(abi.encode(makeShop[_name][_typeIs].owner))  == keccak256(abi.encode(msg.sender))){\r\n            for(uint i = 0 ;i<fruitList[_typeIs].length; i++){\r\n                if(keccak256(abi.encode(fruitList[_typeIs][i])) == keccak256(abi.encode(_name))){\r\n                    delete fruitList[_typeIs][i];\r\n                    check = true;\r\n                }\r\n            }\r\n        }\r\n        return check;\r\n    }\r\n    //  \r\n    // { : {  : }}\r\n    struct Fruit{\r\n        mapping(string=>uint) num;\r\n    }\r\n    mapping (address=>Fruit) fruitWallet;\r\n\r\n    //  \r\n    function buyFruit(string memory _name, uint _num, string memory _typeIs) public payable{\r\n        if(fruitWallet[msg.sender].num[_name] > 0){\r\n            fruitWallet[msg.sender].num[_name] += _num;\r\n        }else{\r\n            fruitWallet[msg.sender].num[_name] = _num;\r\n        }\r\n    uint sendMoney = makeShop[_name][_typeIs].price * _num * 95 / 100;\r\n    payable(makeShop[_name][_typeIs].owner).transfer(sendMoney);\r\n    }\r\n    //  \r\n    function sellFruit(string memory _name, uint _num,string memory _typeIs) public payable {\r\n            fruitWallet[msg.sender].num[_name] -= _num;\r\n            uint sendMoney = makeShop[_name][_typeIs].price * _num * 95 / 100;\r\n            payable(msg.sender).transfer(sendMoney);\r\n    }\r\n    //  \r\n    function getBuyFruitList() public view returns(string[] memory)  {\r\n        return fruitList[\"BUY\"];\r\n    }\r\n    function getSellFruitList() public view returns(string[] memory)  {\r\n        return fruitList[\"SELL\"];\r\n    }\r\n    //   \r\n    function getSellerList(string memory _name, string memory _typeIs) public view returns(SellFruit memory){\r\n    return makeShop[_name][_typeIs];\r\n    }\r\n}",
  "sourcePath": "C:\\Users\\KGA_030\\Desktop\\class\\React_project\\ethfruitshop\\smartContract\\contracts\\FruitShop.sol",
  "compiler": {
    "name": "solc",
    "version": "0.8.17+commit.8df45f5f.Emscripten.clang"
  },
  "schemaVersion": "3.4.11",
  "updatedAt": "2022-12-01T08:34:01.984Z",
  "networkType": "ethereum",
  "devdoc": {
    "kind": "dev",
    "methods": {},
    "version": 1
  },
  "userdoc": {
    "kind": "user",
    "methods": {},
    "version": 1
  }
}