{
  "contractName": "FruitShop",
  "abi": [
    {
      "inputs": [
        {
          "internalType": "string",
          "name": "_name",
          "type": "string"
        },
        {
          "internalType": "string",
          "name": "_symbol",
          "type": "string"
        },
        {
          "internalType": "uint256",
          "name": "_amount",
          "type": "uint256"
        },
        {
          "internalType": "uint256",
          "name": "_carrot",
          "type": "uint256"
        },
        {
          "internalType": "uint256",
          "name": "_apple",
          "type": "uint256"
        },
        {
          "internalType": "uint256",
          "name": "_lemon",
          "type": "uint256"
        },
        {
          "internalType": "uint256",
          "name": "_initPrice",
          "type": "uint256"
        }
      ],
      "stateMutability": "nonpayable",
      "type": "constructor"
    },
    {
      "anonymous": false,
      "inputs": [
        {
          "indexed": false,
          "internalType": "address",
          "name": "owner",
          "type": "address"
        },
        {
          "indexed": false,
          "internalType": "address",
          "name": "spender",
          "type": "address"
        },
        {
          "indexed": false,
          "internalType": "uint256",
          "name": "value",
          "type": "uint256"
        }
      ],
      "name": "Approval",
      "type": "event"
    },
    {
      "anonymous": false,
      "inputs": [
        {
          "indexed": false,
          "internalType": "address",
          "name": "from",
          "type": "address"
        },
        {
          "indexed": false,
          "internalType": "address",
          "name": "to",
          "type": "address"
        },
        {
          "indexed": false,
          "internalType": "uint256",
          "name": "value",
          "type": "uint256"
        }
      ],
      "name": "Transfer",
      "type": "event"
    },
    {
      "anonymous": false,
      "inputs": [
        {
          "indexed": false,
          "internalType": "address",
          "name": "from",
          "type": "address"
        },
        {
          "indexed": false,
          "internalType": "address",
          "name": "to",
          "type": "address"
        },
        {
          "indexed": false,
          "internalType": "string",
          "name": "name",
          "type": "string"
        },
        {
          "indexed": false,
          "internalType": "uint256",
          "name": "num",
          "type": "uint256"
        },
        {
          "indexed": false,
          "internalType": "uint256",
          "name": "value",
          "type": "uint256"
        },
        {
          "indexed": false,
          "internalType": "uint256",
          "name": "date",
          "type": "uint256"
        },
        {
          "indexed": false,
          "internalType": "string",
          "name": "pay",
          "type": "string"
        }
      ],
      "name": "TransferETH",
      "type": "event"
    },
    {
      "anonymous": false,
      "inputs": [
        {
          "indexed": false,
          "internalType": "address",
          "name": "from",
          "type": "address"
        },
        {
          "indexed": false,
          "internalType": "address",
          "name": "to",
          "type": "address"
        },
        {
          "indexed": false,
          "internalType": "string",
          "name": "name",
          "type": "string"
        },
        {
          "indexed": false,
          "internalType": "uint256",
          "name": "num",
          "type": "uint256"
        },
        {
          "indexed": false,
          "internalType": "uint256",
          "name": "value",
          "type": "uint256"
        },
        {
          "indexed": false,
          "internalType": "uint256",
          "name": "date",
          "type": "uint256"
        },
        {
          "indexed": false,
          "internalType": "string",
          "name": "pay",
          "type": "string"
        }
      ],
      "name": "TransferFRT",
      "type": "event"
    },
    {
      "inputs": [
        {
          "internalType": "address",
          "name": "",
          "type": "address"
        },
        {
          "internalType": "address",
          "name": "",
          "type": "address"
        }
      ],
      "name": "allowance",
      "outputs": [
        {
          "internalType": "uint256",
          "name": "",
          "type": "uint256"
        }
      ],
      "stateMutability": "view",
      "type": "function",
      "constant": true
    },
    {
      "inputs": [
        {
          "internalType": "address",
          "name": "_spender",
          "type": "address"
        },
        {
          "internalType": "uint256",
          "name": "_amount",
          "type": "uint256"
        }
      ],
      "name": "approve",
      "outputs": [],
      "stateMutability": "nonpayable",
      "type": "function"
    },
    {
      "inputs": [
        {
          "internalType": "address",
          "name": "_account",
          "type": "address"
        }
      ],
      "name": "balanceOf",
      "outputs": [
        {
          "internalType": "uint256",
          "name": "",
          "type": "uint256"
        }
      ],
      "stateMutability": "view",
      "type": "function",
      "constant": true
    },
    {
      "inputs": [
        {
          "internalType": "address",
          "name": "",
          "type": "address"
        }
      ],
      "name": "balances",
      "outputs": [
        {
          "internalType": "uint256",
          "name": "",
          "type": "uint256"
        }
      ],
      "stateMutability": "view",
      "type": "function",
      "constant": true
    },
    {
      "inputs": [
        {
          "internalType": "uint256",
          "name": "_amount",
          "type": "uint256"
        }
      ],
      "name": "burn",
      "outputs": [],
      "stateMutability": "nonpayable",
      "type": "function"
    },
    {
      "inputs": [],
      "name": "decimals",
      "outputs": [
        {
          "internalType": "uint256",
          "name": "",
          "type": "uint256"
        }
      ],
      "stateMutability": "view",
      "type": "function",
      "constant": true
    },
    {
      "inputs": [],
      "name": "ethCanBuy",
      "outputs": [
        {
          "internalType": "uint256",
          "name": "",
          "type": "uint256"
        }
      ],
      "stateMutability": "view",
      "type": "function",
      "constant": true
    },
    {
      "inputs": [],
      "name": "name",
      "outputs": [
        {
          "internalType": "string",
          "name": "",
          "type": "string"
        }
      ],
      "stateMutability": "view",
      "type": "function",
      "constant": true
    },
    {
      "inputs": [],
      "name": "owner",
      "outputs": [
        {
          "internalType": "address",
          "name": "",
          "type": "address"
        }
      ],
      "stateMutability": "view",
      "type": "function",
      "constant": true
    },
    {
      "inputs": [],
      "name": "symbol",
      "outputs": [
        {
          "internalType": "string",
          "name": "",
          "type": "string"
        }
      ],
      "stateMutability": "view",
      "type": "function",
      "constant": true
    },
    {
      "inputs": [],
      "name": "totalSupply",
      "outputs": [
        {
          "internalType": "uint256",
          "name": "",
          "type": "uint256"
        }
      ],
      "stateMutability": "view",
      "type": "function",
      "constant": true
    },
    {
      "inputs": [
        {
          "internalType": "address",
          "name": "_recipient",
          "type": "address"
        },
        {
          "internalType": "uint256",
          "name": "_amount",
          "type": "uint256"
        }
      ],
      "name": "transfer",
      "outputs": [],
      "stateMutability": "nonpayable",
      "type": "function"
    },
    {
      "inputs": [
        {
          "internalType": "address",
          "name": "_sender",
          "type": "address"
        },
        {
          "internalType": "address",
          "name": "_recipient",
          "type": "address"
        },
        {
          "internalType": "uint256",
          "name": "_amount",
          "type": "uint256"
        }
      ],
      "name": "transferFrom",
      "outputs": [],
      "stateMutability": "nonpayable",
      "type": "function"
    },
    {
      "stateMutability": "payable",
      "type": "receive",
      "payable": true
    },
    {
      "inputs": [],
      "name": "getFruitInitList",
      "outputs": [
        {
          "internalType": "string[]",
          "name": "",
          "type": "string[]"
        }
      ],
      "stateMutability": "view",
      "type": "function",
      "constant": true
    },
    {
      "inputs": [],
      "name": "transferEthToFrt",
      "outputs": [],
      "stateMutability": "payable",
      "type": "function",
      "payable": true
    },
    {
      "inputs": [
        {
          "internalType": "uint256",
          "name": "_amount",
          "type": "uint256"
        }
      ],
      "name": "transferFrtToEth",
      "outputs": [],
      "stateMutability": "payable",
      "type": "function",
      "payable": true
    },
    {
      "inputs": [
        {
          "internalType": "string",
          "name": "_name",
          "type": "string"
        }
      ],
      "name": "getFruitShop",
      "outputs": [
        {
          "components": [
            {
              "internalType": "uint256",
              "name": "num",
              "type": "uint256"
            },
            {
              "internalType": "uint256",
              "name": "price",
              "type": "uint256"
            }
          ],
          "internalType": "struct FruitShop.FruitInfo",
          "name": "",
          "type": "tuple"
        }
      ],
      "stateMutability": "view",
      "type": "function",
      "constant": true
    },
    {
      "inputs": [
        {
          "internalType": "string",
          "name": "_name",
          "type": "string"
        },
        {
          "internalType": "uint256",
          "name": "_amount",
          "type": "uint256"
        }
      ],
      "name": "buyFruitsByETH",
      "outputs": [
        {
          "internalType": "uint256",
          "name": "",
          "type": "uint256"
        }
      ],
      "stateMutability": "payable",
      "type": "function",
      "payable": true
    },
    {
      "inputs": [
        {
          "internalType": "string",
          "name": "_name",
          "type": "string"
        },
        {
          "internalType": "uint256",
          "name": "_amount",
          "type": "uint256"
        }
      ],
      "name": "buyFruitsByFRT",
      "outputs": [
        {
          "internalType": "uint256",
          "name": "",
          "type": "uint256"
        }
      ],
      "stateMutability": "payable",
      "type": "function",
      "payable": true
    },
    {
      "inputs": [
        {
          "internalType": "string",
          "name": "_typeIs",
          "type": "string"
        }
      ],
      "name": "getFruitTrader",
      "outputs": [
        {
          "internalType": "address[]",
          "name": "",
          "type": "address[]"
        }
      ],
      "stateMutability": "view",
      "type": "function",
      "constant": true
    },
    {
      "inputs": [
        {
          "internalType": "string",
          "name": "_name",
          "type": "string"
        },
        {
          "internalType": "uint256",
          "name": "_price",
          "type": "uint256"
        },
        {
          "internalType": "uint256",
          "name": "_num",
          "type": "uint256"
        },
        {
          "internalType": "string",
          "name": "_typeIs",
          "type": "string"
        }
      ],
      "name": "registerFruit",
      "outputs": [],
      "stateMutability": "payable",
      "type": "function",
      "payable": true
    },
    {
      "inputs": [
        {
          "internalType": "string",
          "name": "_name",
          "type": "string"
        },
        {
          "internalType": "string",
          "name": "_typeIs",
          "type": "string"
        }
      ],
      "name": "deleteFruit",
      "outputs": [],
      "stateMutability": "payable",
      "type": "function",
      "payable": true
    },
    {
      "inputs": [
        {
          "internalType": "string",
          "name": "_name",
          "type": "string"
        },
        {
          "internalType": "string",
          "name": "_typeIs",
          "type": "string"
        }
      ],
      "name": "refund",
      "outputs": [],
      "stateMutability": "payable",
      "type": "function",
      "payable": true
    },
    {
      "inputs": [],
      "name": "getFruitWallet",
      "outputs": [
        {
          "internalType": "uint256[]",
          "name": "",
          "type": "uint256[]"
        }
      ],
      "stateMutability": "view",
      "type": "function",
      "constant": true
    },
    {
      "inputs": [],
      "name": "hasFruit",
      "outputs": [
        {
          "internalType": "string[]",
          "name": "",
          "type": "string[]"
        }
      ],
      "stateMutability": "view",
      "type": "function",
      "constant": true
    },
    {
      "inputs": [
        {
          "internalType": "string",
          "name": "_name",
          "type": "string"
        },
        {
          "internalType": "uint256",
          "name": "_num",
          "type": "uint256"
        },
        {
          "internalType": "string",
          "name": "_typeIs",
          "type": "string"
        },
        {
          "internalType": "address",
          "name": "_seller",
          "type": "address"
        }
      ],
      "name": "buyFruit",
      "outputs": [],
      "stateMutability": "payable",
      "type": "function",
      "payable": true
    },
    {
      "inputs": [
        {
          "internalType": "string",
          "name": "_name",
          "type": "string"
        },
        {
          "internalType": "uint256",
          "name": "_num",
          "type": "uint256"
        },
        {
          "internalType": "string",
          "name": "_typeIs",
          "type": "string"
        },
        {
          "internalType": "address",
          "name": "_seller",
          "type": "address"
        }
      ],
      "name": "sellFruit",
      "outputs": [],
      "stateMutability": "payable",
      "type": "function",
      "payable": true
    },
    {
      "inputs": [
        {
          "internalType": "string",
          "name": "_name",
          "type": "string"
        },
        {
          "internalType": "string",
          "name": "_typeIs",
          "type": "string"
        },
        {
          "internalType": "address",
          "name": "_seller",
          "type": "address"
        }
      ],
      "name": "getSellerList",
      "outputs": [
        {
          "components": [
            {
              "internalType": "address",
              "name": "owner",
              "type": "address"
            },
            {
              "internalType": "string",
              "name": "name",
              "type": "string"
            },
            {
              "internalType": "uint256",
              "name": "price",
              "type": "uint256"
            },
            {
              "internalType": "uint256",
              "name": "num",
              "type": "uint256"
            },
            {
              "internalType": "string",
              "name": "typeIs",
              "type": "string"
            },
            {
              "internalType": "string",
              "name": "status",
              "type": "string"
            },
            {
              "internalType": "uint256",
              "name": "date",
              "type": "uint256"
            }
          ],
          "internalType": "struct FruitShop.SellFruit",
          "name": "",
          "type": "tuple"
        }
      ],
      "stateMutability": "view",
      "type": "function",
      "constant": true
    }
  ],
  "bytecode": "0x6080604052601260025560c86008553480156200001b57600080fd5b506040516200551d3803806200551d833981810160405281019062000041919062000578565b33600760006101000a81548173ffffffffffffffffffffffffffffffffffffffff021916908373ffffffffffffffffffffffffffffffffffffffff1602179055508660009081620000939190620008aa565b508560019081620000a59190620008aa565b50670de0b6b3a764000081620000bc9190620009c0565b9050836009604051620000cf9062000a66565b908152602001604051809103902060000181905550826009604051620000f59062000acd565b9081526020016040518091039020600001819055508160096040516200011b9062000b34565b9081526020016040518091039020600001819055506003816200013f9190620009c0565b60096040516200014f9062000a66565b908152602001604051809103902060010181905550806009604051620001759062000acd565b908152602001604051809103902060010181905550600281620001999190620009c0565b6009604051620001a99062000b34565b908152602001604051809103902060010181905550600680600181540180825580915050600190039060005260206000200160006040518060400160405280600681526020017f636172726f74000000000000000000000000000000000000000000000000000081525090919091509081620002269190620008aa565b50600680600181540180825580915050600190039060005260206000200160006040518060400160405280600581526020017f6c656d6f6e000000000000000000000000000000000000000000000000000000815250909190915090816200028f9190620008aa565b50600680600181540180825580915050600190039060005260206000200160006040518060400160405280600b81526020017f6170706c652d77686f6c6500000000000000000000000000000000000000000081525090919091509081620002f89190620008aa565b5062000327600254600a6200030e919062000c9f565b866200031b9190620009c0565b6200033460201b60201c565b5050505050505062000d2b565b80600460003373ffffffffffffffffffffffffffffffffffffffff1673ffffffffffffffffffffffffffffffffffffffff168152602001908152602001600020600082825462000385919062000cf0565b925050819055508060036000828254620003a0919062000cf0565b9250508190555050565b6000604051905090565b600080fd5b600080fd5b600080fd5b600080fd5b6000601f19601f8301169050919050565b7f4e487b7100000000000000000000000000000000000000000000000000000000600052604160045260246000fd5b6200041382620003c8565b810181811067ffffffffffffffff82111715620004355762000434620003d9565b5b80604052505050565b60006200044a620003aa565b905062000458828262000408565b919050565b600067ffffffffffffffff8211156200047b576200047a620003d9565b5b6200048682620003c8565b9050602081019050919050565b60005b83811015620004b357808201518184015260208101905062000496565b60008484015250505050565b6000620004d6620004d0846200045d565b6200043e565b905082815260208101848484011115620004f557620004f4620003c3565b5b6200050284828562000493565b509392505050565b600082601f830112620005225762000521620003be565b5b815162000534848260208601620004bf565b91505092915050565b6000819050919050565b62000552816200053d565b81146200055e57600080fd5b50565b600081519050620005728162000547565b92915050565b600080600080600080600060e0888a0312156200059a5762000599620003b4565b5b600088015167ffffffffffffffff811115620005bb57620005ba620003b9565b5b620005c98a828b016200050a565b975050602088015167ffffffffffffffff811115620005ed57620005ec620003b9565b5b620005fb8a828b016200050a565b96505060406200060e8a828b0162000561565b9550506060620006218a828b0162000561565b9450506080620006348a828b0162000561565b93505060a0620006478a828b0162000561565b92505060c06200065a8a828b0162000561565b91505092959891949750929550565b600081519050919050565b7f4e487b7100000000000000000000000000000000000000000000000000000000600052602260045260246000fd5b60006002820490506001821680620006bc57607f821691505b602082108103620006d257620006d162000674565b5b50919050565b60008190508160005260206000209050919050565b60006020601f8301049050919050565b600082821b905092915050565b6000600883026200073c7fffffffffffffffffffffffffffffffffffffffffffffffffffffffffffffffff82620006fd565b620007488683620006fd565b95508019841693508086168417925050509392505050565b6000819050919050565b60006200078b620007856200077f846200053d565b62000760565b6200053d565b9050919050565b6000819050919050565b620007a7836200076a565b620007bf620007b68262000792565b8484546200070a565b825550505050565b600090565b620007d6620007c7565b620007e38184846200079c565b505050565b5b818110156200080b57620007ff600082620007cc565b600181019050620007e9565b5050565b601f8211156200085a576200082481620006d8565b6200082f84620006ed565b810160208510156200083f578190505b620008576200084e85620006ed565b830182620007e8565b50505b505050565b600082821c905092915050565b60006200087f600019846008026200085f565b1980831691505092915050565b60006200089a83836200086c565b9150826002028217905092915050565b620008b58262000669565b67ffffffffffffffff811115620008d157620008d0620003d9565b5b620008dd8254620006a3565b620008ea8282856200080f565b600060209050601f8311600181146200092257600084156200090d578287015190505b6200091985826200088c565b86555062000989565b601f1984166200093286620006d8565b60005b828110156200095c5784890151825560018201915060208501945060208101905062000935565b868310156200097c578489015162000978601f8916826200086c565b8355505b6001600288020188555050505b505050505050565b7f4e487b7100000000000000000000000000000000000000000000000000000000600052601160045260246000fd5b6000620009cd826200053d565b9150620009da836200053d565b9250828202620009ea816200053d565b9150828204841483151762000a045762000a0362000991565b5b5092915050565b600081905092915050565b7f636172726f740000000000000000000000000000000000000000000000000000600082015250565b600062000a4e60068362000a0b565b915062000a5b8262000a16565b600682019050919050565b600062000a738262000a3f565b9150819050919050565b7f6170706c652d77686f6c65000000000000000000000000000000000000000000600082015250565b600062000ab5600b8362000a0b565b915062000ac28262000a7d565b600b82019050919050565b600062000ada8262000aa6565b9150819050919050565b7f6c656d6f6e000000000000000000000000000000000000000000000000000000600082015250565b600062000b1c60058362000a0b565b915062000b298262000ae4565b600582019050919050565b600062000b418262000b0d565b9150819050919050565b60008160011c9050919050565b6000808291508390505b600185111562000baa5780860481111562000b825762000b8162000991565b5b600185161562000b925780820291505b808102905062000ba28562000b4b565b945062000b62565b94509492505050565b60008262000bc5576001905062000c98565b8162000bd5576000905062000c98565b816001811462000bee576002811462000bf95762000c2f565b600191505062000c98565b60ff84111562000c0e5762000c0d62000991565b5b8360020a91508482111562000c285762000c2762000991565b5b5062000c98565b5060208310610133831016604e8410600b841016171562000c695782820a90508381111562000c635762000c6262000991565b5b62000c98565b62000c78848484600162000b58565b9250905081840481111562000c925762000c9162000991565b5b81810290505b9392505050565b600062000cac826200053d565b915062000cb9836200053d565b925062000ce87fffffffffffffffffffffffffffffffffffffffffffffffffffffffffffffffff848462000bb3565b905092915050565b600062000cfd826200053d565b915062000d0a836200053d565b925082820190508082111562000d255762000d2462000991565b5b92915050565b6147e28062000d3b6000396000f3fe6080604052600436106101bb5760003560e01c806364b90294116100ec578063ab696fbe1161008a578063d1bf410111610064578063d1bf410114610791578063dd62ed3e146107ce578063de5144931461080b578063e053e34914610848576103d9565b8063ab696fbe1461071a578063b97dfaca14610736578063cc79b96614610761576103d9565b80638da5cb5b116100c65780638da5cb5b1461067057806395d89b411461069b578063a4f9b0e4146106c6578063a9059cbb146106f1576103d9565b806364b902941461060d57806368ec634e1461061757806370a0823114610633576103d9565b806331b0a2c6116101595780634585857311610133578063458585731461059d57806348328a20146105b95780634835e15a146105d557806351527f91146105f1576103d9565b806331b0a2c61461051957806342966c6814610544578063433ae9341461056d576103d9565b806318160ddd1161019557806318160ddd1461045d57806323b872dd1461048857806327e235e3146104b1578063313ce567146104ee576103d9565b806306fdde03146103de578063083a686214610409578063095ea7b314610434576103d9565b366103d957600034036101cd57600080fd5b6000600854346101dd9190613243565b90508060046000600760009054906101000a900473ffffffffffffffffffffffffffffffffffffffff1673ffffffffffffffffffffffffffffffffffffffff1673ffffffffffffffffffffffffffffffffffffffff16815260200190815260200160002054101561024d57600080fd5b8060046000600760009054906101000a900473ffffffffffffffffffffffffffffffffffffffff1673ffffffffffffffffffffffffffffffffffffffff1673ffffffffffffffffffffffffffffffffffffffff16815260200190815260200160002060008282546102be9190613285565b9250508190555080600460003373ffffffffffffffffffffffffffffffffffffffff1673ffffffffffffffffffffffffffffffffffffffff168152602001908152602001600020600082825461031491906132b9565b92505081905550600760009054906101000a900473ffffffffffffffffffffffffffffffffffffffff1673ffffffffffffffffffffffffffffffffffffffff163373ffffffffffffffffffffffffffffffffffffffff160361037a5761037981610885565b5b7fddf252ad1be2c89b69c2b068fc378daa952ba7f163c4a11628f55a4df523b3ef600760009054906101000a900473ffffffffffffffffffffffffffffffffffffffff1633836040516103cf9392919061333d565b60405180910390a1005b600080fd5b3480156103ea57600080fd5b506103f36108f7565b6040516104009190613404565b60405180910390f35b34801561041557600080fd5b5061041e610985565b60405161042b9190613532565b60405180910390f35b34801561044057600080fd5b5061045b600480360381019061045691906135c0565b610a5e565b005b34801561046957600080fd5b50610472610ae3565b60405161047f9190613600565b60405180910390f35b34801561049457600080fd5b506104af60048036038101906104aa919061361b565b610ae9565b005b3480156104bd57600080fd5b506104d860048036038101906104d3919061366e565b610cb6565b6040516104e59190613600565b60405180910390f35b3480156104fa57600080fd5b50610503610cce565b6040516105109190613600565b60405180910390f35b34801561052557600080fd5b5061052e610cd4565b60405161053b9190613600565b60405180910390f35b34801561055057600080fd5b5061056b6004803603810190610566919061369b565b610cda565b005b610587600480360381019061058291906137fd565b610d4c565b6040516105949190613600565b60405180910390f35b6105b760048036038101906105b29190613859565b6110db565b005b6105d360048036038101906105ce91906138f8565b6113a0565b005b6105ef60048036038101906105ea9190613970565b6114f0565b005b61060b60048036038101906106069190613859565b611c04565b005b610615612159565b005b610631600480360381019061062c91906138f8565b6122b7565b005b34801561063f57600080fd5b5061065a6004803603810190610655919061366e565b6123d4565b6040516106679190613600565b60405180910390f35b34801561067c57600080fd5b5061068561241d565b6040516106929190613a0f565b60405180910390f35b3480156106a757600080fd5b506106b0612443565b6040516106bd9190613404565b60405180910390f35b3480156106d257600080fd5b506106db6124d1565b6040516106e89190613532565b60405180910390f35b3480156106fd57600080fd5b50610718600480360381019061071391906135c0565b6125e7565b005b610734600480360381019061072f919061369b565b612697565b005b34801561074257600080fd5b5061074b6127e4565b6040516107589190613ae8565b60405180910390f35b61077b600480360381019061077691906137fd565b612979565b6040516107889190613600565b60405180910390f35b34801561079d57600080fd5b506107b860048036038101906107b39190613b0a565b612dc3565b6040516107c59190613b82565b60405180910390f35b3480156107da57600080fd5b506107f560048036038101906107f09190613b9d565b612e0f565b6040516108029190613600565b60405180910390f35b34801561081757600080fd5b50610832600480360381019061082d9190613bdd565b612e34565b60405161083f9190613d21565b60405180910390f35b34801561085457600080fd5b5061086f600480360381019061086a9190613b0a565b6130f1565b60405161087c9190613df2565b60405180910390f35b80600460003373ffffffffffffffffffffffffffffffffffffffff1673ffffffffffffffffffffffffffffffffffffffff16815260200190815260200160002060008282546108d491906132b9565b9250508190555080600360008282546108ed91906132b9565b9250508190555050565b6000805461090490613e43565b80601f016020809104026020016040519081016040528092919081815260200182805461093090613e43565b801561097d5780601f106109525761010080835404028352916020019161097d565b820191906000526020600020905b81548152906001019060200180831161096057829003601f168201915b505050505081565b60606006805480602002602001604051908101604052809291908181526020016000905b82821015610a555783829060005260206000200180546109c890613e43565b80601f01602080910402602001604051908101604052809291908181526020018280546109f490613e43565b8015610a415780601f10610a1657610100808354040283529160200191610a41565b820191906000526020600020905b815481529060010190602001808311610a2457829003601f168201915b5050505050815260200190600101906109a9565b50505050905090565b80600560003373ffffffffffffffffffffffffffffffffffffffff1673ffffffffffffffffffffffffffffffffffffffff16815260200190815260200160002060008473ffffffffffffffffffffffffffffffffffffffff1673ffffffffffffffffffffffffffffffffffffffff168152602001908152602001600020819055505050565b60035481565b80600560008573ffffffffffffffffffffffffffffffffffffffff1673ffffffffffffffffffffffffffffffffffffffff16815260200190815260200160002060003373ffffffffffffffffffffffffffffffffffffffff1673ffffffffffffffffffffffffffffffffffffffff168152602001908152602001600020541015610b7257600080fd5b80600560008573ffffffffffffffffffffffffffffffffffffffff1673ffffffffffffffffffffffffffffffffffffffff16815260200190815260200160002060003373ffffffffffffffffffffffffffffffffffffffff1673ffffffffffffffffffffffffffffffffffffffff1681526020019081526020016000206000828254610bfe9190613285565b9250508190555080600460008573ffffffffffffffffffffffffffffffffffffffff1673ffffffffffffffffffffffffffffffffffffffff1681526020019081526020016000206000828254610c549190613285565b9250508190555080600460008473ffffffffffffffffffffffffffffffffffffffff1673ffffffffffffffffffffffffffffffffffffffff1681526020019081526020016000206000828254610caa91906132b9565b92505081905550505050565b60046020528060005260406000206000915090505481565b60025481565b60085481565b80600460003373ffffffffffffffffffffffffffffffffffffffff1673ffffffffffffffffffffffffffffffffffffffff1681526020019081526020016000206000828254610d299190613285565b925050819055508060036000828254610d429190613285565b9250508190555050565b600081600984604051610d5f9190613eb0565b9081526020016040518091039020600001541015610d7c57600080fd5b81600984604051610d8d9190613eb0565b90815260200160405180910390206000016000828254610dad9190613285565b925050819055506000805b600d60003373ffffffffffffffffffffffffffffffffffffffff1673ffffffffffffffffffffffffffffffffffffffff16815260200190815260200160002080549050811015610ec75784604051602001610e139190613404565b60405160208183030381529060405280519060200120600d60003373ffffffffffffffffffffffffffffffffffffffff1673ffffffffffffffffffffffffffffffffffffffff1681526020019081526020016000208281548110610e7a57610e79613ec7565b5b90600052602060002001604051602001610e949190613f8f565b6040516020818303038152906040528051906020012003610eb457600191505b8080610ebf90613fb1565b915050610db8565b508015610f485782600c60003373ffffffffffffffffffffffffffffffffffffffff1673ffffffffffffffffffffffffffffffffffffffff16815260200190815260200160002060000185604051610f1f9190613eb0565b90815260200160405180910390206000828254610f3c91906132b9565b9250508190555061101e565b600d60003373ffffffffffffffffffffffffffffffffffffffff1673ffffffffffffffffffffffffffffffffffffffff16815260200190815260200160002084908060018154018082558091505060019003906000526020600020016000909190919091509081610fb99190614190565b5082600c60003373ffffffffffffffffffffffffffffffffffffffff1673ffffffffffffffffffffffffffffffffffffffff1681526020019081526020016000206000018560405161100b9190613eb0565b9081526020016040518091039020819055505b7f7433822cf3d2ccdb641ea84f173c2e4c5138f85826166152360d7de95ba632d53360008686670de0b6b3a7640000346110589190614291565b4260405161106b9695949392919061430e565b60405180910390a1600c60003373ffffffffffffffffffffffffffffffffffffffff1673ffffffffffffffffffffffffffffffffffffffff168152602001908152602001600020600001846040516110c39190613eb0565b90815260200160405180910390205491505092915050565b82600b856040516110ec9190613eb0565b9081526020016040518091039020836040516111089190613eb0565b908152602001604051809103902060008373ffffffffffffffffffffffffffffffffffffffff1673ffffffffffffffffffffffffffffffffffffffff16815260200190815260200160002060030160008282546111659190613285565b9250508190555082600c60008373ffffffffffffffffffffffffffffffffffffffff1673ffffffffffffffffffffffffffffffffffffffff168152602001908152602001600020600001856040516111bd9190613eb0565b908152602001604051809103902060008282546111da91906132b9565b9250508190555082600c60003373ffffffffffffffffffffffffffffffffffffffff1673ffffffffffffffffffffffffffffffffffffffff168152602001908152602001600020600001856040516112329190613eb0565b9081526020016040518091039020600082825461124f9190613285565b92505081905550600083600b866040516112699190613eb0565b9081526020016040518091039020846040516112859190613eb0565b908152602001604051809103902060008473ffffffffffffffffffffffffffffffffffffffff1673ffffffffffffffffffffffffffffffffffffffff168152602001908152602001600020600201546112de9190613243565b905060006064605f836112f19190613243565b6112fb9190614291565b90503373ffffffffffffffffffffffffffffffffffffffff166108fc829081150290604051600060405180830381858888f19350505050158015611343573d6000803e3d6000fd5b507f7433822cf3d2ccdb641ea84f173c2e4c5138f85826166152360d7de95ba632d583338888670de0b6b3a76400008761137d9190614291565b426040516113909695949392919061430e565b60405180910390a1505050505050565b6000600b836040516113b29190613eb0565b9081526020016040518091039020826040516113ce9190613eb0565b908152602001604051809103902060003373ffffffffffffffffffffffffffffffffffffffff1673ffffffffffffffffffffffffffffffffffffffff16815260200190815260200160002060030154600b8460405161142d9190613eb0565b9081526020016040518091039020836040516114499190613eb0565b908152602001604051809103902060003373ffffffffffffffffffffffffffffffffffffffff1673ffffffffffffffffffffffffffffffffffffffff168152602001908152602001600020600201546114a29190613243565b90503373ffffffffffffffffffffffffffffffffffffffff166108fc829081150290604051600060405180830381858888f193505050501580156114ea573d6000803e3d6000fd5b50505050565b600082116114fd57600080fd5b60405160200161150c906143d5565b60405160208183030381529060405280519060200120816040516020016115339190613404565b60405160208183030381529060405280519060200120036115ba5781600c60003373ffffffffffffffffffffffffffffffffffffffff1673ffffffffffffffffffffffffffffffffffffffff1681526020019081526020016000206000018560405161159f9190613eb0565b90815260200160405180910390205410156115b957600080fd5b5b6040516020016115c990614441565b60405160208183030381529060405280519060200120600b856040516115ef9190613eb0565b90815260200160405180910390208260405161160b9190613eb0565b908152602001604051809103902060003373ffffffffffffffffffffffffffffffffffffffff1673ffffffffffffffffffffffffffffffffffffffff1681526020019081526020016000206005016040516020016116699190613f8f565b604051602081830303815290604052805190602001200361168957600080fd5b60006001905060005b600a836040516116a29190613eb0565b908152602001604051809103902080549050811015611760573373ffffffffffffffffffffffffffffffffffffffff16600a846040516116e29190613eb0565b9081526020016040518091039020828154811061170257611701613ec7565b5b9060005260206000200160009054906101000a900473ffffffffffffffffffffffffffffffffffffffff1673ffffffffffffffffffffffffffffffffffffffff160361174d57600091505b808061175890613fb1565b915050611692565b5080156117e757600a826040516117779190613eb0565b9081526020016040518091039020339080600181540180825580915050600190039060005260206000200160009091909190916101000a81548173ffffffffffffffffffffffffffffffffffffffff021916908373ffffffffffffffffffffffffffffffffffffffff1602179055505b33600b866040516117f89190613eb0565b9081526020016040518091039020836040516118149190613eb0565b908152602001604051809103902060003373ffffffffffffffffffffffffffffffffffffffff1673ffffffffffffffffffffffffffffffffffffffff16815260200190815260200160002060000160006101000a81548173ffffffffffffffffffffffffffffffffffffffff021916908373ffffffffffffffffffffffffffffffffffffffff160217905550670de0b6b3a7640000846118b49190613243565b600b866040516118c49190613eb0565b9081526020016040518091039020836040516118e09190613eb0565b908152602001604051809103902060003373ffffffffffffffffffffffffffffffffffffffff1673ffffffffffffffffffffffffffffffffffffffff1681526020019081526020016000206002018190555082600b866040516119439190613eb0565b90815260200160405180910390208360405161195f9190613eb0565b908152602001604051809103902060003373ffffffffffffffffffffffffffffffffffffffff1673ffffffffffffffffffffffffffffffffffffffff1681526020019081526020016000206003018190555084600b866040516119c29190613eb0565b9081526020016040518091039020836040516119de9190613eb0565b908152602001604051809103902060003373ffffffffffffffffffffffffffffffffffffffff1673ffffffffffffffffffffffffffffffffffffffff1681526020019081526020016000206001019081611a389190614190565b5081600b86604051611a4a9190613eb0565b908152602001604051809103902083604051611a669190613eb0565b908152602001604051809103902060003373ffffffffffffffffffffffffffffffffffffffff1673ffffffffffffffffffffffffffffffffffffffff1681526020019081526020016000206004019081611ac09190614190565b506040518060400160405280600281526020017f6f6e000000000000000000000000000000000000000000000000000000000000815250600b86604051611b079190613eb0565b908152602001604051809103902083604051611b239190613eb0565b908152602001604051809103902060003373ffffffffffffffffffffffffffffffffffffffff1673ffffffffffffffffffffffffffffffffffffffff1681526020019081526020016000206005019081611b7d9190614190565b5042600b86604051611b8f9190613eb0565b908152602001604051809103902083604051611bab9190613eb0565b908152602001604051809103902060003373ffffffffffffffffffffffffffffffffffffffff1673ffffffffffffffffffffffffffffffffffffffff168152602001908152602001600020600601819055505050505050565b6000805b600d60003373ffffffffffffffffffffffffffffffffffffffff1673ffffffffffffffffffffffffffffffffffffffff16815260200190815260200160002080549050811015611d175785604051602001611c639190613404565b60405160208183030381529060405280519060200120600d60003373ffffffffffffffffffffffffffffffffffffffff1673ffffffffffffffffffffffffffffffffffffffff1681526020019081526020016000208281548110611cca57611cc9613ec7565b5b90600052602060002001604051602001611ce49190613f8f565b6040516020818303038152906040528051906020012003611d0457600191505b8080611d0f90613fb1565b915050611c08565b508015611d985783600c60003373ffffffffffffffffffffffffffffffffffffffff1673ffffffffffffffffffffffffffffffffffffffff16815260200190815260200160002060000186604051611d6f9190613eb0565b90815260200160405180910390206000828254611d8c91906132b9565b92505081905550611e6e565b600d60003373ffffffffffffffffffffffffffffffffffffffff1673ffffffffffffffffffffffffffffffffffffffff16815260200190815260200160002085908060018154018082558091505060019003906000526020600020016000909190919091509081611e099190614190565b5083600c60003373ffffffffffffffffffffffffffffffffffffffff1673ffffffffffffffffffffffffffffffffffffffff16815260200190815260200160002060000186604051611e5b9190613eb0565b9081526020016040518091039020819055505b83600b86604051611e7f9190613eb0565b908152602001604051809103902084604051611e9b9190613eb0565b908152602001604051809103902060008473ffffffffffffffffffffffffffffffffffffffff1673ffffffffffffffffffffffffffffffffffffffff1681526020019081526020016000206003016000828254611ef89190613285565b9250508190555083600c60008473ffffffffffffffffffffffffffffffffffffffff1673ffffffffffffffffffffffffffffffffffffffff16815260200190815260200160002060000186604051611f509190613eb0565b90815260200160405180910390206000828254611f6d9190613285565b92505081905550600084600b87604051611f879190613eb0565b908152602001604051809103902085604051611fa39190613eb0565b908152602001604051809103902060008573ffffffffffffffffffffffffffffffffffffffff1673ffffffffffffffffffffffffffffffffffffffff16815260200190815260200160002060020154611ffc9190613243565b905060006064605f8361200f9190613243565b6120199190614291565b9050600b8760405161202b9190613eb0565b9081526020016040518091039020856040516120479190613eb0565b908152602001604051809103902060008573ffffffffffffffffffffffffffffffffffffffff1673ffffffffffffffffffffffffffffffffffffffff16815260200190815260200160002060000160009054906101000a900473ffffffffffffffffffffffffffffffffffffffff1673ffffffffffffffffffffffffffffffffffffffff166108fc829081150290604051600060405180830381858888f193505050501580156120fb573d6000803e3d6000fd5b507f7433822cf3d2ccdb641ea84f173c2e4c5138f85826166152360d7de95ba632d533858989670de0b6b3a7640000876121359190614291565b426040516121489695949392919061430e565b60405180910390a150505050505050565b6000340361216657600080fd5b6000600854346121769190613243565b90508060046000600760009054906101000a900473ffffffffffffffffffffffffffffffffffffffff1673ffffffffffffffffffffffffffffffffffffffff1673ffffffffffffffffffffffffffffffffffffffff1681526020019081526020016000205410156121e657600080fd5b8060046000600760009054906101000a900473ffffffffffffffffffffffffffffffffffffffff1673ffffffffffffffffffffffffffffffffffffffff1673ffffffffffffffffffffffffffffffffffffffff16815260200190815260200160002060008282546122579190613285565b9250508190555080600460003373ffffffffffffffffffffffffffffffffffffffff1673ffffffffffffffffffffffffffffffffffffffff16815260200190815260200160002060008282546122ad91906132b9565b9250508190555050565b6040518060400160405280600381526020017f6f66660000000000000000000000000000000000000000000000000000000000815250600b836040516122fd9190613eb0565b9081526020016040518091039020826040516123199190613eb0565b908152602001604051809103902060003373ffffffffffffffffffffffffffffffffffffffff1673ffffffffffffffffffffffffffffffffffffffff16815260200190815260200160002060050190816123739190614190565b50604051602001612383906144ad565b60405160208183030381529060405280519060200120816040516020016123aa9190613404565b60405160208183030381529060405280519060200120036123d0576123cf82826113a0565b5b5050565b6000600460008373ffffffffffffffffffffffffffffffffffffffff1673ffffffffffffffffffffffffffffffffffffffff168152602001908152602001600020549050919050565b600760009054906101000a900473ffffffffffffffffffffffffffffffffffffffff1681565b6001805461245090613e43565b80601f016020809104026020016040519081016040528092919081815260200182805461247c90613e43565b80156124c95780601f1061249e576101008083540402835291602001916124c9565b820191906000526020600020905b8154815290600101906020018083116124ac57829003601f168201915b505050505081565b6060600d60003373ffffffffffffffffffffffffffffffffffffffff1673ffffffffffffffffffffffffffffffffffffffff168152602001908152602001600020805480602002602001604051908101604052809291908181526020016000905b828210156125de57838290600052602060002001805461255190613e43565b80601f016020809104026020016040519081016040528092919081815260200182805461257d90613e43565b80156125ca5780601f1061259f576101008083540402835291602001916125ca565b820191906000526020600020905b8154815290600101906020018083116125ad57829003601f168201915b505050505081526020019060010190612532565b50505050905090565b80600460003373ffffffffffffffffffffffffffffffffffffffff1673ffffffffffffffffffffffffffffffffffffffff16815260200190815260200160002060008282546126369190613285565b9250508190555080600460008473ffffffffffffffffffffffffffffffffffffffff1673ffffffffffffffffffffffffffffffffffffffff168152602001908152602001600020600082825461268c91906132b9565b925050819055505050565b600081036126a457600080fd5b600254600a6126b39190614600565b816126be9190613243565b90508060046000600760009054906101000a900473ffffffffffffffffffffffffffffffffffffffff1673ffffffffffffffffffffffffffffffffffffffff1673ffffffffffffffffffffffffffffffffffffffff168152602001908152602001600020600082825461273191906132b9565b9250508190555080600460003373ffffffffffffffffffffffffffffffffffffffff1673ffffffffffffffffffffffffffffffffffffffff16815260200190815260200160002060008282546127879190613285565b925050819055503373ffffffffffffffffffffffffffffffffffffffff166108fc60c8836127b59190614291565b9081150290604051600060405180830381858888f193505050501580156127e0573d6000803e3d6000fd5b5050565b60606000600d60003373ffffffffffffffffffffffffffffffffffffffff1673ffffffffffffffffffffffffffffffffffffffff16815260200190815260200160002080549050905060008167ffffffffffffffff811115612849576128486136d2565b5b6040519080825280602002602001820160405280156128775781602001602082028036833780820191505090505b50905060005b8281101561297057600c60003373ffffffffffffffffffffffffffffffffffffffff1673ffffffffffffffffffffffffffffffffffffffff168152602001908152602001600020600001600d60003373ffffffffffffffffffffffffffffffffffffffff1673ffffffffffffffffffffffffffffffffffffffff168152602001908152602001600020828154811061291857612917613ec7565b5b9060005260206000200160405161292f91906146ce565b90815260200160405180910390205482828151811061295157612950613ec7565b5b602002602001018181525050808061296890613fb1565b91505061287d565b50809250505090565b60008160098460405161298c9190613eb0565b90815260200160405180910390206000015410156129a957600080fd5b6008546009846040516129bc9190613eb0565b908152602001604051809103902060010154836129d99190613243565b6129e39190613243565b600460003373ffffffffffffffffffffffffffffffffffffffff1673ffffffffffffffffffffffffffffffffffffffff1681526020019081526020016000206000828254612a319190613285565b9250508190555081600984604051612a499190613eb0565b90815260200160405180910390206000016000828254612a699190613285565b925050819055506000805b600d60003373ffffffffffffffffffffffffffffffffffffffff1673ffffffffffffffffffffffffffffffffffffffff16815260200190815260200160002080549050811015612b835784604051602001612acf9190613404565b60405160208183030381529060405280519060200120600d60003373ffffffffffffffffffffffffffffffffffffffff1673ffffffffffffffffffffffffffffffffffffffff1681526020019081526020016000208281548110612b3657612b35613ec7565b5b90600052602060002001604051602001612b509190613f8f565b6040516020818303038152906040528051906020012003612b7057600191505b8080612b7b90613fb1565b915050612a74565b508015612c045782600c60003373ffffffffffffffffffffffffffffffffffffffff1673ffffffffffffffffffffffffffffffffffffffff16815260200190815260200160002060000185604051612bdb9190613eb0565b90815260200160405180910390206000828254612bf891906132b9565b92505081905550612cda565b600d60003373ffffffffffffffffffffffffffffffffffffffff1673ffffffffffffffffffffffffffffffffffffffff16815260200190815260200160002084908060018154018082558091505060019003906000526020600020016000909190919091509081612c759190614190565b5082600c60003373ffffffffffffffffffffffffffffffffffffffff1673ffffffffffffffffffffffffffffffffffffffff16815260200190815260200160002060000185604051612cc79190613eb0565b9081526020016040518091039020819055505b7f1dd6e495fd314fa658f9f799bf41822e2c913a508cf78adc22c482601989d7d93360008686670de0b6b3a764000060098a604051612d199190613eb0565b90815260200160405180910390206001015489612d369190613243565b612d409190614291565b42604051612d5396959493929190614731565b60405180910390a1600c60003373ffffffffffffffffffffffffffffffffffffffff1673ffffffffffffffffffffffffffffffffffffffff16815260200190815260200160002060000184604051612dab9190613eb0565b90815260200160405180910390205491505092915050565b612dcb61319d565b600982604051612ddb9190613eb0565b9081526020016040518091039020604051806040016040529081600082015481526020016001820154815250509050919050565b6005602052816000526040600020602052806000526040600020600091509150505481565b612e3c6131b7565b600b84604051612e4c9190613eb0565b908152602001604051809103902083604051612e689190613eb0565b908152602001604051809103902060008373ffffffffffffffffffffffffffffffffffffffff1673ffffffffffffffffffffffffffffffffffffffff1681526020019081526020016000206040518060e00160405290816000820160009054906101000a900473ffffffffffffffffffffffffffffffffffffffff1673ffffffffffffffffffffffffffffffffffffffff1673ffffffffffffffffffffffffffffffffffffffff168152602001600182018054612f2490613e43565b80601f0160208091040260200160405190810160405280929190818152602001828054612f5090613e43565b8015612f9d5780601f10612f7257610100808354040283529160200191612f9d565b820191906000526020600020905b815481529060010190602001808311612f8057829003601f168201915b505050505081526020016002820154815260200160038201548152602001600482018054612fca90613e43565b80601f0160208091040260200160405190810160405280929190818152602001828054612ff690613e43565b80156130435780601f1061301857610100808354040283529160200191613043565b820191906000526020600020905b81548152906001019060200180831161302657829003601f168201915b5050505050815260200160058201805461305c90613e43565b80601f016020809104026020016040519081016040528092919081815260200182805461308890613e43565b80156130d55780601f106130aa576101008083540402835291602001916130d5565b820191906000526020600020905b8154815290600101906020018083116130b857829003601f168201915b5050505050815260200160068201548152505090509392505050565b6060600a826040516131039190613eb0565b908152602001604051809103902080548060200260200160405190810160405280929190818152602001828054801561319157602002820191906000526020600020905b8160009054906101000a900473ffffffffffffffffffffffffffffffffffffffff1673ffffffffffffffffffffffffffffffffffffffff1681526020019060010190808311613147575b50505050509050919050565b604051806040016040528060008152602001600081525090565b6040518060e00160405280600073ffffffffffffffffffffffffffffffffffffffff1681526020016060815260200160008152602001600081526020016060815260200160608152602001600081525090565b6000819050919050565b7f4e487b7100000000000000000000000000000000000000000000000000000000600052601160045260246000fd5b600061324e8261320a565b91506132598361320a565b92508282026132678161320a565b9150828204841483151761327e5761327d613214565b5b5092915050565b60006132908261320a565b915061329b8361320a565b92508282039050818111156132b3576132b2613214565b5b92915050565b60006132c48261320a565b91506132cf8361320a565b92508282019050808211156132e7576132e6613214565b5b92915050565b600073ffffffffffffffffffffffffffffffffffffffff82169050919050565b6000613318826132ed565b9050919050565b6133288161330d565b82525050565b6133378161320a565b82525050565b6000606082019050613352600083018661331f565b61335f602083018561331f565b61336c604083018461332e565b949350505050565b600081519050919050565b600082825260208201905092915050565b60005b838110156133ae578082015181840152602081019050613393565b60008484015250505050565b6000601f19601f8301169050919050565b60006133d682613374565b6133e0818561337f565b93506133f0818560208601613390565b6133f9816133ba565b840191505092915050565b6000602082019050818103600083015261341e81846133cb565b905092915050565b600081519050919050565b600082825260208201905092915050565b6000819050602082019050919050565b600082825260208201905092915050565b600061346e82613374565b6134788185613452565b9350613488818560208601613390565b613491816133ba565b840191505092915050565b60006134a88383613463565b905092915050565b6000602082019050919050565b60006134c882613426565b6134d28185613431565b9350836020820285016134e485613442565b8060005b858110156135205784840389528151613501858261349c565b945061350c836134b0565b925060208a019950506001810190506134e8565b50829750879550505050505092915050565b6000602082019050818103600083015261354c81846134bd565b905092915050565b6000604051905090565b600080fd5b600080fd5b6135718161330d565b811461357c57600080fd5b50565b60008135905061358e81613568565b92915050565b61359d8161320a565b81146135a857600080fd5b50565b6000813590506135ba81613594565b92915050565b600080604083850312156135d7576135d661355e565b5b60006135e58582860161357f565b92505060206135f6858286016135ab565b9150509250929050565b6000602082019050613615600083018461332e565b92915050565b6000806000606084860312156136345761363361355e565b5b60006136428682870161357f565b93505060206136538682870161357f565b9250506040613664868287016135ab565b9150509250925092565b6000602082840312156136845761368361355e565b5b60006136928482850161357f565b91505092915050565b6000602082840312156136b1576136b061355e565b5b60006136bf848285016135ab565b91505092915050565b600080fd5b600080fd5b7f4e487b7100000000000000000000000000000000000000000000000000000000600052604160045260246000fd5b61370a826133ba565b810181811067ffffffffffffffff82111715613729576137286136d2565b5b80604052505050565b600061373c613554565b90506137488282613701565b919050565b600067ffffffffffffffff821115613768576137676136d2565b5b613771826133ba565b9050602081019050919050565b82818337600083830152505050565b60006137a061379b8461374d565b613732565b9050828152602081018484840111156137bc576137bb6136cd565b5b6137c784828561377e565b509392505050565b600082601f8301126137e4576137e36136c8565b5b81356137f484826020860161378d565b91505092915050565b600080604083850312156138145761381361355e565b5b600083013567ffffffffffffffff81111561383257613831613563565b5b61383e858286016137cf565b925050602061384f858286016135ab565b9150509250929050565b600080600080608085870312156138735761387261355e565b5b600085013567ffffffffffffffff81111561389157613890613563565b5b61389d878288016137cf565b94505060206138ae878288016135ab565b935050604085013567ffffffffffffffff8111156138cf576138ce613563565b5b6138db878288016137cf565b92505060606138ec8782880161357f565b91505092959194509250565b6000806040838503121561390f5761390e61355e565b5b600083013567ffffffffffffffff81111561392d5761392c613563565b5b613939858286016137cf565b925050602083013567ffffffffffffffff81111561395a57613959613563565b5b613966858286016137cf565b9150509250929050565b6000806000806080858703121561398a5761398961355e565b5b600085013567ffffffffffffffff8111156139a8576139a7613563565b5b6139b4878288016137cf565b94505060206139c5878288016135ab565b93505060406139d6878288016135ab565b925050606085013567ffffffffffffffff8111156139f7576139f6613563565b5b613a03878288016137cf565b91505092959194509250565b6000602082019050613a24600083018461331f565b92915050565b600081519050919050565b600082825260208201905092915050565b6000819050602082019050919050565b613a5f8161320a565b82525050565b6000613a718383613a56565b60208301905092915050565b6000602082019050919050565b6000613a9582613a2a565b613a9f8185613a35565b9350613aaa83613a46565b8060005b83811015613adb578151613ac28882613a65565b9750613acd83613a7d565b925050600181019050613aae565b5085935050505092915050565b60006020820190508181036000830152613b028184613a8a565b905092915050565b600060208284031215613b2057613b1f61355e565b5b600082013567ffffffffffffffff811115613b3e57613b3d613563565b5b613b4a848285016137cf565b91505092915050565b604082016000820151613b696000850182613a56565b506020820151613b7c6020850182613a56565b50505050565b6000604082019050613b976000830184613b53565b92915050565b60008060408385031215613bb457613bb361355e565b5b6000613bc28582860161357f565b9250506020613bd38582860161357f565b9150509250929050565b600080600060608486031215613bf657613bf561355e565b5b600084013567ffffffffffffffff811115613c1457613c13613563565b5b613c20868287016137cf565b935050602084013567ffffffffffffffff811115613c4157613c40613563565b5b613c4d868287016137cf565b9250506040613c5e8682870161357f565b9150509250925092565b613c718161330d565b82525050565b600060e083016000830151613c8f6000860182613c68565b5060208301518482036020860152613ca78282613463565b9150506040830151613cbc6040860182613a56565b506060830151613ccf6060860182613a56565b5060808301518482036080860152613ce78282613463565b91505060a083015184820360a0860152613d018282613463565b91505060c0830151613d1660c0860182613a56565b508091505092915050565b60006020820190508181036000830152613d3b8184613c77565b905092915050565b600081519050919050565b600082825260208201905092915050565b6000819050602082019050919050565b6000613d7b8383613c68565b60208301905092915050565b6000602082019050919050565b6000613d9f82613d43565b613da98185613d4e565b9350613db483613d5f565b8060005b83811015613de5578151613dcc8882613d6f565b9750613dd783613d87565b925050600181019050613db8565b5085935050505092915050565b60006020820190508181036000830152613e0c8184613d94565b905092915050565b7f4e487b7100000000000000000000000000000000000000000000000000000000600052602260045260246000fd5b60006002820490506001821680613e5b57607f821691505b602082108103613e6e57613e6d613e14565b5b50919050565b600081905092915050565b6000613e8a82613374565b613e948185613e74565b9350613ea4818560208601613390565b80840191505092915050565b6000613ebc8284613e7f565b915081905092915050565b7f4e487b7100000000000000000000000000000000000000000000000000000000600052603260045260246000fd5b60008190508160005260206000209050919050565b60008154613f1881613e43565b613f22818661337f565b94506001821660008114613f3d5760018114613f5357613f86565b60ff198316865281151560200286019350613f86565b613f5c85613ef6565b60005b83811015613f7e57815481890152600182019150602081019050613f5f565b808801955050505b50505092915050565b60006020820190508181036000830152613fa98184613f0b565b905092915050565b6000613fbc8261320a565b91507fffffffffffffffffffffffffffffffffffffffffffffffffffffffffffffffff8203613fee57613fed613214565b5b600182019050919050565b60006020601f8301049050919050565b600082821b905092915050565b6000600883026140467fffffffffffffffffffffffffffffffffffffffffffffffffffffffffffffffff82614009565b6140508683614009565b95508019841693508086168417925050509392505050565b6000819050919050565b600061408d6140886140838461320a565b614068565b61320a565b9050919050565b6000819050919050565b6140a783614072565b6140bb6140b382614094565b848454614016565b825550505050565b600090565b6140d06140c3565b6140db81848461409e565b505050565b5b818110156140ff576140f46000826140c8565b6001810190506140e1565b5050565b601f8211156141445761411581613ef6565b61411e84613ff9565b8101602085101561412d578190505b61414161413985613ff9565b8301826140e0565b50505b505050565b600082821c905092915050565b600061416760001984600802614149565b1980831691505092915050565b60006141808383614156565b9150826002028217905092915050565b61419982613374565b67ffffffffffffffff8111156141b2576141b16136d2565b5b6141bc8254613e43565b6141c7828285614103565b600060209050601f8311600181146141fa57600084156141e8578287015190505b6141f28582614174565b86555061425a565b601f19841661420886613ef6565b60005b828110156142305784890151825560018201915060208501945060208101905061420b565b8683101561424d5784890151614249601f891682614156565b8355505b6001600288020188555050505b505050505050565b7f4e487b7100000000000000000000000000000000000000000000000000000000600052601260045260246000fd5b600061429c8261320a565b91506142a78361320a565b9250826142b7576142b6614262565b5b828204905092915050565b7f4554480000000000000000000000000000000000000000000000000000000000600082015250565b60006142f860038361337f565b9150614303826142c2565b602082019050919050565b600060e082019050614323600083018961331f565b614330602083018861331f565b818103604083015261434281876133cb565b9050614351606083018661332e565b61435e608083018561332e565b61436b60a083018461332e565b81810360c083015261437c816142eb565b9050979650505050505050565b7f53454c4c00000000000000000000000000000000000000000000000000000000600082015250565b60006143bf60048361337f565b91506143ca82614389565b602082019050919050565b600060208201905081810360008301526143ee816143b2565b9050919050565b7f6f6e000000000000000000000000000000000000000000000000000000000000600082015250565b600061442b60028361337f565b9150614436826143f5565b602082019050919050565b6000602082019050818103600083015261445a8161441e565b9050919050565b7f4255590000000000000000000000000000000000000000000000000000000000600082015250565b600061449760038361337f565b91506144a282614461565b602082019050919050565b600060208201905081810360008301526144c68161448a565b9050919050565b60008160011c9050919050565b6000808291508390505b600185111561452457808604811115614500576144ff613214565b5b600185161561450f5780820291505b808102905061451d856144cd565b94506144e4565b94509492505050565b60008261453d57600190506145f9565b8161454b57600090506145f9565b8160018114614561576002811461456b5761459a565b60019150506145f9565b60ff84111561457d5761457c613214565b5b8360020a91508482111561459457614593613214565b5b506145f9565b5060208310610133831016604e8410600b84101617156145cf5782820a9050838111156145ca576145c9613214565b5b6145f9565b6145dc84848460016144da565b925090508184048111156145f3576145f2613214565b5b81810290505b9392505050565b600061460b8261320a565b91506146168361320a565b92506146437fffffffffffffffffffffffffffffffffffffffffffffffffffffffffffffffff848461452d565b905092915050565b6000815461465881613e43565b6146628186613e74565b9450600182166000811461467d5760018114614692576146c5565b60ff19831686528115158202860193506146c5565b61469b85613ef6565b60005b838110156146bd5781548189015260018201915060208101905061469e565b838801955050505b50505092915050565b60006146da828461464b565b915081905092915050565b7f4652540000000000000000000000000000000000000000000000000000000000600082015250565b600061471b60038361337f565b9150614726826146e5565b602082019050919050565b600060e082019050614746600083018961331f565b614753602083018861331f565b818103604083015261476581876133cb565b9050614774606083018661332e565b614781608083018561332e565b61478e60a083018461332e565b81810360c083015261479f8161470e565b905097965050505050505056fea2646970667358221220c4a87c8e59d7bac2cdd3ae53fae2d2fd88b783b4bf6e64895a7452cb67faa14264736f6c63430008110033",
  "immutableReferences": {},
  "source": "// SPDX-License-Identifier: MIT\r\npragma solidity ^0.8.17;\r\n\r\nimport './FRT.sol';\r\n\r\ncontract FruitShop is FRT{\r\n    // \r\n    string[] fruitInitList;\r\n    // FRT Token  \r\n    address public owner;\r\n    // 1 200\r\n    uint public ethCanBuy = 200;\r\n    constructor(string memory _name, string memory _symbol, uint _amount,uint _carrot, uint _apple, uint _lemon, uint _initPrice){\r\n        //   \r\n        owner = msg.sender;\r\n        name = _name;\r\n        symbol = _symbol;\r\n\r\n        _initPrice *= 10**18;\r\n        //   \r\n        fruitInit[\"carrot\"].num = _carrot;\r\n        fruitInit[\"apple-whole\"].num = _apple;\r\n        fruitInit[\"lemon\"].num = _lemon;\r\n        fruitInit[\"carrot\"].price = _initPrice * 3;\r\n        fruitInit[\"apple-whole\"].price = _initPrice;\r\n        fruitInit[\"lemon\"].price = _initPrice * 2;\r\n        fruitInitList.push(\"carrot\");\r\n        fruitInitList.push(\"lemon\");\r\n        fruitInitList.push(\"apple-whole\");\r\n        mint(_amount * (10 ** uint(decimals)));\r\n    }\r\n\r\n    //  get\r\n    function getFruitInitList() view public returns(string[] memory){\r\n        return fruitInitList;\r\n    }\r\n    //  frt \r\n    // CA Eth  \r\n    receive() external payable{\r\n        require(msg.value != 0);\r\n        uint _amount = msg.value * ethCanBuy;\r\n\r\n        require(balances[owner] >= _amount);\r\n        balances[owner] -= _amount;\r\n        balances[msg.sender] += _amount;\r\n\r\n        if(msg.sender == owner){\r\n            mint(_amount);\r\n        }\r\n        emit Transfer(owner,msg.sender,_amount);\r\n    }\r\n    //   \r\n    // ETH => FRT\r\n    function transferEthToFrt () payable public{\r\n        require(msg.value != 0);\r\n        uint _maxCan = msg.value * ethCanBuy ;\r\n        require(balances[owner] >= _maxCan);\r\n\r\n        balances[owner] -= _maxCan;\r\n        balances[msg.sender] += _maxCan;\r\n    }\r\n\r\n    // FRT => ETH\r\n    function transferFrtToEth (uint _amount) payable public{\r\n        require(_amount != 0);\r\n        _amount *=  10**decimals;\r\n\r\n        balances[owner] += _amount;\r\n        balances[msg.sender] -= _amount;\r\n        payable(msg.sender).transfer(_amount /200);\r\n    }\r\n\r\n    //   100 \r\n    struct FruitInfo{\r\n        uint num;\r\n        uint price;\r\n    }\r\n    mapping (string=>FruitInfo) fruitInit;\r\n    //   \r\n    function getFruitShop(string memory _name)view public returns(FruitInfo memory){\r\n        return fruitInit[_name];\r\n    }\r\n    //  ETH  \r\n    function buyFruitsByETH(string memory _name, uint _amount) public payable returns(uint){\r\n        require(fruitInit[_name].num >= _amount);\r\n        fruitInit[_name].num -= _amount;\r\n        bool check = false;\r\n        for(uint i = 0 ; i<hasFruitList[msg.sender].length; i++){\r\n            if(keccak256(abi.encode(hasFruitList[msg.sender][i]))==keccak256(abi.encode(_name))){\r\n                check = true;\r\n            }\r\n        }\r\n        if(check){\r\n            fruitWallet[msg.sender].num[_name] += _amount;\r\n        }else{\r\n            hasFruitList[msg.sender].push(_name);\r\n            fruitWallet[msg.sender].num[_name] = _amount;\r\n        }\r\n        emit TransferETH(msg.sender,address(0),_name, _amount, msg.value/(10**18),block.timestamp,\"ETH\");\r\n        return fruitWallet[msg.sender].num[_name];\r\n    }\r\n    //  FRT  \r\n    function buyFruitsByFRT(string memory _name, uint _amount) public payable returns(uint){\r\n        require(fruitInit[_name].num >= _amount);\r\n        balances[msg.sender] -= _amount * fruitInit[_name].price * ethCanBuy;\r\n        fruitInit[_name].num -= _amount;\r\n        bool check = false;\r\n        for(uint i = 0 ; i<hasFruitList[msg.sender].length; i++){\r\n            if(keccak256(abi.encode(hasFruitList[msg.sender][i]))==keccak256(abi.encode(_name))){\r\n                check = true;\r\n            }\r\n        }\r\n        if(check){\r\n            fruitWallet[msg.sender].num[_name] += _amount;\r\n        }else{\r\n            hasFruitList[msg.sender].push(_name);\r\n            fruitWallet[msg.sender].num[_name] = _amount;\r\n        }\r\n        emit TransferFRT(msg.sender,address(0),_name, _amount, _amount * fruitInit[_name].price/(10**18) ,block.timestamp,\"FRT\");\r\n        return fruitWallet[msg.sender].num[_name];\r\n    }\r\n    //  \r\n\r\n    //  ->  -> , \r\n    // \r\n    mapping(string=>address[]) fruitTrader;\r\n    function getFruitTrader(string memory _typeIs)view public returns(address[] memory){\r\n        return fruitTrader[_typeIs];\r\n    }\r\n    //  \r\n    // { : ,,}\r\n    struct SellFruit{\r\n        address owner;\r\n        string name;\r\n        uint price;\r\n        uint num;\r\n        string typeIs;\r\n        string status;\r\n        uint date;\r\n    }\r\n    mapping (string=>mapping(string=>mapping(address=>SellFruit))) makeShop;\r\n    //  \r\n    function registerFruit(string memory _name,uint _price, uint _num,string memory _typeIs) public payable {\r\n        require(_num >0);\r\n        if(keccak256(abi.encode(_typeIs))==keccak256(abi.encode(\"SELL\"))){\r\n            require(fruitWallet[msg.sender].num[_name] >= _num);\r\n        }\r\n        require(keccak256(abi.encode(makeShop[_name][_typeIs][msg.sender].status)) != keccak256(abi.encode(\"on\")));\r\n        bool check = true;\r\n        for(uint i = 0; i<fruitTrader[_typeIs].length; i++){\r\n            if(fruitTrader[_typeIs][i] == msg.sender){\r\n                check = false;\r\n            }\r\n        }\r\n        if(check) fruitTrader[_typeIs].push(payable(msg.sender));\r\n        makeShop[_name][_typeIs][msg.sender].owner = msg.sender;\r\n        makeShop[_name][_typeIs][msg.sender].price = _price * 10 ** 18;\r\n        makeShop[_name][_typeIs][msg.sender].num = _num;\r\n        makeShop[_name][_typeIs][msg.sender].name = _name;\r\n        makeShop[_name][_typeIs][msg.sender].typeIs = _typeIs;\r\n        makeShop[_name][_typeIs][msg.sender].status = \"on\";\r\n        makeShop[_name][_typeIs][msg.sender].date = block.timestamp;\r\n    }\r\n    //  \r\n    function deleteFruit(string memory _name,string memory _typeIs) public payable{\r\n        makeShop[_name][_typeIs][msg.sender].status = \"off\";\r\n        if(keccak256(abi.encode(_typeIs))==keccak256(abi.encode(\"BUY\"))){\r\n            refund(_name, _typeIs);\r\n        }\r\n    }\r\n    //   \r\n    function refund(string memory _name,string memory _typeIs) public payable {\r\n            uint refundMoney = makeShop[_name][_typeIs][msg.sender].price * makeShop[_name][_typeIs][msg.sender].num;\r\n            payable(msg.sender).transfer(refundMoney);\r\n    }\r\n    //  \r\n    // { : {  : }}\r\n    struct Fruit{\r\n        mapping(string=>uint) num;\r\n    }\r\n    mapping (address=>Fruit) fruitWallet;\r\n    mapping (address=>string[]) hasFruitList;\r\n    //   \r\n    function getFruitWallet() view public returns(uint[] memory){\r\n        uint count = hasFruitList[msg.sender].length;\r\n        uint[] memory wallet = new uint[](count);\r\n        for(uint i=0; i<count;i++){\r\n            wallet[i] = fruitWallet[msg.sender].num[hasFruitList[msg.sender][i]];\r\n        }\r\n        return wallet;\r\n    }\r\n    //   \r\n    function hasFruit() view public returns(string[] memory){\r\n        return hasFruitList[msg.sender];\r\n    }\r\n    //   \r\n    function buyFruit(string memory _name, uint _num, string memory _typeIs, address _seller) public payable {\r\n        bool check = false;\r\n        for(uint i = 0 ; i<hasFruitList[msg.sender].length; i++){\r\n            if(keccak256(abi.encode(hasFruitList[msg.sender][i]))==keccak256(abi.encode(_name))){\r\n                check = true;\r\n            }\r\n        }\r\n        if(check){\r\n            fruitWallet[msg.sender].num[_name] += _num;\r\n        }else{\r\n            hasFruitList[msg.sender].push(_name);\r\n            fruitWallet[msg.sender].num[_name] = _num;\r\n        }\r\n        makeShop[_name][_typeIs][_seller].num -= _num;\r\n        fruitWallet[_seller].num[_name] -= _num;\r\n        uint _amount = makeShop[_name][_typeIs][_seller].price * _num;\r\n        uint sendMoney = _amount * 95 / 100;\r\n        \r\n        payable(makeShop[_name][_typeIs][_seller].owner).transfer(sendMoney);\r\n        emit TransferETH(msg.sender,_seller,_name, _num, _amount/(10**18), block.timestamp,\"ETH\");\r\n    }\r\n    //   \r\n    function sellFruit(string memory _name, uint _num,string memory _typeIs,address _seller) public payable {\r\n        makeShop[_name][_typeIs][_seller].num -= _num;\r\n        fruitWallet[_seller].num[_name] += _num;\r\n        fruitWallet[msg.sender].num[_name] -= _num;\r\n        uint _amount =  makeShop[_name][_typeIs][_seller].price * _num;\r\n        uint sendMoney = _amount * 95 / 100;\r\n        payable(msg.sender).transfer(sendMoney);\r\n        emit TransferETH(_seller,msg.sender,_name, _num, _amount/(10**18) , block.timestamp, \"ETH\");\r\n    }\r\n    //  \r\n    function getSellerList(string memory _name, string memory _typeIs,address _seller) public view returns(SellFruit memory){\r\n        return makeShop[_name][_typeIs][_seller];\r\n    }\r\n\r\n\r\n    //     \r\n    event TransferETH(address from, address to, string name, uint num, uint value, uint date, string pay);\r\n    event TransferFRT(address from, address to, string name, uint num, uint value, uint date, string pay);\r\n}",
  "sourcePath": "C:\\Users\\KGA_030\\Desktop\\class\\React_project\\ethfruitshop\\smartContract\\contracts\\FruitShop.sol",
  "compiler": {
    "name": "solc",
    "version": "0.8.17+commit.8df45f5f.Emscripten.clang"
  },
  "schemaVersion": "3.4.11",
  "updatedAt": "2022-12-07T06:53:51.635Z",
  "networkType": "ethereum",
  "devdoc": {
    "kind": "dev",
    "methods": {},
    "version": 1
  },
  "userdoc": {
    "kind": "user",
    "methods": {},
    "version": 1
  }
}