{
  "contractName": "FruitShop",
  "abi": [
    {
      "inputs": [
        {
          "internalType": "uint256",
          "name": "",
          "type": "uint256"
        }
      ],
      "name": "fruitList",
      "outputs": [
        {
          "internalType": "string",
          "name": "",
          "type": "string"
        }
      ],
      "stateMutability": "view",
      "type": "function",
      "constant": true
    },
    {
      "inputs": [
        {
          "internalType": "string",
          "name": "_name",
          "type": "string"
        },
        {
          "internalType": "uint256",
          "name": "_price",
          "type": "uint256"
        },
        {
          "internalType": "uint256",
          "name": "_num",
          "type": "uint256"
        }
      ],
      "name": "registerFruit",
      "outputs": [
        {
          "internalType": "bool",
          "name": "check",
          "type": "bool"
        }
      ],
      "stateMutability": "nonpayable",
      "type": "function"
    },
    {
      "inputs": [
        {
          "internalType": "string",
          "name": "_name",
          "type": "string"
        }
      ],
      "name": "deleteFruit",
      "outputs": [
        {
          "internalType": "bool",
          "name": "check",
          "type": "bool"
        }
      ],
      "stateMutability": "nonpayable",
      "type": "function"
    },
    {
      "inputs": [
        {
          "internalType": "string",
          "name": "_name",
          "type": "string"
        },
        {
          "internalType": "uint256",
          "name": "_num",
          "type": "uint256"
        }
      ],
      "name": "buyFruit",
      "outputs": [],
      "stateMutability": "payable",
      "type": "function",
      "payable": true
    },
    {
      "inputs": [
        {
          "internalType": "string",
          "name": "_name",
          "type": "string"
        },
        {
          "internalType": "uint256",
          "name": "_num",
          "type": "uint256"
        }
      ],
      "name": "sellFruit",
      "outputs": [],
      "stateMutability": "payable",
      "type": "function",
      "payable": true
    },
    {
      "inputs": [],
      "name": "getFruitList",
      "outputs": [
        {
          "internalType": "string[]",
          "name": "",
          "type": "string[]"
        }
      ],
      "stateMutability": "view",
      "type": "function",
      "constant": true
    },
    {
      "inputs": [
        {
          "internalType": "string",
          "name": "fruit",
          "type": "string"
        }
      ],
      "name": "getSellerList",
      "outputs": [
        {
          "components": [
            {
              "internalType": "address",
              "name": "owner",
              "type": "address"
            },
            {
              "internalType": "string",
              "name": "name",
              "type": "string"
            },
            {
              "internalType": "uint256",
              "name": "price",
              "type": "uint256"
            },
            {
              "internalType": "uint256",
              "name": "num",
              "type": "uint256"
            }
          ],
          "internalType": "struct FruitShop.SellFruit",
          "name": "",
          "type": "tuple"
        }
      ],
      "stateMutability": "view",
      "type": "function",
      "constant": true
    }
  ],
  "bytecode": "0x608060405234801561001057600080fd5b5061170c806100206000396000f3fe6080604052600436106100705760003560e01c8063899c704c1161004e578063899c704c1461011a5780638fa1278714610136578063cc2a681a14610152578063cc8cdff51461018f57610070565b8063464d025e1461007557806348fec0a1146100b2578063524452b6146100dd575b600080fd5b34801561008157600080fd5b5061009c60048036038101906100979190610d0a565b6101cc565b6040516100a99190610d94565b60405180910390f35b3480156100be57600080fd5b506100c76103a2565b6040516100d49190610ef0565b60405180910390f35b3480156100e957600080fd5b5061010460048036038101906100ff9190610f12565b61047b565b6040516101119190610f89565b60405180910390f35b610134600480360381019061012f9190610fab565b610527565b005b610150600480360381019061014b9190610fab565b610742565b005b34801561015e57600080fd5b5061017960048036038101906101749190611007565b61084c565b6040516101869190611103565b60405180910390f35b34801561019b57600080fd5b506101b660048036038101906101b19190611007565b610980565b6040516101c39190610d94565b60405180910390f35b60006001905060005b60008054905081101561026a57846040516020016101f39190610f89565b604051602081830303815290604052805190602001206000828154811061021d5761021c611125565b5b90600052602060002001604051602001610237919061124d565b604051602081830303815290604052805190602001200361025757600091505b80806102629061129e565b9150506101d5565b50600115158115150361039b576000849080600181540180825580915050600190039060005260206000200160009091909190915090816102ab919061147d565b50336001856040516102bd919061158b565b908152602001604051809103902060000160006101000a81548173ffffffffffffffffffffffffffffffffffffffff021916908373ffffffffffffffffffffffffffffffffffffffff160217905550670de0b6b3a76400008361032091906115a2565b600185604051610330919061158b565b90815260200160405180910390206002018190555081600185604051610356919061158b565b9081526020016040518091039020600301819055508360018560405161037c919061158b565b90815260200160405180910390206001019081610399919061147d565b505b9392505050565b60606000805480602002602001604051908101604052809291908181526020016000905b828210156104725783829060005260206000200180546103e590611183565b80601f016020809104026020016040519081016040528092919081815260200182805461041190611183565b801561045e5780601f106104335761010080835404028352916020019161045e565b820191906000526020600020905b81548152906001019060200180831161044157829003601f168201915b5050505050815260200190600101906103c6565b50505050905090565b6000818154811061048b57600080fd5b9060005260206000200160009150905080546104a690611183565b80601f01602080910402602001604051908101604052809291908181526020018280546104d290611183565b801561051f5780601f106104f45761010080835404028352916020019161051f565b820191906000526020600020905b81548152906001019060200180831161050257829003601f168201915b505050505081565b6000600260003373ffffffffffffffffffffffffffffffffffffffff1673ffffffffffffffffffffffffffffffffffffffff16815260200190815260200160002060000183604051610579919061158b565b90815260200160405180910390205411156106085780600260003373ffffffffffffffffffffffffffffffffffffffff1673ffffffffffffffffffffffffffffffffffffffff168152602001908152602001600020600001836040516105df919061158b565b908152602001604051809103902060008282546105fc91906115e4565b9250508190555061066c565b80600260003373ffffffffffffffffffffffffffffffffffffffff1673ffffffffffffffffffffffffffffffffffffffff16815260200190815260200160002060000183604051610659919061158b565b9081526020016040518091039020819055505b60006064605f83600186604051610683919061158b565b90815260200160405180910390206002015461069f91906115a2565b6106a991906115a2565b6106b39190611647565b90506001836040516106c5919061158b565b908152602001604051809103902060000160009054906101000a900473ffffffffffffffffffffffffffffffffffffffff1673ffffffffffffffffffffffffffffffffffffffff166108fc829081150290604051600060405180830381858888f1935050505015801561073c573d6000803e3d6000fd5b50505050565b80600260003373ffffffffffffffffffffffffffffffffffffffff1673ffffffffffffffffffffffffffffffffffffffff16815260200190815260200160002060000183604051610793919061158b565b908152602001604051809103902060008282546107b09190611678565b9250508190555060006064605f836001866040516107ce919061158b565b9081526020016040518091039020600201546107ea91906115a2565b6107f491906115a2565b6107fe9190611647565b90503373ffffffffffffffffffffffffffffffffffffffff166108fc829081150290604051600060405180830381858888f19350505050158015610846573d6000803e3d6000fd5b50505050565b610854610adf565b600182604051610864919061158b565b90815260200160405180910390206040518060800160405290816000820160009054906101000a900473ffffffffffffffffffffffffffffffffffffffff1673ffffffffffffffffffffffffffffffffffffffff1673ffffffffffffffffffffffffffffffffffffffff1681526020016001820180546108e390611183565b80601f016020809104026020016040519081016040528092919081815260200182805461090f90611183565b801561095c5780601f106109315761010080835404028352916020019161095c565b820191906000526020600020905b81548152906001019060200180831161093f57829003601f168201915b50505050508152602001600282015481526020016003820154815250509050919050565b60003360405160200161099391906116bb565b604051602081830303815290604052805190602001206001836040516109b9919061158b565b908152602001604051809103902060000160009054906101000a900473ffffffffffffffffffffffffffffffffffffffff166040516020016109fb91906116bb565b6040516020818303038152906040528051906020012003610ada5760005b600080549050811015610ad85782604051602001610a379190610f89565b6040516020818303038152906040528051906020012060008281548110610a6157610a60611125565b5b90600052602060002001604051602001610a7b919061124d565b6040516020818303038152906040528051906020012003610ac55760008181548110610aaa57610aa9611125565b5b906000526020600020016000610ac09190610b1d565b600191505b8080610ad09061129e565b915050610a19565b505b919050565b6040518060800160405280600073ffffffffffffffffffffffffffffffffffffffff1681526020016060815260200160008152602001600081525090565b508054610b2990611183565b6000825580601f10610b3b5750610b5a565b601f016020900490600052602060002090810190610b599190610b5d565b5b50565b5b80821115610b76576000816000905550600101610b5e565b5090565b6000604051905090565b600080fd5b600080fd5b600080fd5b600080fd5b6000601f19601f8301169050919050565b7f4e487b7100000000000000000000000000000000000000000000000000000000600052604160045260246000fd5b610be182610b98565b810181811067ffffffffffffffff82111715610c0057610bff610ba9565b5b80604052505050565b6000610c13610b7a565b9050610c1f8282610bd8565b919050565b600067ffffffffffffffff821115610c3f57610c3e610ba9565b5b610c4882610b98565b9050602081019050919050565b82818337600083830152505050565b6000610c77610c7284610c24565b610c09565b905082815260208101848484011115610c9357610c92610b93565b5b610c9e848285610c55565b509392505050565b600082601f830112610cbb57610cba610b8e565b5b8135610ccb848260208601610c64565b91505092915050565b6000819050919050565b610ce781610cd4565b8114610cf257600080fd5b50565b600081359050610d0481610cde565b92915050565b600080600060608486031215610d2357610d22610b84565b5b600084013567ffffffffffffffff811115610d4157610d40610b89565b5b610d4d86828701610ca6565b9350506020610d5e86828701610cf5565b9250506040610d6f86828701610cf5565b9150509250925092565b60008115159050919050565b610d8e81610d79565b82525050565b6000602082019050610da96000830184610d85565b92915050565b600081519050919050565b600082825260208201905092915050565b6000819050602082019050919050565b600081519050919050565b600082825260208201905092915050565b60005b83811015610e15578082015181840152602081019050610dfa565b60008484015250505050565b6000610e2c82610ddb565b610e368185610de6565b9350610e46818560208601610df7565b610e4f81610b98565b840191505092915050565b6000610e668383610e21565b905092915050565b6000602082019050919050565b6000610e8682610daf565b610e908185610dba565b935083602082028501610ea285610dcb565b8060005b85811015610ede5784840389528151610ebf8582610e5a565b9450610eca83610e6e565b925060208a01995050600181019050610ea6565b50829750879550505050505092915050565b60006020820190508181036000830152610f0a8184610e7b565b905092915050565b600060208284031215610f2857610f27610b84565b5b6000610f3684828501610cf5565b91505092915050565b600082825260208201905092915050565b6000610f5b82610ddb565b610f658185610f3f565b9350610f75818560208601610df7565b610f7e81610b98565b840191505092915050565b60006020820190508181036000830152610fa38184610f50565b905092915050565b60008060408385031215610fc257610fc1610b84565b5b600083013567ffffffffffffffff811115610fe057610fdf610b89565b5b610fec85828601610ca6565b9250506020610ffd85828601610cf5565b9150509250929050565b60006020828403121561101d5761101c610b84565b5b600082013567ffffffffffffffff81111561103b5761103a610b89565b5b61104784828501610ca6565b91505092915050565b600073ffffffffffffffffffffffffffffffffffffffff82169050919050565b600061107b82611050565b9050919050565b61108b81611070565b82525050565b61109a81610cd4565b82525050565b60006080830160008301516110b86000860182611082565b50602083015184820360208601526110d08282610e21565b91505060408301516110e56040860182611091565b5060608301516110f86060860182611091565b508091505092915050565b6000602082019050818103600083015261111d81846110a0565b905092915050565b7f4e487b7100000000000000000000000000000000000000000000000000000000600052603260045260246000fd5b7f4e487b7100000000000000000000000000000000000000000000000000000000600052602260045260246000fd5b6000600282049050600182168061119b57607f821691505b6020821081036111ae576111ad611154565b5b50919050565b60008190508160005260206000209050919050565b600081546111d681611183565b6111e08186610f3f565b945060018216600081146111fb576001811461121157611244565b60ff198316865281151560200286019350611244565b61121a856111b4565b60005b8381101561123c5781548189015260018201915060208101905061121d565b808801955050505b50505092915050565b6000602082019050818103600083015261126781846111c9565b905092915050565b7f4e487b7100000000000000000000000000000000000000000000000000000000600052601160045260246000fd5b60006112a982610cd4565b91507fffffffffffffffffffffffffffffffffffffffffffffffffffffffffffffffff82036112db576112da61126f565b5b600182019050919050565b60006020601f8301049050919050565b600082821b905092915050565b6000600883026113337fffffffffffffffffffffffffffffffffffffffffffffffffffffffffffffffff826112f6565b61133d86836112f6565b95508019841693508086168417925050509392505050565b6000819050919050565b600061137a61137561137084610cd4565b611355565b610cd4565b9050919050565b6000819050919050565b6113948361135f565b6113a86113a082611381565b848454611303565b825550505050565b600090565b6113bd6113b0565b6113c881848461138b565b505050565b5b818110156113ec576113e16000826113b5565b6001810190506113ce565b5050565b601f82111561143157611402816111b4565b61140b846112e6565b8101602085101561141a578190505b61142e611426856112e6565b8301826113cd565b50505b505050565b600082821c905092915050565b600061145460001984600802611436565b1980831691505092915050565b600061146d8383611443565b9150826002028217905092915050565b61148682610ddb565b67ffffffffffffffff81111561149f5761149e610ba9565b5b6114a98254611183565b6114b48282856113f0565b600060209050601f8311600181146114e757600084156114d5578287015190505b6114df8582611461565b865550611547565b601f1984166114f5866111b4565b60005b8281101561151d578489015182556001820191506020850194506020810190506114f8565b8683101561153a5784890151611536601f891682611443565b8355505b6001600288020188555050505b505050505050565b600081905092915050565b600061156582610ddb565b61156f818561154f565b935061157f818560208601610df7565b80840191505092915050565b6000611597828461155a565b915081905092915050565b60006115ad82610cd4565b91506115b883610cd4565b92508282026115c681610cd4565b915082820484148315176115dd576115dc61126f565b5b5092915050565b60006115ef82610cd4565b91506115fa83610cd4565b92508282019050808211156116125761161161126f565b5b92915050565b7f4e487b7100000000000000000000000000000000000000000000000000000000600052601260045260246000fd5b600061165282610cd4565b915061165d83610cd4565b92508261166d5761166c611618565b5b828204905092915050565b600061168382610cd4565b915061168e83610cd4565b92508282039050818111156116a6576116a561126f565b5b92915050565b6116b581611070565b82525050565b60006020820190506116d060008301846116ac565b9291505056fea2646970667358221220cec311644f4e9e4138cd2fd0a92786bddf5f14a94ee6ba71a5bc269a2cabb28964736f6c63430008110033",
  "immutableReferences": {},
  "source": "// SPDX-License-Identifier: MIT\r\npragma solidity ^0.8.17;\r\n\r\ncontract FruitShop{\r\n    //  ->  -> , \r\n    // \r\n    string[] public fruitList;\r\n    //  \r\n    // { : ,,}\r\n    struct SellFruit{\r\n        address owner;\r\n        string name;\r\n        uint price;\r\n        uint num;\r\n    }\r\n    mapping (string=>SellFruit) makeShop;\r\n    //  \r\n    function registerFruit(string memory _name,uint _price, uint _num) public returns(bool check){\r\n        check = true;\r\n        for(uint i = 0 ;i<fruitList.length;i++){\r\n            if(keccak256(abi.encode(fruitList[i]))  == keccak256(abi.encode(_name))) check = false;\r\n        }\r\n        if(check == true) {\r\n            fruitList.push(_name);\r\n            makeShop[_name].owner = msg.sender;\r\n            makeShop[_name].price = _price * 10 ** 18;\r\n            makeShop[_name].num = _num;\r\n            makeShop[_name].name = _name;\r\n        }\r\n        return check;\r\n    }\r\n    //  \r\n    function deleteFruit(string memory _name) public returns(bool check){\r\n        check = false;\r\n        if(keccak256(abi.encode(makeShop[_name].owner))  == keccak256(abi.encode(msg.sender))){\r\n            for(uint i = 0 ;i<fruitList.length; i++){\r\n                if(keccak256(abi.encode(fruitList[i])) == keccak256(abi.encode(_name))){\r\n                    delete fruitList[i];\r\n                    check = true;\r\n                }\r\n            }\r\n        }\r\n        return check;\r\n    }\r\n    //  \r\n    // { : {  : }}\r\n    struct Fruit{\r\n        mapping(string=>uint) num;\r\n    }\r\n    mapping (address=>Fruit) fruitWallet;\r\n\r\n    //  \r\n    function buyFruit(string memory _name, uint _num) public payable{\r\n        if(fruitWallet[msg.sender].num[_name] > 0){\r\n            fruitWallet[msg.sender].num[_name] += _num;\r\n        }else{\r\n            fruitWallet[msg.sender].num[_name] = _num;\r\n        }\r\n        uint sendMoney = makeShop[_name].price * _num * 95 / 100;\r\n        payable(makeShop[_name].owner).transfer(sendMoney);\r\n    }\r\n    //  \r\n    function sellFruit(string memory _name, uint _num) public payable {\r\n            fruitWallet[msg.sender].num[_name] -= _num;\r\n            uint sendMoney = makeShop[_name].price * _num * 95 / 100;\r\n            payable(msg.sender).transfer(sendMoney);\r\n    }\r\n    //  \r\n    function getFruitList() public view returns(string[] memory)  {\r\n        return fruitList;\r\n    }\r\n    //   \r\n    function getSellerList(string memory fruit) public view returns(SellFruit memory){\r\n        return makeShop[fruit];\r\n    }\r\n}",
  "sourcePath": "C:\\Users\\KGA_030\\Desktop\\class\\React_project\\ethfruitshop\\smartContract\\contracts\\FruitShop.sol",
  "compiler": {
    "name": "solc",
    "version": "0.8.17+commit.8df45f5f.Emscripten.clang"
  },
  "schemaVersion": "3.4.11",
  "updatedAt": "2022-12-01T05:58:35.972Z",
  "networkType": "ethereum",
  "devdoc": {
    "kind": "dev",
    "methods": {},
    "version": 1
  },
  "userdoc": {
    "kind": "user",
    "methods": {},
    "version": 1
  }
}