{
  "contractName": "FruitShop",
  "abi": [
    {
      "inputs": [
        {
          "internalType": "uint256",
          "name": "",
          "type": "uint256"
        }
      ],
      "name": "fruitList",
      "outputs": [
        {
          "internalType": "string",
          "name": "",
          "type": "string"
        }
      ],
      "stateMutability": "view",
      "type": "function",
      "constant": true
    },
    {
      "inputs": [
        {
          "internalType": "string",
          "name": "_name",
          "type": "string"
        },
        {
          "internalType": "uint256",
          "name": "_pirce",
          "type": "uint256"
        },
        {
          "internalType": "uint256",
          "name": "_num",
          "type": "uint256"
        },
        {
          "internalType": "uint256",
          "name": "_buyPrice",
          "type": "uint256"
        }
      ],
      "name": "registerFruit",
      "outputs": [
        {
          "internalType": "bool",
          "name": "check",
          "type": "bool"
        }
      ],
      "stateMutability": "nonpayable",
      "type": "function"
    },
    {
      "inputs": [
        {
          "internalType": "string",
          "name": "_name",
          "type": "string"
        }
      ],
      "name": "deleteFruit",
      "outputs": [
        {
          "internalType": "bool",
          "name": "check",
          "type": "bool"
        }
      ],
      "stateMutability": "nonpayable",
      "type": "function"
    },
    {
      "inputs": [
        {
          "internalType": "string",
          "name": "_name",
          "type": "string"
        },
        {
          "internalType": "uint256",
          "name": "_num",
          "type": "uint256"
        }
      ],
      "name": "buyFruit",
      "outputs": [],
      "stateMutability": "payable",
      "type": "function",
      "payable": true
    },
    {
      "inputs": [
        {
          "internalType": "string",
          "name": "_name",
          "type": "string"
        },
        {
          "internalType": "uint256",
          "name": "_num",
          "type": "uint256"
        }
      ],
      "name": "sellFruit",
      "outputs": [],
      "stateMutability": "payable",
      "type": "function",
      "payable": true
    }
  ],
  "bytecode": "0x608060405234801561001057600080fd5b5061125b806100206000396000f3fe60806040526004361061004a5760003560e01c8063524452b61461004f578063899c704c1461008c5780638fa12787146100a8578063aadb475c146100c4578063cc8cdff514610101575b600080fd5b34801561005b57600080fd5b50610076600480360381019061007191906108d0565b61013e565b604051610083919061098d565b60405180910390f35b6100a660048036038101906100a19190610ae4565b6101ea565b005b6100c260048036038101906100bd9190610ae4565b610405565b005b3480156100d057600080fd5b506100eb60048036038101906100e69190610b40565b61050f565b6040516100f89190610bde565b60405180910390f35b34801561010d57600080fd5b5061012860048036038101906101239190610bf9565b6106ca565b6040516101359190610bde565b60405180910390f35b6000818154811061014e57600080fd5b90600052602060002001600091509050805461016990610c71565b80601f016020809104026020016040519081016040528092919081815260200182805461019590610c71565b80156101e25780601f106101b7576101008083540402835291602001916101e2565b820191906000526020600020905b8154815290600101906020018083116101c557829003601f168201915b505050505081565b6000600260003373ffffffffffffffffffffffffffffffffffffffff1673ffffffffffffffffffffffffffffffffffffffff1681526020019081526020016000206000018360405161023c9190610cde565b90815260200160405180910390205411156102cb5780600260003373ffffffffffffffffffffffffffffffffffffffff1673ffffffffffffffffffffffffffffffffffffffff168152602001908152602001600020600001836040516102a29190610cde565b908152602001604051809103902060008282546102bf9190610d24565b9250508190555061032f565b80600260003373ffffffffffffffffffffffffffffffffffffffff1673ffffffffffffffffffffffffffffffffffffffff1681526020019081526020016000206000018360405161031c9190610cde565b9081526020016040518091039020819055505b60006064605f836001866040516103469190610cde565b9081526020016040518091039020600101546103629190610d58565b61036c9190610d58565b6103769190610dc9565b90506001836040516103889190610cde565b908152602001604051809103902060000160009054906101000a900473ffffffffffffffffffffffffffffffffffffffff1673ffffffffffffffffffffffffffffffffffffffff166108fc829081150290604051600060405180830381858888f193505050501580156103ff573d6000803e3d6000fd5b50505050565b80600260003373ffffffffffffffffffffffffffffffffffffffff1673ffffffffffffffffffffffffffffffffffffffff168152602001908152602001600020600001836040516104569190610cde565b908152602001604051809103902060008282546104739190610dfa565b9250508190555060006064605f836001866040516104919190610cde565b9081526020016040518091039020600101546104ad9190610d58565b6104b79190610d58565b6104c19190610dc9565b90503373ffffffffffffffffffffffffffffffffffffffff166108fc829081150290604051600060405180830381858888f19350505050158015610509573d6000803e3d6000fd5b50505050565b60006001905060005b6000805490508110156105ad5785604051602001610536919061098d565b60405160208183030381529060405280519060200120600082815481106105605761055f610e2e565b5b9060005260206000200160405160200161057a9190610ef6565b604051602081830303815290604052805190602001200361059a57600091505b80806105a590610f18565b915050610518565b5060011515811515036106c2576000859080600181540180825580915050600190039060005260206000200160009091909190915090816105ee91906110f7565b50336001866040516106009190610cde565b908152602001604051809103902060000160006101000a81548173ffffffffffffffffffffffffffffffffffffffff021916908373ffffffffffffffffffffffffffffffffffffffff160217905550836001866040516106609190610cde565b908152602001604051809103902060010181905550826001866040516106869190610cde565b908152602001604051809103902060020181905550816001866040516106ac9190610cde565b9081526020016040518091039020600301819055505b949350505050565b6000336040516020016106dd919061120a565b604051602081830303815290604052805190602001206001836040516107039190610cde565b908152602001604051809103902060000160009054906101000a900473ffffffffffffffffffffffffffffffffffffffff16604051602001610745919061120a565b60405160208183030381529060405280519060200120036108245760005b6000805490508110156108225782604051602001610781919061098d565b60405160208183030381529060405280519060200120600082815481106107ab576107aa610e2e565b5b906000526020600020016040516020016107c59190610ef6565b604051602081830303815290604052805190602001200361080f57600081815481106107f4576107f3610e2e565b5b90600052602060002001600061080a9190610829565b600191505b808061081a90610f18565b915050610763565b505b919050565b50805461083590610c71565b6000825580601f106108475750610866565b601f0160209004906000526020600020908101906108659190610869565b5b50565b5b8082111561088257600081600090555060010161086a565b5090565b6000604051905090565b600080fd5b600080fd5b6000819050919050565b6108ad8161089a565b81146108b857600080fd5b50565b6000813590506108ca816108a4565b92915050565b6000602082840312156108e6576108e5610890565b5b60006108f4848285016108bb565b91505092915050565b600081519050919050565b600082825260208201905092915050565b60005b8381101561093757808201518184015260208101905061091c565b60008484015250505050565b6000601f19601f8301169050919050565b600061095f826108fd565b6109698185610908565b9350610979818560208601610919565b61098281610943565b840191505092915050565b600060208201905081810360008301526109a78184610954565b905092915050565b600080fd5b600080fd5b7f4e487b7100000000000000000000000000000000000000000000000000000000600052604160045260246000fd5b6109f182610943565b810181811067ffffffffffffffff82111715610a1057610a0f6109b9565b5b80604052505050565b6000610a23610886565b9050610a2f82826109e8565b919050565b600067ffffffffffffffff821115610a4f57610a4e6109b9565b5b610a5882610943565b9050602081019050919050565b82818337600083830152505050565b6000610a87610a8284610a34565b610a19565b905082815260208101848484011115610aa357610aa26109b4565b5b610aae848285610a65565b509392505050565b600082601f830112610acb57610aca6109af565b5b8135610adb848260208601610a74565b91505092915050565b60008060408385031215610afb57610afa610890565b5b600083013567ffffffffffffffff811115610b1957610b18610895565b5b610b2585828601610ab6565b9250506020610b36858286016108bb565b9150509250929050565b60008060008060808587031215610b5a57610b59610890565b5b600085013567ffffffffffffffff811115610b7857610b77610895565b5b610b8487828801610ab6565b9450506020610b95878288016108bb565b9350506040610ba6878288016108bb565b9250506060610bb7878288016108bb565b91505092959194509250565b60008115159050919050565b610bd881610bc3565b82525050565b6000602082019050610bf36000830184610bcf565b92915050565b600060208284031215610c0f57610c0e610890565b5b600082013567ffffffffffffffff811115610c2d57610c2c610895565b5b610c3984828501610ab6565b91505092915050565b7f4e487b7100000000000000000000000000000000000000000000000000000000600052602260045260246000fd5b60006002820490506001821680610c8957607f821691505b602082108103610c9c57610c9b610c42565b5b50919050565b600081905092915050565b6000610cb8826108fd565b610cc28185610ca2565b9350610cd2818560208601610919565b80840191505092915050565b6000610cea8284610cad565b915081905092915050565b7f4e487b7100000000000000000000000000000000000000000000000000000000600052601160045260246000fd5b6000610d2f8261089a565b9150610d3a8361089a565b9250828201905080821115610d5257610d51610cf5565b5b92915050565b6000610d638261089a565b9150610d6e8361089a565b9250828202610d7c8161089a565b91508282048414831517610d9357610d92610cf5565b5b5092915050565b7f4e487b7100000000000000000000000000000000000000000000000000000000600052601260045260246000fd5b6000610dd48261089a565b9150610ddf8361089a565b925082610def57610dee610d9a565b5b828204905092915050565b6000610e058261089a565b9150610e108361089a565b9250828203905081811115610e2857610e27610cf5565b5b92915050565b7f4e487b7100000000000000000000000000000000000000000000000000000000600052603260045260246000fd5b60008190508160005260206000209050919050565b60008154610e7f81610c71565b610e898186610908565b94506001821660008114610ea45760018114610eba57610eed565b60ff198316865281151560200286019350610eed565b610ec385610e5d565b60005b83811015610ee557815481890152600182019150602081019050610ec6565b808801955050505b50505092915050565b60006020820190508181036000830152610f108184610e72565b905092915050565b6000610f238261089a565b91507fffffffffffffffffffffffffffffffffffffffffffffffffffffffffffffffff8203610f5557610f54610cf5565b5b600182019050919050565b60006020601f8301049050919050565b600082821b905092915050565b600060088302610fad7fffffffffffffffffffffffffffffffffffffffffffffffffffffffffffffffff82610f70565b610fb78683610f70565b95508019841693508086168417925050509392505050565b6000819050919050565b6000610ff4610fef610fea8461089a565b610fcf565b61089a565b9050919050565b6000819050919050565b61100e83610fd9565b61102261101a82610ffb565b848454610f7d565b825550505050565b600090565b61103761102a565b611042818484611005565b505050565b5b818110156110665761105b60008261102f565b600181019050611048565b5050565b601f8211156110ab5761107c81610e5d565b61108584610f60565b81016020851015611094578190505b6110a86110a085610f60565b830182611047565b50505b505050565b600082821c905092915050565b60006110ce600019846008026110b0565b1980831691505092915050565b60006110e783836110bd565b9150826002028217905092915050565b611100826108fd565b67ffffffffffffffff811115611119576111186109b9565b5b6111238254610c71565b61112e82828561106a565b600060209050601f831160018114611161576000841561114f578287015190505b61115985826110db565b8655506111c1565b601f19841661116f86610e5d565b60005b8281101561119757848901518255600182019150602085019450602081019050611172565b868310156111b457848901516111b0601f8916826110bd565b8355505b6001600288020188555050505b505050505050565b600073ffffffffffffffffffffffffffffffffffffffff82169050919050565b60006111f4826111c9565b9050919050565b611204816111e9565b82525050565b600060208201905061121f60008301846111fb565b9291505056fea264697066735822122053953c20f0d2e8933142c78ce9fab90782c8cda7195a3e9a6b3930addd32587d64736f6c63430008110033",
  "immutableReferences": {},
  "source": "// SPDX-License-Identifier: MIT\r\npragma solidity ^0.8.17;\r\n\r\ncontract FruitShop{\r\n    //  ->  -> , \r\n    // \r\n    string[] public fruitList;\r\n    //  \r\n    // { : ,,}\r\n    struct SellFruit{\r\n        address owner;\r\n        uint price;\r\n        uint num;\r\n        uint buyPrice;\r\n    }\r\n    mapping (string=>SellFruit) makeShop;\r\n    //  \r\n    function registerFruit(string memory _name,uint _pirce, uint _num,uint _buyPrice) public returns(bool check){\r\n        check = true;\r\n        for(uint i = 0 ;i<fruitList.length;i++){\r\n            if(keccak256(abi.encode(fruitList[i]))  == keccak256(abi.encode(_name))) check = false;\r\n        }\r\n        if(check == true) {\r\n            fruitList.push(_name);\r\n            makeShop[_name].owner = msg.sender;\r\n            makeShop[_name].price = _pirce;\r\n            makeShop[_name].num = _num;\r\n            makeShop[_name].buyPrice = _buyPrice;\r\n        }\r\n        return check;\r\n    }\r\n    //  \r\n    function deleteFruit(string memory _name) public returns(bool check){\r\n        check = false;\r\n        if(keccak256(abi.encode(makeShop[_name].owner))  == keccak256(abi.encode(msg.sender))){\r\n            for(uint i = 0 ;i<fruitList.length; i++){\r\n                if(keccak256(abi.encode(fruitList[i])) == keccak256(abi.encode(_name))){\r\n                    delete fruitList[i];\r\n                    check = true;\r\n                }\r\n            }\r\n        }\r\n        return check;\r\n    }\r\n    //  \r\n    // { : {  : }}\r\n    struct Fruit{\r\n        mapping(string=>uint) num;\r\n    }\r\n    mapping (address=>Fruit) fruitWallet;\r\n\r\n    //  \r\n    function buyFruit(string memory _name, uint _num) public payable{\r\n        if(fruitWallet[msg.sender].num[_name] > 0){\r\n            fruitWallet[msg.sender].num[_name] += _num;\r\n        }else{\r\n            fruitWallet[msg.sender].num[_name] = _num;\r\n        }\r\n        uint sendMoney = makeShop[_name].price * _num * 95 / 100;\r\n        payable(makeShop[_name].owner).transfer(sendMoney);\r\n    }\r\n    //  \r\n    function sellFruit(string memory _name, uint _num) public payable{\r\n            fruitWallet[msg.sender].num[_name] -= _num;\r\n            uint sendMoney = makeShop[_name].price * _num * 95 / 100;\r\n            payable(msg.sender).transfer(sendMoney);\r\n    }\r\n}",
  "sourcePath": "C:\\Users\\qkrxo\\Desktop\\\\react_project\\ethfruitshop\\smartContract\\contracts\\FruitShop.sol",
  "compiler": {
    "name": "solc",
    "version": "0.8.17+commit.8df45f5f.Emscripten.clang"
  },
  "schemaVersion": "3.4.11",
  "updatedAt": "2022-11-30T13:23:01.811Z",
  "networkType": "ethereum",
  "devdoc": {
    "kind": "dev",
    "methods": {},
    "version": 1
  },
  "userdoc": {
    "kind": "user",
    "methods": {},
    "version": 1
  }
}